:020000040800F2
:1000000000C000202D2100085D1A00085F1A0008BA
:10001000611A0008631A0008651A00080000000051
:10002000000000000000000000000000671A000847
:10003000691A0008000000006B1A00086D1A000819
:100040007521000875210008752100087521000838
:100050007521000875210008751A00087F1A00082C
:10006000891A0008931A0008752100089D1A0008D3
:100070007521000875210008752100087521000808
:1000800075210008752100087521000875210008F8
:1000900075210008752100087521000875210008E8
:1000A00075210008752100087521000875210008D8
:1000B0007521000875210008AD1A00087521000897
:1000C00075210008752100087521000875210008B8
:1000D00075210008BD1A000875210008CD1A000816
:1000E0007521000875210008752100087521000898
:1000F0007521000875210008752100087521000888
:100100007521000875210008752100087521000877
:100110007521000875210008DD1A0008ED1A000895
:100120007521000875210008752100087521000857
:1001300000000000000000000000000000000000BF
:1001400000000000000000000000000000000000AF
:10015000000000000000000000000000000000009F
:10016000000000000000000000000000000000008F
:10017000000000000000000000000000000000007F
:10018000000000000000000000000000000000006F
:10019000000000000000000000000000000000005F
:1001A000000000000000000000000000000000004F
:1001B000000000000000000000000000000000003F
:1001C000000000000000000000000000000000002F
:1001D000000000000000000000000000000000001F
:0401E0005FF8E0F1F3
:1001E80010B5054C237833B9044B13B10448AFF369
:1001F80000800123237010BDC80B00200000000000
:1002080020B8000808B5034B1BB103490348AFF3F6
:10021800008008BD00000000CC0B002020B80008BA
:1002280081F0004102E000BF83F0004330B54FEA9F
:1002380041044FEA430594EA050F08BF90EA020F0C
:100248001FBF54EA000C55EA020C7FEA645C7FEA9F
:10025800655C00F0E2804FEA5454D4EB5555B8BFC2
:100268006D420CDD2C4480EA020281EA030382EA33
:10027800000083EA010180EA020281EA0303362DC5
:1002880088BF30BD11F0004F4FEA01314FF4801C98
:100298004CEA113102D0404261EB410113F0004FAA
:1002A8004FEA03334CEA133302D0524263EB430361
:1002B80094EA050F00F0A780A4F10104D5F1200EFF
:1002C8000DDB02FA0EFC22FA05F2801841F100015A
:1002D80003FA0EF2801843FA05F359410EE0A5F12E
:1002E80020050EF1200E012A03FA0EFC28BF4CF05F
:1002F800020C43FA05F3C01851EBE37101F0004515
:1003080007D54FF0000EDCF1000C7EEB00006EEB21
:100318000101B1F5801F1BD3B1F5001F0CD34908AB
:100328005FEA30004FEA3C0C04F101044FEA445202
:1003380012F5800F80F09A80BCF1004F08BF5FEA89
:10034800500C50F1000041EB045141EA050130BD69
:100358005FEA4C0C404141EB0101013C28BFB1F57B
:10036800801FE9D291F0000F04BF01460020B1FAC6
:1003780081F308BF2033A3F10B03B3F120020CDA99
:100388000C3208DD02F1140CC2F10C0201FA0CF077
:1003980021FA02F10CE002F11402D8BFC2F1200CDC
:1003A80001FA02F120FA0CFCDCBF41EA0C01904092
:1003B800E41AA2BF01EB0451294330BD6FEA0404DB
:1003C8001F3C1CDA0C340EDC04F11404C4F12002C6
:1003D80020FA04F001FA02F340EA030021FA04F3D8
:1003E80045EA030130BDC4F10C04C4F1200220FA2F
:1003F80002F001FA04F340EA0300294630BD21FA6D
:1004080004F0294630BD94F0000F83F4801306BF32
:1004180081F480110134013D4EE77FEA645C18BF26
:100428007FEA655C29D094EA050F08BF90EA020FBD
:1004380005D054EA000C04BF1946104630BD91EAB5
:10044800030F1EBF0021002030BD5FEA545C05D1B8
:100458004000494128BF41F0004130BD14F58004F7
:100468003CBF01F5801130BD01F0004545F0FE416B
:1004780041F470014FF0000030BD7FEA645C1ABFA0
:10048800194610467FEA655C1CBF0B46024650EAD7
:10049800013406BF52EA033591EA030F41F4002103
:1004A80030BD00BF90F0000F04BF0021704730B589
:1004B8004FF4806404F132044FF000054FF000015E
:1004C80050E700BF90F0000F04BF0021704730B51F
:1004D8004FF4806404F1320410F0004548BF4042F4
:1004E8004FF000013EE700BF42004FEAE2014FEA49
:1004F80031014FEA02701FBF12F07F4393F07F4F24
:1005080081F06051704732F07F4208BF704793F026
:100518007F4F04BF41F40021704730B54FF4607439
:1005280001F0004521F000411CE700BF50EA01023C
:1005380008BF704730B54FF000050AE050EA0102E5
:1005480008BF704730B511F0004502D5404261EB55
:1005580041014FF4806404F132045FEA915C3FF496
:10056800D8AE4FF003025FEADC0C18BF03325FEA33
:10057800DC0C18BF033202EBDC02C2F1200300FAE4
:1005880003FC20FA02F001FA03FE40EA0E0021FA09
:1005980002F11444BDE600BF70B54FF0FF0C4CF4F7
:1005A800E06C1CEA11541DBF1CEA135594EA0C0FA9
:1005B80095EA0C0F00F0DEF82C4481EA030621EAE4
:1005C8004C5123EA4C5350EA013518BF52EA03351F
:1005D80041F4801143F4801338D0A0FB02CE4FF0D1
:1005E8000005E1FB02E506F00042E0FB03E54FF001
:1005F8000006E1FB03569CF0000F18BF4EF0010EF9
:10060800A4F1FF04B6F5007F64F5407404D25FEAF4
:100618004E0E6D4146EB060642EAC62141EA5551A7
:100628004FEAC52040EA5E504FEACE2EB4F1FD0CE9
:1006380088BFBCF5E06F1ED8BEF1004F08BF5FEA67
:10064800500E50F1000041EB045170BD06F0004619
:1006580046EA010140EA020081EA0301B4EB5C04C6
:10066800C2BFD4EB0C0541EA045170BD41F48011BE
:100678004FF0000E013C00F3AB8014F1360FDEBFE3
:10068800002001F0004170BDC4F10004203C35DABF
:100698000C341BDC04F11404C4F1200500FA05F342
:1006A80020FA04F001FA05F240EA020001F00042E3
:1006B80021F0004110EBD37021FA04F642EB060159
:1006C8005EEA430E08BF20EAD37070BDC4F10C0483
:1006D800C4F1200500FA04F320FA05F001FA04F247
:1006E80040EA020001F0004110EBD37041F1000133
:1006F8005EEA430E08BF20EAD37070BDC4F120053E
:1007080000FA05F24EEA020E20FA04F301FA05F2A5
:1007180043EA020321FA04F001F0004121FA04F24D
:1007280020EA020000EBD3705EEA430E08BF20EA1D
:10073800D37070BD94F0000F0FD101F00046400057
:1007480041EB010111F4801F08BF013CF7D041EAD9
:10075800060195F0000F18BF704703F000465200DD
:1007680043EB030313F4801F08BF013DF7D043EAAE
:100778000603704794EA0C0F0CEA135518BF95EA64
:100788000C0F0CD050EA410618BF52EA4306D1D1EB
:1007980081EA030101F000414FF0000070BD50EA0A
:1007A800410606BF1046194652EA430619D094EA94
:1007B8000C0F02D150EA013613D195EA0C0F05D17E
:1007C80052EA03361CBF104619460AD181EA0301D2
:1007D80001F0004141F0FE4141F470014FF000008A
:1007E80070BD41F0FE4141F4780170BD70B54FF025
:1007F800FF0C4CF4E06C1CEA11541DBF1CEA1355A5
:1008080094EA0C0F95EA0C0F00F0A7F8A4EB050486
:1008180081EA030E52EA03354FEA013100F088807D
:100828004FEA03334FF0805545EA131343EA126346
:100838004FEA022245EA111545EA10654FEA0026FB
:100848000EF000419D4208BF964244F1FD0404F5B4
:10085800407402D25B084FEA3202B61A65EB030510
:100868005B084FEA32024FF480104FF4002CB6EBCD
:10087800020E75EB030E22BFB61A754640EA0C004D
:100888005B084FEA3202B6EB020E75EB030E22BF8D
:10089800B61A754640EA5C005B084FEA3202B6EBCE
:1008A800020E75EB030E22BFB61A754640EA9C008D
:1008B8005B084FEA3202B6EB020E75EB030E22BF5D
:1008C800B61A754640EADC0055EA060E18D04FEA1B
:1008D800051545EA16754FEA06164FEAC30343EABB
:1008E80052734FEAC2025FEA1C1CC0D111F4801F88
:1008F8000BD141EA00014FF000004FF0004CB6E781
:1009080011F4801F04BF01430020B4F1FD0C88BF1F
:10091800BCF5E06F3FF6AFAEB5EB030C04BFB6EB2A
:10092800020C5FEA500C50F1000041EB045170BD1D
:100938000EF0004E4EEA113114EB5C04C2BFD4EB4A
:100948000C0541EA045170BD41F480114FF0000ECE
:10095800013C90E645EA060E8DE60CEA135594EA4A
:100968000C0F08BF95EA0C0F3FF43BAF94EA0C0F4D
:100978000AD150EA01347FF434AF95EA0C0F7FF4C2
:1009880025AF104619462CE795EA0C0F06D152EA16
:1009980003353FF4FDAE1046194622E750EA4106FA
:1009A80018BF52EA43067FF4C5AE50EA41047FF40B
:1009B8000DAF52EA43057FF4EBAE12E74FF0FF3C70
:1009C80006E000BF4FF0010C02E000BF4FF0010C41
:1009D8004DF804CD4FEA410C7FEA6C5C4FEA430CBA
:1009E80018BF7FEA6C5C1BD001B050EA410C0CBF09
:1009F80052EA430C91EA030F02BF90EA020F00206B
:100A0800704710F1000F91EA030F58BF994208BFD1
:100A180090422CBFD8176FEAE37040F0010070478E
:100A28004FEA410C7FEA6C5C02D150EA013C07D1E5
:100A38004FEA430C7FEA6C5CD6D152EA033CD3D030
:100A48005DF8040B704700BF8446104662468C462A
:100A58001946634600E000BF01B5FFF7B7FF00285D
:100A680048BF10F1000F01BD4DF808EDFFF7F4FF86
:100A78000CBF012000205DF808FB00BF4DF808ED11
:100A8800FFF7EAFF34BF012000205DF808FB00BF34
:100A98004DF808EDFFF7E0FF94BF012000205DF856
:100AA80008FB00BF4DF808EDFFF7CEFF94BF01200B
:100AB80000205DF808FB00BF4DF808EDFFF7C4FF04
:100AC80034BF012000205DF808FB00BF4FEA410257
:100AD800B2F1E04324BFB3F5001CDCF1FE5C0DD994
:100AE80001F0004C4FEAC0024CEA5070B2F1004FDE
:100AF80040EB830008BF20F00100704711F0804FE1
:100B080021D113F13872BCBF01F00040704741F4A5
:100B180080114FEA5252C2F11802C2F1200C10FAA9
:100B28000CF320FA02F018BF40F001004FEAC1238D
:100B38004FEAD32303FA0CFC40EA0C0023FA02F331
:100B48004FEA4303CCE77FEA625307D150EA013307
:100B58001EBF4FF0FE4040F44000704701F00040D7
:100B680040F0FE4040F40000704700BF80F00040B5
:100B780002E000BF81F0004142001FBF5FEA41036D
:100B880092EA030F7FEA226C7FEA236C6AD04FEA6D
:100B98001262D2EB1363C1BFD218414048404140B2
:100BA800B8BF5B42192B88BF704710F0004F40F464
:100BB800000020F07F4018BF404211F0004F41F480
:100BC800000121F07F4118BF494292EA030F3FD04C
:100BD800A2F1010241FA03FC10EB0C00C3F120035F
:100BE80001FA03F100F0004302D5494260EB4000EE
:100BF800B0F5000F13D3B0F1807F06D340084FEA59
:100C0800310102F10102FE2A51D2B1F1004F40EB4D
:100C1800C25008BF20F0010040EA030070474900B5
:100C280040EB0000013A28BFB0F5000FEDD2B0FA52
:100C380080FCACF1080CB2EB0C0200FA0CF0AABF75
:100C480000EBC25052421843BCBFD0401843704713
:100C580092F0000F81F4000106BF80F40000013219
:100C6800013BB5E74FEA41037FEA226C18BF7FEAF0
:100C7800236C21D092EA030F04D092F0000F08BF32
:100C88000846704790EA010F1CBF0020704712F019
:100C98007F4F04D1400028BF40F00040704712F158
:100CA80000723CBF00F50000704700F0004343F0BD
:100CB800FE4040F4000070477FEA226216BF0846F3
:100CC8007FEA23630146420206BF5FEA412390EAB6
:100CD800010F40F4800070474FF0000304E000BFAC
:100CE80010F0004348BF40425FEA000C08BF70475D
:100CF80043F0964301464FF000001CE050EA010221
:100D080008BF70474FF000030AE000BF50EA010235
:100D180008BF704711F0004302D5404261EB410122
:100D28005FEA010C02BF84460146002043F0B64347
:100D380008BFA3F18053A3F50003BCFA8CF2083A6C
:100D4800A3EBC25310DB01FA02FC634400FA02FC75
:100D5800C2F12002BCF1004F20FA02F243EB02007C
:100D680008BF20F00100704702F1200201FA02FCDE
:100D7800C2F1200250EA4C0021FA02F243EB0200D1
:100D880008BF20EADC7070474FF0FF0C1CEAD05215
:100D98001EBF1CEAD15392EA0C0F93EA0C0F6FD0D6
:100DA8001A4480EA010C400218BF5FEA41211ED0B4
:100DB8004FF0006343EA501043EA5111A0FB0131A0
:100DC8000CF00040B1F5000F3EBF490041EAD37175
:100DD8005B0040EA010062F17F02FD2A1DD8B3F1F1
:100DE800004F40EBC25008BF20F00100704790F060
:100DF800000F0CF0004C08BF49024CEA502040EAB2
:100E080051207F3AC2BFD2F1FF0340EAC250704777
:100E180040F400004FF00003013A5DDC12F1190FB5
:100E2800DCBF00F000407047C2F10002410021FA27
:100E380002F1C2F1200200FA02FC5FEA310040F13F
:100E4800000053EA4C0308BF20EADC70704792F0B8
:100E5800000F00F0004C02BF400010F4000F013AF0
:100E6800F9D040EA0C0093F0000F01F0004C02BFEB
:100E7800490011F4000F013BF9D041EA0C018FE75A
:100E88000CEAD15392EA0C0F18BF93EA0C0F0AD060
:100E980030F0004C18BF31F0004CD8D180EA010086
:100EA80000F00040704790F0000F17BF90F0004F1F
:100EB800084691F0000F91F0004F14D092EA0C0F01
:100EC80001D142020FD193EA0C0F03D14B0218BF94
:100ED800084608D180EA010000F0004040F0FE40DA
:100EE80040F40000704740F0FE4040F44000704776
:100EF8004FF0FF0C1CEAD0521EBF1CEAD15392EAF5
:100F08000C0F93EA0C0F69D0A2EB030280EA010CE4
:100F180049024FEA402037D04FF0805343EA11117D
:100F280043EA10130CF000408B4238BF5B0042F1DB
:100F38007D024FF4000C8B4224BF5B1A40EA0C0080
:100F4800B3EB510F24BFA3EB510340EA5C00B3EBB2
:100F5800910F24BFA3EB910340EA9C00B3EBD10FA0
:100F680024BFA3EBD10340EADC001B0118BF5FEAF2
:100F78001C1CE0D1FD2A3FF650AF8B4240EBC2501B
:100F880008BF20F0010070470CF0004C4CEA5020DC
:100F98007F32C2BFD2F1FF0340EAC250704740F42B
:100FA80000004FF00003013A37E792F0000F00F01D
:100FB800004C02BF400010F4000F013AF9D040EA9B
:100FC8000C0093F0000F01F0004C02BF490011F42F
:100FD800000F013BF9D041EA0C0195E70CEAD15327
:100FE80092EA0C0F08D142027FF47DAF93EA0C0F0E
:100FF8007FF470AF084676E793EA0C0F04D14B02F2
:101008003FF44CAF08466EE730F0004C18BF31F0A3
:10101800004CCAD130F000427FF45CAF31F000439D
:101028007FF43CAF5FE700BF4FF0FF3C06E000BF36
:101038004FF0010C02E000BF4FF0010C4DF804CD59
:101048004FEA40024FEA41037FEA226C18BF7FEA69
:10105800236C11D001B052EA530C18BF90EA010F6B
:1010680058BFB2EB030088BFC81738BF6FEAE170FA
:1010780018BF40F0010070477FEA226C02D15FEA96
:10108800402C05D17FEA236CE4D15FEA412CE1D002
:101098005DF8040B704700BF844608466146FFE7C9
:1010A8000FB5FFF7C9FF002848BF10F1000F0FBDAB
:1010B8004DF808EDFFF7F4FF0CBF012000205DF8A4
:1010C80008FB00BF4DF808EDFFF7EAFF34BF012029
:1010D80000205DF808FB00BF4DF808EDFFF7E0FFC2
:1010E80094BF012000205DF808FB00BF4DF808ED13
:1010F800FFF7D2FF94BF012000205DF808FB00BF76
:101108004DF808EDFFF7C8FF34BF012000205DF857
:1011180008FB00BF42000ED2B2F1FE4F0BD34FF0D6
:101128009E03B3EB126209D44FEA002343F0004355
:1011380023FA02F070474FF00000704712F1610F78
:1011480001D1420202D14FF0FF3070474FF000004A
:10115800704700BF2DE9F047089E0D4604468846B3
:10116800002B4DD18A42944668D9B2FA82F252B124
:1011780001FA02F3C2F1200120FA01F10CFA02FC93
:1011880041EA030894404FEA1C41B8FBF1F71FFA03
:101198008CFE01FB178807FB0EF0230C43EA08437B
:1011A80098420AD91CEB030307F1FF3580F01E8132
:1011B800984240F21B81023F63441B1AB3FBF1F0D3
:1011C80001FB103300FB0EFEA4B244EA0344A6451B
:1011D8000AD91CEB040400F1FF3380F00981A6450D
:1011E80040F20681644402380021A4EB0E0440EA70
:1011F80007401EB10023D440C6E90043BDE8F0878C
:101208008B4208D9002E00F0EE800021C6E90005C7
:101218000846BDE8F087B3FA83F100294AD1AB420A
:1012280002D3824200F2FC80841A65EB030301209A
:101238009846002EE2D0C6E90048DFE702B9FFDE93
:10124800B2FA82F2002A40F09180A1EB0C00012151
:101258004FEA1C471FFA8CFEB0FBF7F307FB13009D
:10126800250C45EA00450EFB03F0A84208D91CEB03
:10127800050503F1FF3802D2A84200F2CE804346AA
:101288002D1AB5FBF7F007FB10550EFB00FEA4B2B4
:1012980044EA0544A64508D91CEB040400F1FF35CF
:1012A80002D2A64500F2B6802846A4EB0E0440EA16
:1012B80003409EE7C1F120078B4022FA07FC4CEA65
:1012C800030C25FA07FA4FEA1C49BAFBF9F820FA89
:1012D80007F309FB18AA8D401FFA8CFE1D4300FA7C
:1012E80001F308FB0EF02C0C44EA0A44A04202FA6F
:1012F80001F20BD91CEB040408F1FF3A80F0888056
:10130800A04240F28580A8F102086444241AB4FB84
:10131800F9F009FB104400FB0EFEADB245EA0444A7
:10132800A64508D91CEB040400F1FF356CD2A6458C
:101338006AD90238644440EA0840A0FB0295A4EB4D
:101348000E04AC42C846AE4656D353D0002E69D0E0
:10135800B3EB080264EB0E0422FA01F304FA07F770
:101368001F43CC40C6E90074002147E70CFA02FC91
:10137800C2F1200125FA01F34FEA1C4720FA01F1D6
:1013880095400D43B3FBF7F107FB11331FFA8CFEB1
:10139800280C40EA034001FB0EF3834204FA02F4EE
:1013A80008D91CEB000001F1FF382FD283422DD958
:1013B80002396044C01AB0FBF7F307FB1300ADB263
:1013C80045EA004503FB0EF0A84208D91CEB0505C9
:1013D80003F1FF3816D2A84214D9023B6544281AF3
:1013E80043EA014138E73146304607E72F46E4E64D
:1013F8001846F9E64B45A9D2B9EB020865EB0C0E85
:101408000138A3E74346EAE7284694E74146D1E78F
:10141800D0467BE76444023847E7023B65442FE740
:10142800084606E73146E9E6704700BF844641EAC8
:10143800000313F0030349D1403A23D30B68036038
:101448004B6843608B688360CB68C3600B6903613A
:101458004B6943618B698361CB69C3610B6A036222
:101468004B6A43628B6A8362CB6AC3620B6B03630A
:101478004B6B43638B6B8363CB6BC36340304031EF
:10148800403ADBD230320BD30B6803604B684360C1
:101498008B688360CB68C36010301031103AF3D288
:1014A8000C3205D351F8043B40F8043B043AF9D216
:1014B800043208D0D2071CBF11F8013B00F8013BE9
:1014C80001D30B8803806046704700BF082A13D3F6
:1014D8008B07B1D010F00303AED0C3F10403D21AC6
:1014E800DB071CBF11F8013B00F8013BA4D331F81E
:1014F800023B20F8023B9FE7043AD9D3013A11F89E
:10150800013B00F8013BF9D20B7803704B7843702C
:101518008B788370604670474FEA410C7FEA6C5CB9
:1015280002D150EA013C0AD14FEA430C7FEA6C5CD5
:1015380002D152EA033C02D14FF0000070474FF04D
:10154800010070474FEA410212F5001215D211D579
:101558006FF47873B3EB625212D94FEAC12343F0A8
:10156800004343EA505311F0004F23FA02F018BF2A
:10157800404270474FF00000704750EA013005D1F3
:1015880011F0004008BF6FF0004070474FF00000B6
:10159800704700BF53B94AB9002908BF00281CBFCB
:1015A8004FF0FF314FF0FF30FFF73EBFADF1080CB1
:1015B8006DE904CEFFF7CEFDDDF804E0DDE9022396
:1015C80004B0704700B585B00023019302930393DC
:1015D8001D481E4A02604FF4807282600122027325
:1015E80003754FF46022C26143600323036101F075
:1015F80025F8E8B90123019302930723039301A96E
:10160800114800F071FEB0B902230193029301A9B9
:101618000D4800F069FE88B906230193032302935D
:1016280001A9094800F060FE58B905B05DF804FB4F
:1016380000F04CF9DEE700F049F9E5E700F046F97B
:10164800EAE700F043F9F0E7E40B0020002401404A
:1016580010B586B0002302930393049305930268A0
:101668001E4B9A4201D006B010BD044603F56C43E8
:101678009A6942F400729A619A6902F400720092BF
:10168800009A9A6942F004029A619B6903F0040384
:101698000193019B462302930323039302A9104855
:1016A80001F068FC0F48104B03600023436083601F
:1016B8008022C2604FF4807202614FF480624261FE
:1016C80083614FF44053C36101F07EF918B9054BAB
:1016D80023625C62C7E700F0F9F8F8E700240140EC
:1016E80000080140140C00200800024000B583B037
:1016F8000A4B5A6942F001025A615B6903F001031F
:101708000193019B002211460B2001F0EDF80B20FC
:1017180001F022F903B05DF804FB00BF001002409D
:101728002DE9F0478AB00024069407940894099498
:101738005F4B9A6942F040029A619A6902F040024E
:101748000192019A9A6942F010029A619A6902F02C
:1017580010020292029A9A6942F004029A619A6906
:1017680002F004020392039A9A6942F008029A610D
:101778009A6902F008020492049A9A6942F02002D7
:101788009A619B6903F020030593059BDFF824A168
:1017980022464FF44041504601F013FDDFF81891FE
:1017A80022464FF47061484601F00BFD434E224635
:1017B8004FF40071304601F004FD43F6FF530693E1
:1017C8000325079506A9504601F0D4FB43F630538C
:1017D800069307953A4F06A9384601F0CBFB0F232D
:1017E8000693384B0793089406A9384601F0C2FBC4
:1017F80049F6B8130693079506A9334801F0BAFBD2
:1018080041F2FF130693079506A9304601F0B2FB93
:101818004FF4404306934FF00108CDF81C8008941C
:101828000227099706A9504601F0A4FB4FF47063FC
:101838000693CDF81C800894099706A9484601F03C
:1018480099FB4FF2FF030693079506A9484601F056
:1018580091FB4FF400730693CDF81C800894099708
:1018680006A9304601F086FB22462146062001F0F3
:101878003BF8062001F070F822462146072001F0C7
:1018880033F8072001F068F822462146082001F0C5
:101898002BF8082001F060F822462146092001F0C3
:1018A80023F8092001F058F80AB0BDE8F08700BF16
:1018B800001002400018014000140140000C0140D3
:1018C80000100140000021100008014072B6FEE738
:1018D80000B597B0282200210CA804F0F5F90023E0
:1018E8000793089309930A930B9301930293039325
:1018F80004930593069301220C924FF480330D93C1
:1019080010920222139214934FF4E01315930CA82B
:1019180001F08AFCC8B90F2307930221089100231C
:1019280009934FF480620A920B9307A801F0AEFE68
:1019380068B9022301934FF40043039301A801F00F
:1019480081FF30B917B05DF804FBFFF7BFFFFFF761
:10195800BDFFFFF7BBFF000008B50D480D4B036046
:101968004FF48273436000238360C3600361436163
:101978004FF400728261C3610362436283620A2387
:10198800C36202F065F800B908BDFFF79FFFFBE7E7
:10199800580C00200038004010B586B00023029390
:1019A8000393049305930268174B9A4201D006B03B
:1019B80010BD03F5EC33DA6942F48042DA61DA6982
:1019C80002F480420092009A9A6942F008029A61F1
:1019D8009B6903F008030193019B4FF42043029392
:1019E8000223039303230593084C02A9204601F020
:1019F800C1FA4FF48043029300230393049302A98E
:101A0800204601F0B7FAD2E700380040000C014048
:101A180082B00E4B9A6942F001029A619A6902F00B
:101A280001020092009ADA6942F08052DA61DB69B9
:101A380003F080530193019B054A536823F0E06348
:101A480043F00073536002B0704700BF00100240BB
:101A580000000140FEE7FEE7FEE7FEE7FEE770470D
:101A68007047704708B500F0DBFB08BD08B50120DA
:101A780001F0B6FB08BD08B5022001F0B1FB08BDB6
:101A880008B5042001F0ACFB08BD08B5082001F03A
:101A9800A7FB08BD08B5024801F0F6F808BD00BF6D
:101AA800140C002008B5024802F030F908BD00BF48
:101AB800440D002008B5024802F0B4FE08BD00BF7E
:101AC8001C0E002008B5024802F0ACFE08BD00BF9D
:101AD800640E002008B5024802F018F908BD00BFDE
:101AE8008C0D002008B5024802F010F908BD00BFAF
:101AF800D40D00200120704708B503F0FBFD162324
:101B080003604FF0FF3008BD08B54FF0FF31FFF715
:101B1800F3FFFEE770B50C461646002506E0AFF366
:101B28000080214601F8010B01350C46B542F6DB71
:101B3800304670BD70B50C461646002504E014F812
:101B4800010BAFF300800135B542F8DB304670BDBC
:101B58004FF0FF3070474FF400534B600020704740
:101B6800012070470020704710B503460C4A0D4904
:101B78000D48006840B10C4800680344521A93426B
:101B880006D8094A136010BD0748084C0460F2E7FC
:101B980003F0B0FD0C2303604FF0FF30F3E700BF04
:101BA80000C0002000040000B00C0020E860002005
:101BB8007047000000B587B0002302930393049395
:101BC8000593009301931648164A026041F61F4296
:101BD8004260836040F2E732C26003618023836120
:101BE80002F09EF990B94FF48053029302A90C4871
:101BF80002F0A0FA68B900230093019369460848E7
:101C080002F0A0FB40B907B05DF804FBFFF75EFEE9
:101C1800E9E7FFF75BFEEEE7FFF758FEF3E700BFE3
:101C2800440D00200008004000B583B00023009355
:101C380001931048104A026041F61F4242608360D7
:101C480040F2E733C3608023836102F069F950B939
:101C58000023009301936946064802F073FB28B9F4
:101C680003B05DF804FBFFF731FEF1E7FFF72EFE46
:101C7800F6E700BF8C0D00200010004000B583B0CF
:101C88000023009301931048104A026041F61F4256
:101C98004260836040F2E733C3608023836102F0CF
:101CA8003FF950B90023009301936946064802F0B2
:101CB80049FB28B903B05DF804FBFFF707FEF1E71D
:101CC800FFF704FEF6E700BFD40D00200014004023
:101CD80082B003680E4A934204D00E4A93420CD055
:101CE80002B070470C4B9A6942F400629A619B6992
:101CF80003F400630093009BF2E7074BDA6942F0B4
:101D08000202DA61DB6903F002030193019BE7E752
:101D1800002C0140000400400010024000B585B0CE
:101D28000368224A934208D0214A934218D0214A94
:101D3800934228D005B05DF804FB1F4BDA6942F0E6
:101D48000402DA61DB6903F004030193019B0022BA
:101D580011461E2000F0C8FD1E2000F0FDFDE9E739
:101D6800154BDA6942F01002DA61DB6903F01003FF
:101D78000293029B00221146362000F0B5FD362062
:101D880000F0EAFDD6E70C4BDA6942F02002DA618E
:101D9800DB6903F020030393039B002211463720DD
:101DA80000F0A2FD372000F0D7FDC3E7000800408F
:101DB80000100040001400400010024000B587B039
:101DC800002302930393049305930368204A9342E4
:101DD80005D0204A93421ED007B05DF804FB1E4B85
:101DE8009A6942F040029A619B6903F040030093AC
:101DF800009B4FF40073029302230393059302A9F7
:101E0800164801F0B7F8164A536843F0E06343F008
:101E1800C0035360E0E7104B9A6942F010029A61E0
:101E28009B6903F010030193019B4FF430730293F5
:101E380002230393059302A90A4801F09BF8084A74
:101E4800536843F0E06343F440635360C4E700BF62
:101E5800002C01400004004000100240001801401E
:101E6800000001400010014010B592B00024109409
:101E7800119409940A940B940C940D940E940F9455
:101E88002022214601A803F01FFF2248224B0360AD
:101E98004723436084606323C360046144618461B1
:101EA80002F06AF8002829D100231093119310A991
:101EB800184802F047FA20BB6023099300220A92CF
:101EC8000B920C920D920E920F9209A9114802F0F2
:101ED800B7F8C8B9002301930293039304930593B9
:101EE8004FF400520692089301A90A4802F068FAD2
:101EF80068B90848FFF762FF12B010BDFFF7E6FCAB
:101F0800D2E7FFF7E3FCD7E7FFF7E0FCE2E7FFF7EC
:101F1800DDFCEEE7B40C0020002C014000B58BB0CE
:101F28000023089309930193029303930493059361
:101F3800069307932048214A026047224260836043
:101F4800FF22C2600361836102F016F828BB0023F8
:101F58000893099308A9184802F0F4F900BB602314
:101F68000193002202920392059201A9124802F0FD
:101F780067F8C0B904220DEB02010F4802F060F8BF
:101F8800A0B90C2201A90C4802F05AF888B90A48ED
:101F9800FFF714FF0BB05DF804FBFFF797FCD6E7DB
:101FA800FFF794FCDBE7FFF791FCE3E7FFF78EFC14
:101FB800E7E7FFF78BFCEAE7FC0C00200004004091
:101FC80008B50A480A4B03604FF4E1334360002325
:101FD8008360C36003610C2242618361C36102F0C4
:101FE80007FB00B908BDFFF771FCFBE71C0E0020DA
:101FF8000038014008B50A480A4B03604FF4E13342
:10200800436000238360C36003610C2242618361E3
:10201800C36102F0EDFA00B908BDFFF757FCFBE712
:10202800640E00200048004030B589B000230493B6
:102038000593069307930368354A934204D0354ABB
:10204800934233D009B030BD334B9A6942F4804291
:102058009A619A6902F480420092009A9A6942F061
:1020680004029A619B6903F004030193019B4FF4F6
:10207800007304930223059303230793274D04A9B0
:10208800284600F077FF4FF48063049300240594FA
:10209800069404A9284600F06DFF22462146252013
:1020A80000F022FC252000F057FCCBE71A4BDA6938
:1020B80042F48022DA61DA6902F480220292029AFA
:1020C8009A6942F008029A619B6903F00803039336
:1020D800039B4FF480630493022305930323079320
:1020E8000F4D04A9284600F045FF4FF40063049300
:1020F80000240594069404A9284600F03BFF2246D4
:102108002146272000F0F0FB272000F025FC99E766
:10211800003801400048004000100240000801401B
:10212800000C0140FFF744FD0B480C490C4A002302
:1021380002E0D458C4500433C4188C42F9D3094A75
:10214800094C002301E013600432A242FBD303F0E0
:10215800EBFA03F099FA704700000020C80B002042
:10216800F0EC0008C80B0020E4600020FEE7F8B59A
:1021780004460F468669C1693046FEF7FDFC256AAC
:102188002946FEF7F9FC206006F100462946284654
:10219800FEF7F2FC01463046FEF7ECFC6060A560F5
:1021A80007B9F8BD0023E36023616361F9E7000024
:1021B80010B504460E4B18784FF47A73B3FBF0F35E
:1021C8000C4A1068B0FBF3F000F0D4FB68B90F2C90
:1021D80001D901200AE0002221464FF0FF3000F02B
:1021E80083FB054B1C60002000E0012010BD00BFF0
:1021F80004000020000000200800002008B5074A5D
:10220800136843F010031360032000F05BFB0F20FA
:10221800FFF7CEFFFFF7FCFB002008BD00200240BF
:10222800034A1168034B1B780B441360704700BFC7
:10223800AC0E002004000020014B1868704700BF56
:10224800AC0E002038B50446FFF7F6FF0546B4F19A
:10225800FF3F02D0044B1B781C44FFF7EDFF401BE7
:10226800A042FAD338BD00BF0400002008B5436A75
:102278009A6A12F0500F1ED19A6A42F400729A625A
:102288001A68926802F46022B2F5602F03D01846EB
:1022980002F03AFC08BD1A7B002AF8D19A6A22F4A7
:1022A80080729A629A6A12F4805FF0D19A6A42F058
:1022B80001029A62EBE71B6A1B6B9847EAE77047D3
:1022C80008B5406AFFF7FBFF08BD704708B5406ACC
:1022D800836A43F040038362C36A43F00403C36222
:1022E800FFF7F3FF08BD000030B482B0002201926E
:1022F80090F82420012A00F091800346012280F8FA
:1023080024204A68062A2DD80468606B02EB8202F2
:10231800053A4FF01F0C0CFA02FC20EA0C000D687D
:1023280005FA02F2024362630A68092A3AD91C686C
:10233800E06802EB42021E3A4FF0070C0CFA02FC6E
:1023480020EA0C008D6805FA02F20243E2600A688E
:10235800103A012A36D90020002283F8242002B03E
:1023680030BC70470C2A0ED80568286B02EB820235
:10237800233A1F24944020EA04000C6804FA02F26D
:1023880002432A63D0E70568E86A02EB8202413A11
:102398001F24944020EA04000C6804FA02F2024365
:1023A800EA62C1E71C68206902EB42024FF0070CA1
:1023B8000CFA02FC20EA0C008D6805FA02F20243CE
:1023C8002261C4E71A681648824205D09A6A42F028
:1023D80020029A620120BFE7906810F4000F1BD119
:1023E800906840F4000090600A68102A01D000202C
:1023F800B2E70C4A12680C49A1FB0212920C02EBDC
:1024080082025200019202E0019A013A0192019A75
:10241800002AF9D100209FE700209DE702209EE7CF
:10242800002401400000002083DE1B4330B583B048
:102438000023019303689A6812F0010F33D1044610
:102448009A6842F001029A60184B1B68184AA2FB6E
:1024580003239B0C019302E0019B013B0193019B29
:10246800002BF9D1FFF7E8FE054623689B6813F0B7
:10247800010F16D1FFF7E0FE431B022BF5D92368A5
:102488009B6813F0010FF0D1A36A43F01003A36215
:10249800E36A43F00103E362002384F82430012057
:1024A80002E0002000E0002003B030BD0000002062
:1024B80083DE1B43F8B504460D46164601684448BA
:1024C800814259D0434B994256D094F82430012B7D
:1024D8007CD0012384F824302046FFF7A7FF074665
:1024E80000286ED1A16A21F4706121F0010141F444
:1024F8008071A1622268374B9A4244D0A36A23F4C0
:102508008013A362536813F4806F05D0A36A23F481
:10251800405343F48053A362A36A13F4805F48D006
:10252800E36A23F00603E362002384F82430236A75
:10253800294A9A62236A294ADA62236A284A1A636C
:1025480023686FF002021A602268936843F480736C
:102558009360216833462A464C31206A00F080FA9D
:1025680023689A6802F46022B2F5602F24D09A6832
:1025780042F480129A6027E0154B5B6813F4702FC1
:10258800A3D0012720E0A3F580635B6813F4702FC4
:10259800B4D0A36A43F48013A3620D4B5B6813F4B1
:1025A800806FB9D0A36A23F4405343F48053A362E5
:1025B800B2E70023E362B7E79A6842F4A0029A60A0
:1025C80002E0002384F824303846F8BD0227FBE7F0
:1025D800002401400028014075220008C922000893
:1025E800D522000838B503689A6812F0010F01D1A6
:1025F800002038BD04469A6822F001029A60FFF76D
:102608001BFE054623689B6813F0010F13D0FFF7E4
:1026180013FE431B022BF5D923689B6813F0010FA7
:10262800F0D0A36A43F01003A362E36A43F0010306
:10263800E3620120DDE70020DBE70000002800F06E
:10264800888070B50446836A002B52D02046FFF775
:10265800C9FFA36A13F0100375D1002873D1A26AC9
:1026680022F4885222F0020242F00202A262626858
:10267800266839498E4242D0E1690A43217B42EA01
:102688004102A568B5F5807F02D0012D3ED01D46D8
:1026980094F814C0BCF1010F3BD0716821F4694172
:1026A800294371602568AE682C4931401143A960FF
:1026B800A168B1F5807F01D0012902D12369013BCE
:1026C8001B052568E96A21F470010B43EB62236856
:1026D8009968234B0B409A422CD0A36A23F012032B
:1026E80043F01003A362E36A43F00103E3620120AD
:1026F8002EE0C36280F82430FEF7AAFFA6E7E1695E
:10270800B1F5402FB9D14FF40021B6E74FF48075E9
:10271800BEE731B9A169013945EA413141F40065A3
:10272800BBE7A16A41F02001A162E16A41F0010121
:10273800E162B2E70023E362A36A23F0030343F0F4
:102748000103A36204E0A36A43F01003A36201201B
:1027580070BD0120704700BF003C0140FDF7E1FF5C
:10276800FE0E1FFF90F82430012B28D010B5044628
:10277800012380F82430FFF735FF50B922689368A9
:1027880023F480739360226A92F82130DBB2022B23
:1027980003D0002384F8243010BD104600F09BF9C4
:1027A80040B9A36A23F4885323F0010343F00103DB
:1027B800A362EEE7A36A43F04003A362E9E70220BD
:1027C8007047000070B582B00023019390F8243060
:1027D800012B72D00446012380F82430FFF702FF52
:1027E8002046FFF723FE054628B1002384F824304D
:1027F800284602B070BDA36A23F4885323F002036D
:1028080043F00203A3622E4B1E68022001F0A6F8D3
:10281800B6FBF0F67600019602E0019B013B0193BE
:10282800019B002BF9D12268936843F00803936059
:10283800FFF702FD064623689A6812F0080F14D0C5
:10284800FFF7FAFC801B0A28F5D923689B6813F068
:10285800080FF0D0A36A23F0120343F01003A36219
:10286800002384F824300125C2E79A6842F0040264
:102878009A60FFF7E1FC064623689B6813F0040F93
:1028880014D0FFF7D9FC801B0A28F5D923689B6868
:1028980013F0040FF0D0A36A23F0120343F01003DF
:1028A800A362002384F824300125A1E7A36A23F05A
:1028B800030343F00103A36297E7022598E700BFEB
:1028C80000000020074AD36823F4E0631B041B0CB4
:1028D800000200F4E060034343F0BF6343F40033B5
:1028E800D360704700ED00E000B5194BDB68C3F317
:1028F8000223C3F1070CBCF1040F28BF4FF0040CEE
:1029080003F1040EBEF1060F18D9033B4FF0FF3E4A
:102918000EFA0CFC21EA0C0199400EFA03F322EAA4
:102928000303194300280BDB0901C9B200F1604019
:1029380000F5614080F800135DF804FB0023E5E72B
:1029480000F00F000901C9B2024B1954F4E700BFA7
:1029580000ED00E014ED00E0002807DB00F01F02A6
:10296800400901239340024A42F82030704700BFD3
:1029780000E100E00138B0F1807F0BD24FF0E02396
:102988005861054AF02182F8231000209861072237
:102998001A6170470120704700ED00E030B401244F
:1029A800056CAC40C56B6C60046863604368102BB1
:1029B80005D0036899600368DA6030BC7047036823
:1029C8009A600368D960F8E700283AD010B4024644
:1029D80000681D4B984229D81C4B03441C49A1FB95
:1029E80003131B099B0013641A4BD363022382F859
:1029F8002130016821F47F5121F030015368946837
:102A08002343D468234314692343546923439469B3
:102A18002343D46923430B430360002090630123BD
:102A280082F8213082F8200010BC70470A4B03441A
:102A38000749A1FB03131B099B001364074BD363CE
:102A4800D4E70120704700BF07040240F8FFFDBF2C
:102A5800CDCCCCCC00000240F8FBFDBF0004024006
:102A680038B5044690F82000012832D0012084F8B7
:102A7800200094F82100C0B2012804D0002384F873
:102A88002030022038BD022084F821000020A063F5
:102A98002568286820F0010028602046FFF77EFF9F
:102AA800E36A5BB12268136843F00E03136022687F
:102AB800136843F0010313600020E3E722681368FA
:102AC80023F0040313602268136843F00A031360B9
:102AD800EDE70220D6E790F82130DBB2022B06D0D2
:102AE80004238363002380F82030012070470268A4
:102AF800136823F00E0313600268136823F00103C0
:102B08001360036CC16B012202FA03F34B6080F877
:102B18002120002380F820301846704708B590F827
:102B28002130DBB2022B03D004238363012008BDCC
:102B38000268136823F00E0313600268136823F019
:102B48000103136003684C4A93424ED9783A934282
:102B580024D01432934230D0143293422FD01432FE
:102B680093422FD0143293422FD0143293422FD055
:102B7800143293422FD002F5627293422ED014324F
:102B880093422DD0143293422CD01432934202D067
:102B98004FF4803203E04FF4805200E00122374BBB
:102BA8005A60012380F82130002380F82030436BDD
:102BB800002B5ED098470020B9E71022EFE74FF4CA
:102BC8008072ECE74FF48052E9E74FF48032E6E791
:102BD8004FF48012E3E74FF08072E0E70122DEE76E
:102BE8001022DCE74FF48072D9E7254A934224D0BB
:102BF8001432934225D01432934224D01432934293
:102C080024D01432934224D01432934224D0143264
:102C1800934224D002F56272934223D01432934235
:102C280022D01432934221D01432934202D04FF46E
:102C3800803203E04FF4805200E00122114B5A60C9
:102C4800AFE71022FAE74FF48072F7E74FF48052AB
:102C5800F4E74FF48032F1E74FF48012EEE74FF0DB
:102C68008072EBE70122E9E71022E7E74FF4807270
:102C7800E4E700205BE700BF800002400004024058
:102C8800080002400000024038B5C36B1A680468A7
:102C98002568016C04238B40134200F09B8015F0DB
:102CA800040F00F09780236813F0200F03D12368E6
:102CB80023F00403236003689A4A934246D9783A7A
:102CC800934224D01432934228D01432934227D00E
:102CD8001432934227D01432934227D014329342AD
:102CE80027D01432934227D002F56272934226D03D
:102CF8001432934225D01432934224D01432934292
:102D080002D04FF4802203E04FF4804200E0042216
:102D1800854B5A60C36A03B1984738BD4022F7E72C
:102D28004FF48062F4E74FF48042F1E74FF48022D9
:102D3800EEE74FF48002EBE74FF08062E8E7042209
:102D4800E6E74022E4E74FF48062E1E7774A9342FE
:102D580024D01432934225D01432934224D0143212
:102D6800934224D01432934224D01432934224D074
:102D78001432934224D002F56272934223D0143263
:102D8800934222D01432934221D01432934202D07B
:102D98004FF4802203E04FF4804200E00422644BA9
:102DA8005A60B7E74022FAE74FF48062F7E74FF43A
:102DB8008042F4E74FF48022F1E74FF48002EEE717
:102DC8004FF08062EBE70422E9E74022E7E74FF49F
:102DD8008062E4E702238B40134200F0AB8015F0D9
:102DE800020F00F0A780236813F0200F06D1236894
:102DF80023F00A032360012380F821300368494A3D
:102E080093424BD9783A934224D0143293422DD02E
:102E1800143293422CD0143293422CD01432934261
:102E28002CD0143293422CD0143293422CD002F579
:102E3800627293422BD0143293422AD014329342B6
:102E480029D01432934202D04FF4003203E04FF4F9
:102E5800005200E00222344B5A60002380F82030F0
:102E6800836A002B3FF459AF984756E72022F2E7D0
:102E78004FF40072EFE74FF40052ECE74FF40032E2
:102E8800E9E74FF40012E6E74FF00072E3E70222A9
:102E9800E1E72022DFE74FF40072DCE7234A9342A0
:102EA80024D01432934225D01432934224D01432C1
:102EB800934224D01432934224D01432934224D023
:102EC8001432934224D002F56272934223D0143212
:102ED800934222D01432934221D01432934202D02A
:102EE8004FF4003203E04FF4005200E00222104B8E
:102EF8005A60B2E72022FAE74FF40072F7E74FF47E
:102F08000052F4E74FF40032F1E74FF40012EEE715
:102F18004FF00072EBE70222E9E72022E7E74FF4DF
:102F28000072E4E78000024000040240080002400A
:102F380000000240082303FA01F111423FF4EDAE0C
:102F480015F0080F3FF4E9AE236823F00E03236061
:102F5800026CC16B012303FA02F24A60836380F8B2
:102F68002130002380F82030036B002B3FF4D5AECE
:102F78009847D2E670B582B00024A446B0E0874DE9
:102F8800AA4210D007D9864DAA420CD005F5803543
:102F9800AA4208D013E0A5F58015AA4203D005F58A
:102FA8007025AA4207D18A68002A62D0012A5BD01C
:102FB8004361082403E0A5F58015AA42F3D0BEF1C9
:102FC800FF0F58D80646BEF1FF0F56D84FEA8C02BD
:102FD80033680F25954023EA050304FA02F21343E8
:102FE80033604B6813F0805F78D06E4B9A6942F07B
:102FF80001029A619B6903F001030193019B4FEA67
:103008009C02951C684B53F825600CF003039D0047
:103018000F23AB4026EA0306644B984233D003F5EE
:103028008063984200F0988003F58063984200F02E
:10303800958003F58063984200F0928003F58063E1
:10304800984200F08F8003F58063984219D00623D8
:103058001AE0CC68B3E7CC680434B0E7CC6808342D
:10306800ADE7CC680C34AAE703610824A7E700247D
:10307800A5E70424A3E7061DA5E7ACF10802920022
:10308800A6E7052300E00023AB4033430232464D58
:1030980045F822304B6813F4801F65D0444A936882
:1030A80043EA0E0393604B6813F4001F62D0404A52
:1030B800D36843EA0E03D3604B6813F4003F5FD034
:1030C8003B4A536843EA0E0353604B6813F4803F4E
:1030D8005CD0374A136843EA0E0313600CF1010C05
:1030E8000A6832FA0CF357D0012303FA0CF302EA08
:1030F800030E33EA0202F1D14A68122A3FF63FAFC3
:10310800122A3FF65CAF01A555F822F0AF2F000850
:103118005B3000086530000877300008C72F0008CA
:10312800C72F0008C72F0008C72F0008C72F00089F
:10313800C72F0008C72F0008C72F0008C72F00088F
:10314800C72F0008C72F0008C72F0008C72F00087F
:103158005F3000086B300008012395E7022393E7EE
:10316800032391E704238FE7114A936823EA0E03A8
:10317800936098E70E4AD36823EA0E03D3609BE76F
:103188000B4A536823EA0E0353609EE7084A136804
:1031980023EA0E031360A1E702B070BD00002210FD
:1031A80000003110001002400000014000080140FA
:1031B800000401408368194201D0012070470020B3
:1031C80070470AB101617047090401617047C3681B
:1031D80001EA030221EA030141EA02410161704761
:1031E80008B5054B5B69034200D108BD024B586125
:1031F80001F028FEF9E700BF0004014082B0084B47
:103208001B68084AA2FB03235B0A00FB03F3019334
:1032180000BF019B5A1E0192002BF9D102B07047E2
:1032280000000020D34D6210002800F0F18170B535
:1032380082B00446036813F0010F2CD0994B5B68E9
:1032480003F00C03042B1DD0964B5B6803F00C03B2
:10325800082B12D06368B3F5803F41D0002B55D1BD
:1032680003F1804303F504331A6822F480321A60AC
:103278001A6822F480221A6037E08A4B5B6813F4DC
:10328800803FE7D0874B1B6813F4003F03D0636887
:10329800002B00F0BF81236813F0020F75D0814B1B
:1032A8005B6813F00C0F5FD07E4B5B6803F00C0378
:1032B800082B54D02369002B00F08A807A4B012216
:1032C8001A60FEF7B9FF0546764B1B6813F0020F2C
:1032D80075D1FEF7B1FF401B0228F5D903209EE106
:1032E800704A136843F480331360636843B3FEF78E
:1032F800A3FF05466B4B1B6813F4003FCBD1FEF7C9
:103308009BFF401B6428F5D9032088E1B3F5A02F63
:1033180009D0644B1A6822F480321A601A6822F4C1
:1033280080221A60E1E703F18043A3F53C331A6871
:1033380042F480221A601A6842F480321A60D4E794
:10334800FEF77AFF0546574B1B6813F4003FA2D0DF
:10335800FEF772FF401B6428F5D903205FE1514B4B
:103368005B6813F4803FA5D14E4B1B6813F0020F26
:1033780003D02369012B40F04F814A4A136823F098
:10338800F803616943EAC1031360236813F0080F67
:1033980033D0A369002B5CD0434B0122C3F88024AF
:1033A800FEF74AFF05463F4B5B6A13F0020F21D137
:1033B800FEF742FF401B0228F5D903202FE1394AC6
:1033C800136823F0F803616943EAC1031360DCE77B
:1033D800354B00221A60FEF72FFF0546314B1B685C
:1033E80013F0020FD1D0FEF727FF401B0228F5D9B2
:1033F800032014E10120FFF701FF236813F0040FF5
:1034080000F09680274BDB6913F0805F34D1254BA1
:10341800DA6942F08052DA61DB6903F08053019384
:10342800019B0125214B1B6813F4807F26D0E3689C
:10343800012B3DD0002B53D103F1804303F5043316
:103448001A6A22F001021A621A6A22F004021A6247
:1034580033E0154B0022C3F88024FEF7EDFE054645
:10346800104B5B6A13F0020FC7D0FEF7E5FE401B56
:103478000228F5D90320D2E00025D3E70B4A1368C8
:1034880043F480731360FEF7D7FE0646074B1B68AC
:1034980013F4807FCBD1FEF7CFFE801B6428F5D9CB
:1034A8000320BCE0001002400000424200700040CF
:1034B8005F4A136A43F001031362E36833B3FEF70C
:1034C800BBFE06465A4B1B6A13F0020F2FD1FEF7BC
:1034D800B3FE801B41F288339842F3D903209EE063
:1034E800052B09D0524B1A6A22F001021A621A6A95
:1034F80022F004021A62E0E74D4B1A6A42F0040215
:103508001A621A6A42F001021A62D6E7FEF794FEBE
:103518000646474B1B6A13F0020F08D0FEF78CFED5
:10352800801B41F288339842F3D9032077E0E5B94C
:10353800E369002B72D03E4A526802F00C02082A56
:1035480056D0022B17D03B4B00221A66FEF774FEAA
:103558000446374B1B6813F0007F47D0FEF76CFE1C
:10356800001B0228F5D9032059E0314AD36923F01A
:103578008053D361DCE72F4B00221A66FEF75CFE0E
:1035880005462B4B1B6813F0007F06D0FEF754FE50
:10359800401B0228F5D9032041E0236AB3F5803F98
:1035A8001AD023494B6823F47413226A606A0243D1
:1035B80013434B601F4B01221A66FEF73DFE04467B
:1035C8001B4B1B6813F0007F0ED1FEF735FE001B66
:1035D8000228F5D9032022E0154A536823F4003362
:1035E800A1680B435360DCE7002018E0002016E0D8
:1035F800012B16D00E4B5B6803F48031226A91428E
:1036080011D103F47013626A93420ED1002006E0D0
:1036180001207047012002E0012000E0002002B0F4
:1036280070BD0120FBE70120F9E70120F7E700BFA3
:1036380000100240000042420F4B5B6803F00C028E
:10364800082A01D00D487047C3F383420C49885CAF
:1036580013F4803F0BD0084B5B68C3F34043094A1F
:10366800D35C064A02FB00F0B0FBF3F07047064B50
:1036780003FB00F0704700BF0010024000127A0000
:1036880050B8000860B8000800093D00002800F0A4
:10369800A08070B50D460446524B1B6803F0070323
:1036A8008B420BD24F4A136823F007030B43136076
:1036B800136803F007038B4240F08D80236813F0F2
:1036C800020F17D013F0040F04D0474A536843F48D
:1036D800E0635360236813F0080F04D0424A53682C
:1036E80043F460535360404A536823F0F003A168E1
:1036F8000B435360236813F0010F31D06368012B2B
:1037080020D0022B25D0384A126812F0020F64D05C
:1037180035494A6822F0030213434B60FEF78CFDDB
:103728000646314B5B6803F00C036268B3EB820F0B
:1037380016D0FEF781FD801B41F288339842F0D9FC
:10374800032045E0284A126812F4003FE0D1012026
:103758003EE0254A126812F0007FD9D1012037E0F7
:10376800204B1B6803F00703AB420AD91D4A1368B4
:1037780023F007032B431360136803F00703AB42DE
:103788002DD1236813F0040F06D0174A536823F489
:10379800E063E1680B435360236813F0080F07D018
:1037A800114A536823F46053216943EAC103536003
:1037B800FFF742FF0C4B5B68C3F303130B4AD35C60
:1037C800D8400B4B18600B4B1868FEF7F1FC002033
:1037D80070BD012070470120FAE70120F8E70120B9
:1037E800F6E700BF002002400010024038B8000889
:1037F8000000002008000020014B1868704700BF37
:103808000000002008B5FFF7F7FF044B5B68C3F31F
:103818000223034AD35CD84008BD00BF0010024011
:1038280048B8000808B5FFF7E7FF044B5B68C3F327
:10383800C223034AD35CD84008BD00BF0010024031
:1038480048B8000870B582B00446036813F0010F49
:1038580036D03F4BDB6913F0805F49D13C4BDA69C6
:1038680042F08052DA61DB6903F080530193019BD7
:103878000125384B1B6813F4807F3BD0344B1B6AFF
:1038880013F4407313D0626802F440729A420ED067
:103898002F4A136A23F440702F490126C1F8406467
:1038A8000026C1F84064106213F0010F36D1284A8F
:1038B800136A23F4407361680B431362002D3ED1F1
:1038C800236813F0020F06D0214A536823F44043BB
:1038D800A1680B435360236813F0100F34D01C4ABF
:1038E800536823F4800361690B43536000202CE084
:1038F8000025BEE7174A136843F480731360FEF788
:103908009BFC0646134B1B6813F4807FB6D1FEF769
:1039180093FC801B6428F5D9032016E0FEF78CFC85
:1039280006460B4B1B6A13F0020FC0D1FEF784FC4E
:10393800801B41F288339842F3D9032005E0D3690C
:1039480023F08053D361BBE7002002B070BD00BFF5
:1039580000100240007000400000424208B50138E3
:103968000F2863D8DFE800F03557622F62626232B1
:1039780062626262626262082F4B5A68186810F0CD
:10398800807054D0C2F383432C49C85C12F4803F42
:1039980015D0294B5B68C3F34043294AD25C294BB5
:1039A800B3FBF2F303FB00F0234B5B6813F4800FC7
:1039B8003DD14000244BA3FB0030400837E0234BA7
:1039C80003FB00F0F0E7FFF737FE30E0FFF734FEC7
:1039D8002DE0194B1B6A40F202321A40B2F5817F82
:1039E80026D003F44073B3F5007F04D0B3F5407FCD
:1039F80009D000201BE0104A526A12F0020FF5D0DD
:103A080049F6404013E00C4B186810F400300ED013
:103A18004FF224400BE0FFF705FF074B5B68C3F349
:103A2800813301335B00B0FBF3F000E0002008BDF8
:103A38004FF40040FBE700BF0010024064B80008E4
:103A480074B8000800127A00ABAAAAAA00093D00BF
:103A5800002856D010B50446436A33B94368B3F515
:103A6800827F05D00023C36102E000230361436124
:103A78000023A36294F85130002B3CD0022384F831
:103A880051302268136823F040031360636803F41D
:103A98008273A26802F404421343E26802F40062EB
:103AA8001343226902F002021343626902F0010221
:103AB8001343A26902F400721343E26902F0380268
:103AC8001343226A02F080021343A26A02F40052EE
:103AD800216813430B60638B226803F0040353606F
:103AE8002268D36923F40063D36100206065012351
:103AF80084F8513010BD84F850302046FDF74CFF53
:103B0800BCE701207047000030B4036A026A22F063
:103B1800010202624268846924F073040D682C4330
:103B280023F0020C8B6843EA0C03104DA84203D023
:103B380005F50065A84205D123F00803CD682B439D
:103B480023F00403094DA84203D005F50065A842F7
:103B580005D122F440724D692A438D692A43426097
:103B680084614A684263036230BC7047002C01409C
:103B780030B4036A026A22F4807202624268C4693D
:103B880024F0730C0C6844EA0C0523F400738C6869
:103B980043EA0423114CA04203D004F50064A04278
:103BA80006D123F40063CC6843EA042323F480633A
:103BB8000A4CA04203D004F50064A04207D122F4C5
:103BC80040524C6942EA04128C6942EA041242608B
:103BD800C5614A68C263036230BC7047002C01406B
:103BE80030B4036A026A22F4805202624468C269ED
:103BF80022F4E6420D6842EA052223F400538D6858
:103C080043EA0533094DA84203D005F50065A842EB
:103C180004D124F480444D6944EA85144460C261A7
:103C28004A680264036230BC704700BF002C014040
:103C380010B4036A046A24F001040462846924F05D
:103C4800F00C4CEA021223F00A030B438261036270
:103C580010BC704710B4036A046A24F010040462AC
:103C6800846924F4704C4CEA023223F0A00343EA3E
:103C780001138261036210BC7047836823F07003EC
:103C88000B4343F0070383607047000090F83D3012
:103C9800DBB2012B2FD1022380F83D300268D368B4
:103CA80043F00103D3600368154A934218D002F524
:103CB8000062934214D0B3F1804F11D0A2F598322C
:103CC80093420DD002F58062934209D002F58062DA
:103CD800934205D01A6842F001021A60002070472A
:103CE8009A6802F00702062A07D01A6842F0010211
:103CF8001A6000207047012070470020704700BFFD
:103D0800002C0140704770477047704710B5044653
:103D180003681A6912F0020F11D0DA6812F0020F64
:103D28000DD06FF002021A610123037703689B69C3
:103D380013F0030F70D0FFF7E6FF00232377236803
:103D48001A6912F0040F12D0DA6812F0040F0ED0BC
:103D58006FF004021A610223237723689B6913F426
:103D6800407F5FD02046FFF7CEFF002323772368EC
:103D78001A6912F0080F12D0DA6812F0080F0ED084
:103D88006FF008021A61042323772368DB6913F0B4
:103D9800030F4ED02046FFF7B6FF00232377236892
:103DA8001A6912F0100F12D0DA6812F0100F0ED044
:103DB8006FF010021A61082323772368DB6913F474
:103DC800407F3DD02046FFF79EFF002323772368DE
:103DD8001A6912F0010F03D0DA6812F0010F36D118
:103DE80023681A6912F0800F03D0DA6812F0800F86
:103DF80034D123681A6912F0400F03D0DA6812F040
:103E0800400F32D123681A6912F0200F03D0DA6804
:103E180012F0200F30D110BDFFF774FF2046FFF7D6
:103E280073FF8AE72046FFF76DFF2046FFF76CFF18
:103E38009BE72046FFF766FF2046FFF765FFACE7E4
:103E48002046FFF75FFF2046FFF75EFFBDE76FF0F4
:103E580001021A61204600F01BFFC1E76FF08002E3
:103E68001A61204600F0D6FAC3E76FF040021A61E3
:103E78002046FFF74AFFC5E76FF020021A61204687
:103E880000F0C7FAC7E700000368244A904212D03E
:103E980002F5006290420ED0B0F1804F0BD0A2F52F
:103EA8009832904207D002F58062904203D002F522
:103EB8008062904203D123F070034A681343174A83
:103EC800904212D002F5006290420ED0B0F1804FBD
:103ED8000BD0A2F59832904207D002F5806290424A
:103EE80003D002F58062904203D123F44073CA687C
:103EF800134323F080034A69134303608B68C3624A
:103F08000B688362054B984203D003F5006398421F
:103F180001D10B690363012343617047002C014001
:103F280040B310B5044690F83D30F3B1022384F84D
:103F38003D30214651F8040BFFF7A6FF012384F812
:103F4800463084F83E3084F83F3084F8403084F8B6
:103F5800413084F8423084F8433084F8443084F89F
:103F6800453084F83D30002010BD80F83C30FDF726
:103F7800D5FEDBE70120704740B310B5044690F842
:103F88003D30F3B1022384F83D30214651F8040B4B
:103F9800FFF77AFF012384F8463084F83E3084F82E
:103FA8003F3084F8403084F8413084F8423084F857
:103FB800433084F8443084F8453084F83D3000209C
:103FC80010BD80F83C30FDF783FEDBE70120704729
:103FD80030B4036A026A22F01002026244688269FD
:103FE80022F4E6420D6842EA052223F020038D6898
:103FF80043EA0513114DA84203D005F50065A84210
:1040080006D123F08003CD6843EA051323F040036B
:104018000A4DA84203D005F50065A84207D124F44B
:1040280040644D6944EA85048D6944EA8504446026
:1040380082614A688263036230BC7047002C014089
:1040480038B590F83C30012B66D004460D46012364
:1040580080F83C300C2A5AD8DFE802F00759595941
:104068001B5959593059595944000068FFF74CFDFC
:104078002268936943F0080393612268936923F0E7
:10408800040393612268936929690B4393610020B3
:104098003EE00068FFF79CFF2268936943F40063E1
:1040A80093612268936923F480639361226893691A
:1040B800296943EA01239361002029E00068FFF79A
:1040C80057FD2268D36943F00803D3612268D36996
:1040D80023F00403D3612268D36929690B43D361B0
:1040E800002015E00068FFF77BFD2268D36943F4E0
:1040F8000063D3612268D36923F48063D3612268A3
:10410800D369296943EA0123D361002000E0012033
:10411800002384F83C3038BD0220FCE710B48468E2
:1041280024F47F4C42EA03220A4342EA0C028260EA
:1041380010BC704790F83C30012B78D010B504467D
:10414800012380F83C30022380F83D3002689368F0
:1041580023F47F4323F0770393600B68602B4CD0E4
:1041680029D8402B54D00CD9502B22D1CA68496881
:104178000068FFF75DFD50212068FFF77EFD0020F5
:1041880005E0202B0DD009D9302B0AD001200123BE
:1041980084F83D30002384F83C3010BD0BB1102B5F
:1041A80005D119462068FFF768FD0020EFE70120D8
:1041B800EDE70120EBE7B3F5805F34D0B3F5005F9E
:1041C8000CD1CB684A6889680068FFF7A7FF2268A6
:1041D800936843F4804393600020D8E7702B24D180
:1041E800CB684A6889680068FFF798FF2268936877
:1041F80043F0770393600020C9E7CA6849680068FC
:10420800FFF728FD60212068FFF737FD0020BEE793
:10421800CA6849680068FFF70BFD40212068FFF76E
:104228002CFD0020B3E70020B1E70120AFE7022012
:10423800704701F01F01012303FA01FC036A23EA16
:104248000C030362036A02FA01F10B43036270472D
:1042580010B50446084600293AD194F83E30DBB23E
:10426800013B18BF0123002B66D1002849D1022346
:1042780084F83E30012201462068FFF7DAFF236800
:104288002F4A934203D002F50062934203D15A6C3D
:1042980042F400425A642368294A934241D002F505
:1042A800006293423DD0B3F1804F3AD0A2F59832E4
:1042B800934236D002F58062934232D002F5806292
:1042C80093422ED01A6842F001021A60002032E0B0
:1042D800042908D008290DD094F84130DBB2013BFD
:1042E80018BF0123BFE794F83F30DBB2013B18BF8A
:1042F8000123B8E794F84030DBB2013B18BF012333
:10430800B1E7042805D0082807D0022384F84130F3
:10431800B0E7022384F83F30ACE7022384F840304A
:10432800A8E79A6802F00702062A07D01A6842F03E
:1043380001021A60002010BD0120FCE70020FAE706
:10434800002C014090F83C30012B34D010B40123EC
:1043580080F83C30022380F83D3003685A689C6836
:1043680022F0700C0A6842EA0C025A600368134A89
:10437800934212D002F5006293420ED0B3F1804FFF
:104388000BD0A2F59832934207D002F5806293428F
:1043980003D002F58062934204D124F080044A6875
:1043A80014439C60012380F83D30002380F83C30A2
:1043B800184610BC70470220704700BF002C01400F
:1043C80090F83C30012B22D0012380F83C30CB6898
:1043D80023F440738A68134323F480634A681343C1
:1043E80023F400630A68134323F480530A691343D0
:1043F80023F400534A69134323F48043CA691343DF
:1044080002685364002380F83C3018467047022045
:10441800704770477047026802F10C0353E8003F89
:1044280023F490730C3242E800310029F3D102687A
:1044380002F1140353E8003F23F00103143242E869
:1044480000310029F3D1036B012B05D0202380F81C
:104458004230002303637047026802F10C0353E8FB
:10446800003F23F010030C3242E800310029F3D159
:10447800ECE790F84130DBB2212B01D002207047E5
:104488008368B3F5805F17D0036A5A1C02621A78F2
:1044980003685A60C38C9BB2013B9BB2C3844BB97F
:1044A8000268D36823F08003D3600268D36843F0BE
:1044B8004003D360002070470369002BE4D1036AEE
:1044C8001B880268C3F308035360036A023303625C
:1044D800E0E7000010B504460268136923F440536E
:1044E800C1680B43136183680269134342691A4325
:1044F8000168CB6823F4B05323F00C031343CB605B
:104508000268536923F4407381690B43536102685D
:10451800134B9A4220D0FFF775F9024602EB82024C
:1045280002EB820263689B00B2FBF3F20D48A0FB2A
:1045380002314909642303FB11231B013233A0FB19
:1045480003235B0903F0F00202EB011203F00F03EF
:10455800216813448B6010BDFFF764F90246DDE75C
:10456800003801401F85EB512DE9F84305460F46F9
:1045780016469946DDF820802C68246837EA04033B
:104588000CBF4FF0010C4FF0000CB4452DD1B8F121
:10459800FF3FF1D0B8F1000F05D0FDF74DFEA0EBBD
:1045A80009004045E8D92A6802F10C0353E8003FA6
:1045B80023F4D0730C3242E800310029F3D12A6881
:1045C80002F1140353E8003F23F00103143242E8D8
:1045D80000310029F3D1202385F8413085F8423095
:1045E800002385F84030032000E00020BDE8F88370
:1045F80060B310B5044690F8413013B3242384F80F
:1046080041302268D36823F40053D3602046FFF773
:1046180061FF2268136923F4904313612268536988
:1046280023F02A0353612268D36843F40053D3600C
:1046380000206064202384F8413084F842306063AD
:1046480010BD80F84030FDF7EFFCD7E70120704738
:104658002DE9F04182B01E4690F84130DBB2202BA4
:104668004BD104460D46904600294AD00AB901208C
:1046780044E000234364212380F84130FDF7DCFD4A
:104688000746A4F82480A4F82680A368B3F5805FC1
:1046980002D04FF000080FE02369FBB14FF000088B
:1046A8000AE038F8023B2268C3F308035360E28C3F
:1046B80092B2013A92B2E284E38C9BB28BB100963B
:1046C8003B46002280212046FFF74EFFD8B9002D37
:1046D800E7D015F8012B23685A60E8E7A8460025BB
:1046E800EAE700963B46002240212046FFF73CFFC0
:1046F80058B9202384F8413000E0022002B0BDE818
:10470800F0810120FAE70320F8E70320F6E7704775
:1047180008B50168CA6822F04002CA60202280F801
:104728004120FFF7F4FF002008BD704708B5406A34
:104738000023C385C384FFF7F8FF08BD704790F8CE
:104748004230DBB2222B69D18368B3F5805F4FD04A
:10475800826AB3F5805F04D0002B56D10369002B21
:1047680053D103685B681370836A01338362C38D16
:104778009BB2013B9BB2C385002B51D100B583B0DE
:104788000268D36823F02003D3600268D36823F457
:104798008073D3600268536923F0010353612023B7
:1047A80080F8423000234363036B012B33D100238D
:1047B8000363026802F10C0353E8003F23F010037F
:1047C8000C3242E800310029F3D103681A6812F06C
:1047D800100F06D0002201921A6801925B680193BB
:1047E800019B818DFFF7AAFF002003B05DF804FB51
:1047F8000269002AACD1826A03685B68C3F30803C4
:104808001380836A02338362B1E703685B6803F04D
:104818007F031370A8E700F03BFBE5E70220704731
:104828000020704730B583B0044602681368D0682A
:10483800516913F00F0505D113F0200F02D010F0C5
:10484800200F19D12DB111F0010119D110F4907F69
:1048580016D1216B01297DD013F0800F03D010F001
:10486800800F40F0188113F0400F03D010F0400F74
:1048780040F0158103B030BD2046FFF760FFF9E72F
:1048880013F0010F06D010F4807F03D0626C42F061
:104898000102626413F0040F04D019B1626C42F093
:1048A8000202626413F0020F04D019B1626C42F084
:1048B8000402626413F0080F07D010F0200F00D133
:1048C80019B1626C42F008026264626C002AD1D0AD
:1048D80013F0200F02D010F0200F29D123685B6954
:1048E80003F04003626C12F0080F00D163B3204656
:1048F800FFF791FD23685B6913F0400F20D0226811
:1049080002F1140353E8003F23F04003143242E855
:1049180000310029F3D1E36B73B1634A5A63E06B4A
:10492800FEF7FCF80028A5D0E06B436B9847A1E799
:104938002046FFF704FFD1E72046FFF7F6FE99E788
:104948002046FFF7F2FE95E72046FFF7EEFE00232C
:1049580063648FE713F0100F3FF47EAF10F0100F71
:104968003FF47AAF002301931368019353680193CE
:10497800019B536913F0400F51D0E26B13685B68D9
:104988009BB2002B3FF476AFA18D99427FF672AFB0
:10499800E3859369202B37D0226802F10C0353E892
:1049A800003F23F480730C3242E800310029F3D130
:1049B800226802F1140353E8003F23F00103143284
:1049C80042E800310029F3D1226802F1140353E8C8
:1049D800003F23F04003143242E800310029F3D1AC
:1049E800202384F8423000232363226802F10C0359
:1049F80053E8003F23F010030C3242E8003100294D
:104A0800F3D1E06BFEF767F802236363A18DE38DB2
:104A18009BB2C91A89B22046FFF790FE2AE7A18DFA
:104A2800E38D9BB2C91A89B2E38D9BB2002B3FF488
:104A380021AF00293FF41EAF226802F10C0353E8AE
:104A4800003F23F490730C3242E800300028F3D181
:104A5800226802F1140353E8003F23F001031432E3
:104A680042E800300028F3D1202384F842300023A4
:104A78002363226802F10C0353E8003F23F010037C
:104A88000C3242E800300028F3D102236363204649
:104A9800FFF754FEEEE62046FFF7EBFCEAE6204679
:104AA800FFF736FEE6E600BF3547000881628285DB
:104AB800C28500234364222380F84230036923B16E
:104AC8000268D36843F48073D3600268536943F083
:104AD800010353610268D36843F02003D3600020C8
:104AE800704708B590F84230DBB2202B08D149B1A5
:104AF8000AB9012008BD00230363FFF7D7FFF9E7D0
:104B08000220F7E70120F5E708B50268034B9A424F
:104B180000D008BD0248FDF725FEFAE70024014051
:104B2800E40B002070B582B0474B1868013018605C
:104B3800FCF7D6F8FBF7D8FC0022444BFBF72CFD1A
:104B480004460D46424B1868FCF7CAF8FBF7CCFC44
:104B580002460B4620462946FBF748FE02460B460E
:104B68003C4C3D49204601F01FF945F25846019654
:104B78004FF6FF7500950C2322460621084600F0E3
:104B8800C7FC364B1868FBF7AFFC02460B463449A6
:104B9800204601F009F9019600950C2322461521BB
:104BA800062000F0B5FC2F4B1868FBF79DFC024669
:104BB8000B462D49204601F0F7F8019600950C2385
:104BC80022462421062000F0A3FC284B1868FCF795
:104BD800A1FA83B2264A12682649204601F0E4F871
:104BE800019600950C2322463321062000F090FC04
:104BF800214B1A682149204601F0D6F80196009504
:104C08000C2322464221062000F082FC1C4B1A6825
:104C18001C49204601F0C8F8019600950C2322464D
:104C28005121062000F074FC174A1849204601F06B
:104C3800BBF8019600950C2322466021062000F05F
:104C480067FC02B070BD00BFB40E00200000244015
:104C5800C80E0020580F002078B80008BC0E0020AD
:104C680084B80008C00E002098B8000884100020FE
:104C780010000020A8B800080C000020BCB80008EC
:104C8800300F0020CCB80008BC0F0020E0B80008A6
:104C98002DE9F04383B004460268594B9A4206D086
:104CA8002268584B9A4218D003B0BDE8F083564B9F
:104CB8001B68042B08DC544A136801331360534AF9
:104CC800136801331360EBE74FF400715048FEF7A7
:104CD8007EFA4D4B00221A60EDE700F02FF94D4B9C
:104CE8001C682046FBF7FCFF07464B4B1E68314605
:104CF800FBF740FF0546494B18603046FCF70AFAB7
:104D080080B2241A132C70DC454C21682846FCF725
:104D18003BF88046D4F80C9049466068FCF734F8B4
:104D280001464046FBF728FF80462169A068FCF74A
:104D38002BF801464046FBF71FFF6169FBF71CFF94
:104D4800C4F81090E5606061364A10603649FCF797
:104D5800B9F978B13046FBF7C7FB0022334BFBF7B4
:104D68001BFC25A3D3E90023FBF740FDFBF7AEFEB0
:104D78002C4B18602E492B4B1868FCF7C1F990B1E1
:104D880031462C48FBF7F6FEFBF7AEFB00222A4B18
:104D9800FBF702FC18A3D3E90023FBF727FDFBF779
:104DA80095FE204B18604FF07C511E4B1868FBF79E
:104DB800EBFF01463046FBF7DFFE174B1860164B3A
:104DC8001868FBF791FB04460D461C4E3846FBF766
:104DD8008BFBCDE9000122462B461949304600F0ED
:104DE800E3FF304600F0F8F85EE711493046FBF77C
:104DF800C3FE094B1860E2E70000000000C07240E3
:104E08000010004000140040B80E0020C80E00201A
:104E1800000C014010000020C00E0020BC0E002035
:104E2800340F0020B00E00200000A0C0000014C005
:104E3800000020410000FA43000024402010002018
:104E4800ECB8000810B50446022802D0012C13D093
:104E580010BD04210B48FEF7ADF940B90A4B1B6899
:104E6800B3F57A7F03DA013B074A1360EEE7064A97
:104E7800136801331360E9E7034B1A68034B1A60A0
:104E8800E6E700BF001001400C00002010000020E1
:104E980008B50268184B9A4200D008BD174B18682D
:104EA800A8B1174B1B780A2B13D0411C134A116069
:104EB800144A1354012212491348FFF712FEECE773
:104EC800104A0021D1540133632BF9DDE9E7034689
:104ED800FAE70A4B00221A600A4800F007FC80EA49
:104EE800E073A3EBE073002BE4DD064800F0FEFB63
:104EF800064B1860DEE700BF00480040C40E0020E3
:104F080088100020BC0F0020640E00201000002034
:104F180008B5B0F5807F02DC044B186408BD044B6B
:104F2800044A1421044800F0C1FB00BF00040040FB
:104F380040B9000850B9000804B9000830B585B078
:104F4800002501950295039517E01D4C84FB053457
:104F5800A4EBE57404EB44042C1B1A4B33F815003E
:104F6800FBF7BAFE014604AB03EB840454F80C0CBF
:104F7800FBF702FE44F80C0C01352F2DE5DD00246B
:104F88000BE004AB03EB84054FF0765155F80C0C9D
:104F9800FBF7FAFE45F80C0C0134022CF1DD039AFC
:104FA800094B1A60019A094B1A60029A084B1A6059
:104FB800302204490748FDF77DFA05B030BD00BF2F
:104FC80056555555D00E0020841000208C10002016
:104FD800CC0E0020E40B002010B5044600F006FFBC
:104FE800FF2382B221460248FFF732FB10BD00BF03
:104FF800640E0020074B9B6813F0020FFAD0054B94
:10500800D860044B9B6813F0010FFAD0014BD868A5
:10501800C0B270470038004010B5074C4FF08063AD
:1050280023614FF000732361C0B2FFF7E3FF4FF431
:105038008063236110BD00BF0014014010B5064C09
:105048004FF0806323614FF400732361FFF7D2FFB1
:105058004FF48063236110BD0014014038B5044645
:10506800084D4FF080632B614FF400732B61000AE9
:10507800FFF7C0FFE0B2FFF7BDFF4FF480632B617D
:1050880038BD00BF0014014020B9054B4FF0006245
:105098001A617047024B4FF400621A61704700BFF3
:1050A80000140140F8B507460D4616461C462A204E
:1050B800FFF7B2FF380AFFF7C1FFF8B2FFF7BEFFEC
:1050C800300AFFF7BBFFF0B2FFF7B8FF2B20FFF75E
:1050D800A3FF280AFFF7B2FFE8B2FFF7AFFF200AE5
:1050E800FFF7ACFFE0B2FFF7A9FF2C20FFF794FF12
:1050F800F8BD000038B515464FF0000C03E00CF180
:10510800010C5FFA8CFC124C94F800E0E64505D9D6
:10511800104C34F81C40AC42F1D101E04FF0000CC7
:1051280000EB80030C4A02EB43135B5C634500D140
:1051380038BD00EB8002084B03EB421303F801C0B3
:105148000B460246FFF7AEFF2846FFF787FFEFE75B
:1051580014000020180000209010002070B5BDF841
:105168001060151A5C1A013405FB0444FFF79AFF16
:1051780003E03046FFF772FF2C46651E002CF8D17D
:1051880070BD000070B582B0012301E00133DBB2CD
:10519800FF2B09D09A4A32F81320002AF6D09949F1
:1051A8000A7801320A70F1E7974D00242C70AC6040
:1051B80080236B80A023AB80FCF7B2FAFCF7CCFB12
:1051C800924B1A68136843F040031360904E4FF4F3
:1051D800006333614FF0807333611420FDF732F8B8
:1051E8004FF4807333611420FDF72CF81120FFF77A
:1051F80013FF7820FDF726F8B120FFF70DFF0520F3
:10520800FFF71CFF3C20FFF719FF3C20FFF716FFB4
:10521800B220FFF701FF0520FFF710FF3C20FFF742
:105228000DFF3C20FFF70AFFB320FFF7F5FE05202E
:10523800FFF704FF3C20FFF701FF3C20FFF7FEFECD
:105248000520FFF7FBFE3C20FFF7F8FE3C20FFF7A8
:10525800F5FEB420FFF7E0FE0320FFF7EFFEC020C5
:10526800FFF7DAFE2820FFF7E9FE0820FFF7E6FE41
:105278000420FFF7E3FEC120FFF7CEFEC020FFF7B2
:10528800DDFEC220FFF7C8FE0D20FFF7D7FE20463F
:10529800FFF7D4FEC320FFF7BFFE8D20FFF7CEFE39
:1052A8002A20FFF7CBFEC420FFF7B6FE8D20FFF7BC
:1052B800C5FEEE20FFF7C2FEC520FFF7ADFE1A209F
:1052C800FFF7BCFE3620FFF7A7FE6020FFF7B6FE0B
:1052D800E020FFF7A1FE0420FFF7B0FE2220FFF731
:1052E800ADFE0720FFF7AAFE0A20FFF7A7FE2E2033
:1052F800FFF7A4FE3020FFF7A1FE2520FFF79EFE52
:105308002A20FFF79BFE2820FFF798FE2620FFF7AC
:1053180095FE2E20FFF792FE3A20FFF78FFE2046DB
:10532800FFF78CFE0120FFF789FE0320FFF786FEBA
:105338001320FFF783FEE120FFF76EFE0420FFF73E
:105348007DFE1620FFF77AFE0620FFF777FE0D2078
:10535800FFF774FE2D20FFF771FE2620FFF76EFE83
:105368002320FFF76BFE2720FFF768FE2720FFF7B3
:1053780065FE2520FFF762FE2D20FFF75FFE3B202C
:10538800FFF75CFE2046FFF759FE0120FFF756FEA7
:105398000420FFF753FE1320FFF750FE2A20FFF7E3
:1053A8003BFE2046FFF74AFE2046FFF747FE204611
:1053B800FFF744FE7F20FFF741FE2B20FFF72CFE6E
:1053C8002046FFF73BFE2046FFF738FE2046FFF752
:1053D80035FE9F20FFF732FE3A20FFF71DFE05201D
:1053E800FFF72CFE2920FFF717FE0094AB886A8888
:1053F80001210846FFF7B2FE01232B7002B070BDF1
:10540800180000201400002090600020580C002094
:10541800001401402DE9F04F83B01F46374B1B782D
:10542800002B68D08046894617F0070318BF012370
:1054380003EBD703790801FB03F3DBB20193203AAE
:105448005FFA82FB4C464FF0000A43E00BEB4B033C
:105458002B4A02EB830313F80A50002621E0294B5C
:1054680003EB0B1313F80A50F7E70BEBCB03264AB1
:1054780002EB830313F80A50EFE70D9B9AB221461B
:105488004046FFF737FE6D00EDB20134A4B21B4B66
:105498009B88A3422FD9A4EB0903BB420DD0013648
:1054A800F6B2072E12D815F0800FE6D00C9B9AB2F0
:1054B80021464046FFF71EFEE5E708F101081FFAFE
:1054C80088F80E4B5B88434515D94C460AF1010A0A
:1054D8005FFA8AFA019B9A450DD20C2FB6D0102F8D
:1054E800BDD0182FC1D0202F05D1084B03EB8B134B
:1054F80013F80A50B1E703B0BDE8F08F90600020C0
:1055080064B90008D8BD0008C8C3000824D1000841
:105518002DE9F04782B01D46DDF82890DDF82CA073
:105528001B4B1B788BB380460E4617460C2D06D0B6
:10553800102D04D0182D02D0202D00D01825444657
:1055480009E0134B9B881B1A9E421EDC7E2A0ED94B
:1055580002372C44A4B23A78BAB10D4B5988284680
:10556800491B8C42EDDD2E44B6B24446E9E7CDF83E
:1055780004A0CDF800902B4631462046FFF74AFF9D
:10558800013704EB5504A4B2E5E702B0BDE8F087A3
:105598009060002010B582B02F48304B83614FF0E7
:1055A8007E53C36103620121FCF7E1FDFCF726FE8F
:1055B800FCF78EF9FCF7B4F801212948FDF7FAFD4C
:1055C8000128F9D0FCF7FCFCFCF714FD0122254961
:1055D8002548FFF786FAFCF7BFF9244C2046FCF76C
:1055E800DBF92268136843F040031360FFF7CAFD34
:1055F8000120FFF749FD45F2584300938023A0227C
:1056080000210846FFF7AAFDFCF770F8FBF7DAFF60
:10561800174C2046FCF71CF82046FDF7D3F8FCF79A
:1056280023FC00211348FEF713FEFCF777FC0C213E
:105638001148FEF70DFEFCF7BDFAFCF7F5FAFCF78A
:105648001DFB0E48FEF722FB0D48FEF71FFB0D4819
:10565800FEF71CFB02B010BD340F002000002041F3
:105668000010014088100020640E0020580C002013
:10567800E40B0020B40C0020FC0C0020440D00209A
:105688008C0D0020D40D002008B5FFF783FF64209F
:10569800FFF73EFC6420FCF7D5FD0020FFF738FC3F
:1056A800FFF740FAC820FCF7CDFDF9E7144600B52E
:1056B8001A460A4B0D461B6885B0DE6803464CB196
:1056C80007490191304607490294009500F018F8FF
:1056D80003F070F904490C46F3E700BF18020020F4
:1056E800E4E80008F4E80008F0E800080A220021CD
:1056F80000F03ABC014B1868704700BF1802002040
:105708000EB400B5074A82B003AB0146106853F8DF
:10571800042B019302F0CCF902B05DF804EB03B05E
:10572800704700BF1802002070B50D4E0D4D761B56
:10573800B61006D0002455F8043B01349847A64219
:10574800F9D1094E094D06F067F8761BB61006D058
:10575800002455F8043B01349847A642F9D170BD9E
:10576800E4EC0008E4EC0008ECEC0008E4EC0008C9
:105778002DE9F04F01F10B05162D064683B025D80B
:10578800102900F2B88000F0F1FA102518224FF025
:10579800020CB54F3A445368A2F108018B4200F05D
:1057A800B7805A68D96822F003021A449C683046C8
:1057B800E1608C60516803F1080441F00101516017
:1057C80000F0DAFA204603B0BDE8F08F35F007059F
:1057D80000F19180A94200F28E8000F0C7FAB5F579
:1057E800FC7FC0F094816B0A00F08C80042B00F2DF
:1057F8006A81AB0903F1390C03F138044FEACC0094
:10580800994F384443680838984206D10CE000297B
:1058180080F22681DB68984206D05A6822F003029B
:10582800511B0F29F3DDA4463C69DFF840E27445BB
:105838007AD0626822F00302531B0F2B00F37681A3
:10584800002BC7E904EE80F26781B2F5007F80F093
:1058580019810121D30852090B4491407A6857F8FD
:1058680033000A4307EBC3010839A060E1607A609E
:1058780047F83340C46001214FEAAC039940914294
:1058880059D8114206D12CF0030C490011420CF1F1
:10589800040CFAD007EBCC0948466446D0F80C80D3
:1058A800404508D11CE1002B80F22181D8F80C80FA
:1058B800404500F01581D8F8042022F00302531B5C
:1058C8000F2BF0DD08EB050145F00105C8F8045081
:1058D8003046D8E90264F460A66043F00104C7E9E1
:1058E80004114C60C1E902EE48F8023000F044FAB5
:1058F80008F1080402E00C2300243360204603B0BA
:10590800BDE8F08F4FF400704FF0400C3F2477E76C
:10591800D3689A4208BF0CF1020C7FF442AF3C698D
:10592800DFF848E1744584D101217A684FEAAC0375
:1059380099409142A5D9BC68636823F003094D4595
:1059480003D8A9EB05030F2B7ADCDFF824B1494B08
:10595800DBF800201B6801322B4404EB090A00F035
:105968002F8103F580530F3323F47F6828F00F0845
:105978004146304600F006FA411C024600F0EF802E
:10598800824500F2EA803C4B196841440846196098
:1059980000F04981DBF80010019301311BBFA2EB35
:1059A8000A0A5044CBF80020186012F0070B00F0E8
:1059B8001181CBF108010A44CBF58051904408319C
:1059C800A1EB0801C1F30B0A51463046009200F0E2
:1059D800D9F9421CDDE9002300F04B81801A00EB65
:1059E8000A08196848F001005144BC42BA601960BD
:1059F800506000F02481B9F10F0F40F222814FF07E
:105A0800050E6068A9F10C0C2CF0070C00F00100E1
:105A180040EA0C006060BCF10F0F04EB0C00C0E919
:105A280001EE00F22E8114465068144B1A688A421F
:105A380038BF1960124B1A688A4238BF196090E063
:105A4800621943F0010345F0010565603046BA600C
:105A58000834536000F090F9204603B0BDE8F08F99
:105A6800D9681A44A2E600BF480600205006002064
:105A7800500A0020CC6000209C600020C4600020F8
:105A8800C8600020B2F5206F4FEA52235FD3142B71
:105A980000F2B18003F15C01C9005B3378187958D2
:105AA8000838884200F08F804B6823F00303934244
:105AB80002D989688842F7D1C8687A68C4E90210AF
:105AC8008460CC60D7E6142B59D9542B00F29B8004
