:020000040800F2
:1000000000C000206D230008A51C0008A71C0008E4
:10001000A91C0008AB1C0008AD1C00080000000073
:10002000000000000000000000000000AF1C0008FD
:10003000B11C000800000000B31C0008B51C00083B
:10004000B5230008B5230008B5230008B523000830
:10005000B5230008B5230008BD1C0008B52300081F
:10006000C71C0008D11C0008B5230008B5230008F0
:10007000B5230008B5230008B5230008B523000800
:10008000B5230008B5230008B5230008B5230008F0
:10009000B5230008B5230008B5230008B5230008E0
:1000A000B5230008B5230008B5230008B5230008D0
:1000B000B5230008B5230008DD1C0008B52300089F
:1000C000B5230008B5230008B5230008B5230008B0
:1000D000B5230008ED1C0008B5230008FD1C00082E
:1000E000B5230008B5230008B5230008B523000890
:1000F000B5230008B5230008B5230008B523000880
:10010000B52300080D1D0008B5230008B52300081D
:10011000B5230008B52300081D1D00082D1D00088B
:10012000B5230008B5230008B52300083D1D0008CD
:1001300000000000000000000000000000000000BF
:1001400000000000000000000000000000000000AF
:10015000000000000000000000000000000000009F
:10016000000000000000000000000000000000008F
:10017000000000000000000000000000000000007F
:10018000000000000000000000000000000000006F
:10019000000000000000000000000000000000005F
:1001A000000000000000000000000000000000004F
:1001B000000000000000000000000000000000003F
:1001C000000000000000000000000000000000002F
:1001D000000000000000000000000000000000001F
:0401E0005FF8E0F1F3
:1001E80010B5054C237833B9044B13B10448AFF369
:1001F80000800123237010BD380C0020000000008F
:10020800486E020808B5034B1BB103490348AFF316
:10021800008008BD000000003C0C0020486E020869
:100228004FF0FF0C1CEAD0521EBF1CEAD15392EAD1
:100238000C0F93EA0C0F6FD01A4480EA010C4002AD
:1002480018BF5FEA41211ED04FF0006343EA501007
:1002580043EA5111A0FB01310CF00040B1F5000F49
:100268003EBF490041EAD3715B0040EA010062F1F8
:100278007F02FD2A1DD8B3F1004F40EBC25008BFE2
:1002880020F00100704790F0000F0CF0004C08BF00
:1002980049024CEA502040EA51207F3AC2BFD2F1CD
:1002A800FF0340EAC250704740F400004FF00003DB
:1002B800013A5DDC12F1190FDCBF00F00040704715
:1002C800C2F10002410021FA02F1C2F1200200FA53
:1002D80002FC5FEA310040F1000053EA4C0308BF1A
:1002E80020EADC70704792F0000F00F0004C02BF6B
:1002F800400010F4000F013AF9D040EA0C0093F0E6
:10030800000F01F0004C02BF490011F4000F013B3F
:10031800F9D041EA0C018FE70CEAD15392EA0C0FAD
:1003280018BF93EA0C0F0AD030F0004C18BF31F018
:10033800004CD8D180EA010000F00040704790F0EE
:10034800000F17BF90F0004F084691F0000F91F092
:10035800004F14D092EA0C0F01D142020FD193EA58
:100368000C0F03D14B0218BF084608D180EA0100E0
:1003780000F0004040F0FE4040F40000704740F0BC
:10038800FE4040F44000704781F0004102E000BFA9
:1003980083F0004330B54FEA41044FEA430594EA3D
:1003A800050F08BF90EA020F1FBF54EA000C55EA78
:1003B800020C7FEA645C7FEA655C00F0E2804FEA49
:1003C8005454D4EB5555B8BF6D420CDD2C4480EA2B
:1003D800020281EA030382EA000083EA010180EA5B
:1003E800020281EA0303362D88BF30BD11F0004FA9
:1003F8004FEA01314FF4801C4CEA113102D04042DF
:1004080061EB410113F0004F4FEA03334CEA133319
:1004180002D0524263EB430394EA050F00F0A78031
:10042800A4F10104D5F1200E0DDB02FA0EFC22FA2C
:1004380005F2801841F1000103FA0EF2801843FA20
:1004480005F359410EE0A5F120050EF1200E012A11
:1004580003FA0EFC28BF4CF0020C43FA05F3C0184F
:1004680051EBE37101F0004507D54FF0000EDCF1C8
:10047800000C7EEB00006EEB0101B1F5801F1BD371
:10048800B1F5001F0CD349085FEA30004FEA3C0C75
:1004980004F101044FEA445212F5800F80F09A806B
:1004A800BCF1004F08BF5FEA500C50F1000041EB6F
:1004B800045141EA050130BD5FEA4C0C404141EB73
:1004C8000101013C28BFB1F5801FE9D291F0000F6E
:1004D80004BF01460020B1FA81F308BF2033A3F11D
:1004E8000B03B3F120020CDA0C3208DD02F1140C14
:1004F800C2F10C0201FA0CF021FA02F10CE002F14F
:100508001402D8BFC2F1200C01FA02F120FA0CFC47
:10051800DCBF41EA0C019040E41AA2BF01EB045190
:10052800294330BD6FEA04041F3C1CDA0C340EDC8E
:1005380004F11404C4F1200220FA04F001FA02F3D1
:1005480040EA030021FA04F345EA030130BDC4F18F
:100558000C04C4F1200220FA02F001FA04F340EA84
:100568000300294630BD21FA04F0294630BD94F035
:10057800000F83F4801306BF81F480110134013D1C
:100588004EE77FEA645C18BF7FEA655C29D094EA8D
:10059800050F08BF90EA020F05D054EA000C04BF0B
:1005A8001946104630BD91EA030F1EBF00210020F6
:1005B80030BD5FEA545C05D14000494128BF41F095
:1005C800004130BD14F580043CBF01F5801130BDF9
:1005D80001F0004545F0FE4141F470014FF0000084
:1005E80030BD7FEA645C1ABF194610467FEA655C35
:1005F8001CBF0B46024650EA013406BF52EA0335D7
:1006080091EA030F41F4002130BD00BF90F0000FC4
:1006180004BF0021704730B54FF4806404F1320400
:100628004FF000054FF0000150E700BF90F0000FB9
:1006380004BF0021704730B54FF4806404F13204E0
:1006480010F0004548BF40424FF000013EE700BFB0
:1006580042004FEAE2014FEA31014FEA02701FBF40
:1006680012F07F4393F07F4F81F06051704732F072
:100678007F4208BF704793F07F4F04BF41F40021C9
:10068800704730B54FF4607401F0004521F0004127
:100698001CE700BF50EA010208BF704730B54FF0B1
:1006A80000050AE050EA010208BF704730B511F0B2
:1006B800004502D5404261EB41014FF4806404F1EA
:1006C80032045FEA915C3FF4D8AE4FF003025FEA70
:1006D800DC0C18BF03325FEADC0C18BF033202EBF4
:1006E800DC02C2F1200300FA03FC20FA02F001FA4E
:1006F80003FE40EA0E0021FA02F11444BDE600BFF1
:1007080070B54FF0FF0C4CF4E06C1CEA11541DBF9F
:100718001CEA135594EA0C0F95EA0C0F00F0DEF86A
:100728002C4481EA030621EA4C5123EA4C5350EA4F
:10073800013518BF52EA033541F4801143F48013A0
:1007480038D0A0FB02CE4FF00005E1FB02E506F031
:100758000042E0FB03E54FF00006E1FB03569CF086
:10076800000F18BF4EF0010EA4F1FF04B6F5007F8C
:1007780064F5407404D25FEA4E0E6D4146EB0606FE
:1007880042EAC62141EA55514FEAC52040EA5E5087
:100798004FEACE2EB4F1FD0C88BFBCF5E06F1ED831
:1007A800BEF1004F08BF5FEA500E50F1000041EB68
:1007B800045170BD06F0004646EA010140EA020015
:1007C80081EA0301B4EB5C04C2BFD4EB0C0541EA37
:1007D800045170BD41F480114FF0000E013C00F34C
:1007E800AB8014F1360FDEBF002001F0004170BD70
:1007F800C4F10004203C35DA0C341BDC04F1140489
:10080800C4F1200500FA05F320FA04F001FA05F214
:1008180040EA020001F0004221F0004110EBD370E1
:1008280021FA04F642EB06015EEA430E08BF20EA0D
:10083800D37070BDC4F10C04C4F1200500FA04F3B0
:1008480020FA05F001FA04F240EA020001F0004142
:1008580010EBD37041F100015EEA430E08BF20EAB5
:10086800D37070BDC4F1200500FA05F24EEA020EFD
:1008780020FA04F301FA05F243EA020321FA04F02C
:1008880001F0004121FA04F220EA020000EBD370E3
:100898005EEA430E08BF20EAD37070BD94F0000FE3
:1008A8000FD101F00046400041EB010111F4801F17
:1008B80008BF013CF7D041EA060195F0000F18BFC8
:1008C800704703F00046520043EB030313F4801F04
:1008D80008BF013DF7D043EA0603704794EA0C0FBE
:1008E8000CEA135518BF95EA0C0F0CD050EA4106D4
:1008F80018BF52EA4306D1D181EA030101F0004151
:100908004FF0000070BD50EA410606BF1046194678
:1009180052EA430619D094EA0C0F02D150EA013684
:1009280013D195EA0C0F05D152EA03361CBF1046C5
:1009380019460AD181EA030101F0004141F0FE4164
:1009480041F470014FF0000070BD41F0FE4141F4E8
:10095800780170BD70B54FF0FF0C4CF4E06C1CEAE8
:1009680011541DBF1CEA135594EA0C0F95EA0C0F9D
:1009780000F0A7F8A4EB050481EA030E52EA033558
:100988004FEA013100F088804FEA03334FF0805579
:1009980045EA131343EA12634FEA022245EA1115A6
:1009A80045EA10654FEA00260EF000419D4208BF57
:1009B800964244F1FD0404F5407402D25B084FEA04
:1009C8003202B61A65EB03055B084FEA32024FF4B0
:1009D80080104FF4002CB6EB020E75EB030E22BF0D
:1009E800B61A754640EA0C005B084FEA3202B6EBCD
:1009F800020E75EB030E22BFB61A754640EA5C007C
:100A08005B084FEA3202B6EB020E75EB030E22BF0B
:100A1800B61A754640EA9C005B084FEA3202B6EB0C
:100A2800020E75EB030E22BFB61A754640EADC00CB
:100A380055EA060E18D04FEA051545EA16754FEA2D
:100A480006164FEAC30343EA52734FEAC2025FEA4B
:100A58001C1CC0D111F4801F0BD141EA00014FF0DA
:100A680000004FF0004CB6E711F4801F04BF0143AB
:100A78000020B4F1FD0C88BFBCF5E06F3FF6AFAEC7
:100A8800B5EB030C04BFB6EB020C5FEA500C50F157
:100A9800000041EB045170BD0EF0004E4EEA1131DA
:100AA80014EB5C04C2BFD4EB0C0541EA045170BDE1
:100AB80041F480114FF0000E013C90E645EA060E25
:100AC8008DE60CEA135594EA0C0F08BF95EA0C0F53
:100AD8003FF43BAF94EA0C0F0AD150EA01347FF49B
:100AE80034AF95EA0C0F7FF425AF104619462CE772
:100AF80095EA0C0F06D152EA03353FF4FDAE1046D5
:100B0800194622E750EA410618BF52EA43067FF425
:100B1800C5AE50EA41047FF40DAF52EA43057FF4B5
:100B2800EBAE12E74FEA4102B2F1E04324BFB3F55E
:100B3800001CDCF1FE5C0DD901F0004C4FEAC0024C
:100B48004CEA5070B2F1004F40EB830008BF20F030
:100B58000100704711F0804F21D113F13872BCBFEA
:100B680001F00040704741F480114FEA5252C2F13F
:100B78001802C2F1200C10FA0CF320FA02F018BF88
:100B880040F001004FEAC1234FEAD32303FA0CFCDB
:100B980040EA0C0023FA02F34FEA4303CCE77FEA6A
:100BA800625307D150EA01331EBF4FF0FE4040F4B4
:100BB8004000704701F0004040F0FE4040F4000063
:100BC800704700BF80F0004002E000BF81F00041A4
:100BD80042001FBF5FEA410392EA030F7FEA226CDB
:100BE8007FEA236C6AD04FEA1262D2EB1363C1BF6B
:100BF800D218414048404140B8BF5B42192B88BFDA
:100C0800704710F0004F40F4000020F07F4018BFFC
:100C1800404211F0004F41F4000121F07F4118BF1C
:100C2800494292EA030F3FD0A2F1010241FA03FCC4
:100C380010EB0C00C3F1200301FA03F100F00043AC
:100C480002D5494260EB4000B0F5000F13D3B0F174
:100C5800807F06D340084FEA310102F10102FE2AE3
:100C680051D2B1F1004F40EBC25008BF20F0010053
:100C780040EA03007047490040EB0000013A28BFF2
:100C8800B0F5000FEDD2B0FA80FCACF1080CB2EB75
:100C98000C0200FA0CF0AABF00EBC25052421843F3
:100CA800BCBFD0401843704792F0000F81F4000198
:100CB80006BF80F400000132013BB5E74FEA41036B
:100CC8007FEA226C18BF7FEA236C21D092EA030FD7
:100CD80004D092F0000F08BF0846704790EA010F51
:100CE8001CBF0020704712F07F4F04D1400028BF7E
:100CF80040F00040704712F100723CBF00F5000060
:100D0800704700F0004343F0FE4040F40000704795
:100D18007FEA226216BF08467FEA23630146420241
:100D280006BF5FEA412390EA010F40F48000704754
:100D38004FF0000304E000BF10F0004348BF4042FA
:100D48005FEA000C08BF704743F0964301464FF036
:100D580000001CE050EA010208BF70474FF0000392
:100D68000AE000BF50EA010208BF704711F00043D3
:100D780002D5404261EB41015FEA010C02BF8446A3
:100D88000146002043F0B64308BFA3F18053A3F502
:100D98000003BCFA8CF2083AA3EBC25310DB01FA49
:100DA80002FC634400FA02FCC2F12002BCF1004FCD
:100DB80020FA02F243EB020008BF20F0010070475E
:100DC80002F1200201FA02FCC2F1200250EA4C00B2
:100DD80021FA02F243EB020008BF20EADC707047F8
:100DE8004FF0FF3C06E000BF4FF0010C02E000BFEF
:100DF8004FF0010C4DF804CD4FEA40024FEA410391
:100E08007FEA226C18BF7FEA236C11D001B052EA46
:100E1800530C18BF90EA010F58BFB2EB030088BF0C
:100E2800C81738BF6FEAE17018BF40F0010070477B
:100E38007FEA226C02D15FEA402C05D17FEA236C5D
:100E4800E4D15FEA412CE1D05DF8040B704700BFA4
:100E5800844608466146FFE70FB5FFF7C9FF00283B
:100E680048BF10F1000F0FBD4DF808EDFFF7F4FF74
:100E78000CBF012000205DF808FB00BF4DF808ED0D
:100E8800FFF7EAFF34BF012000205DF808FB00BF30
:100E98004DF808EDFFF7E0FF94BF012000205DF852
:100EA80008FB00BF4DF808EDFFF7D2FF94BF012003
:100EB80000205DF808FB00BF4DF808EDFFF7C8FFFC
:100EC80034BF012000205DF808FB00BF42000ED2AD
:100ED800B2F1FE4F0BD34FF09E03B3EB126209D46D
:100EE8004FEA002343F0004323FA02F070474FF023
:100EF8000000704712F1610F01D1420202D14FF098
:100F0800FF3070474FF00000704700BF53B94AB92F
:100F1800002908BF00281CBF4FF0FF314FF0FF30F9
:100F280000F076B9ADF1080C6DE904CE00F006F8D2
:100F3800DDF804E0DDE9022304B070472DE9F0474D
:100F4800089E0D4604468846002B4DD18A42944699
:100F580068D9B2FA82F252B101FA02F3C2F1200161
:100F680020FA01F10CFA02FC41EA030894404FEA26
:100F78001C41B8FBF1F71FFA8CFE01FB178807FB31
:100F88000EF0230C43EA084398420AD91CEB0303EA
:100F980007F1FF3580F01E81984240F21B81023F25
:100FA80063441B1AB3FBF1F001FB103300FB0EFE88
:100FB800A4B244EA0344A6450AD91CEB040400F190
:100FC800FF3380F00981A64540F206816444023867
:100FD8000021A4EB0E0440EA07401EB10023D440D0
:100FE800C6E90043BDE8F0878B4208D9002E00F01F
:100FF800EE800021C6E900050846BDE8F087B3FA8F
:1010080083F100294AD1AB4202D3824200F2FC802C
:10101800841A65EB030301209846002EE2D0C6E946
:101028000048DFE702B9FFDEB2FA82F2002A40F098
:101038009180A1EB0C0001214FEA1C471FFA8CFE9E
:10104800B0FBF7F307FB1300250C45EA00450EFB40
:1010580003F0A84208D91CEB050503F1FF3802D2BA
:10106800A84200F2CE8043462D1AB5FBF7F007FBE5
:1010780010550EFB00FEA4B244EA0544A64508D963
:101088001CEB040400F1FF3502D2A64500F2B6803D
:101098002846A4EB0E0440EA03409EE7C1F120076E
:1010A8008B4022FA07FC4CEA030C25FA07FA4FEAB0
:1010B8001C49BAFBF9F820FA07F309FB18AA8D4076
:1010C8001FFA8CFE1D4300FA01F308FB0EF02C0CEE
:1010D80044EA0A44A04202FA01F20BD91CEB0404C8
:1010E80008F1FF3A80F08880A04240F28580A8F19C
:1010F80002086444241AB4FBF9F009FB104400FB0D
:101108000EFEADB245EA0444A64508D91CEB04041A
:1011180000F1FF356CD2A6456AD90238644440EA2A
:101128000840A0FB0295A4EB0E04AC42C846AE46AC
:1011380056D353D0002E69D0B3EB080264EB0E04EB
:1011480022FA01F304FA07F71F43CC40C6E90074FA
:10115800002147E70CFA02FCC2F1200125FA01F34D
:101168004FEA1C4720FA01F195400D43B3FBF7F114
:1011780007FB11331FFA8CFE280C40EA034001FBE1
:101188000EF3834204FA02F408D91CEB000001F1C3
:10119800FF382FD283422DD902396044C01AB0FBE0
:1011A800F7F307FB1300ADB245EA004503FB0EF069
:1011B800A84208D91CEB050503F1FF3816D2A8424E
:1011C80014D9023B6544281A43EA014138E73146FD
:1011D800304607E72F46E4E61846F9E64B45A9D21C
:1011E800B9EB020865EB0C0E0138A3E74346EAE7C2
:1011F800284694E74146D1E7D0467BE76444023865
:1012080047E7023B65442FE7084606E73146E9E62B
:10121800704700BF844641EA000313F0030349D135
:10122800403A23D30B6803604B6843608B68836044
:10123800CB68C3600B6903614B6943618B69836148
:10124800CB69C3610B6A03624B6A43628B6A836230
:10125800CB6AC3620B6B03634B6B43638B6B836318
:10126800CB6BC36340304031403ADBD230320BD3D2
:101278000B6803604B6843608B688360CB68C3600E
:1012880010301031103AF3D20C3205D351F8043B28
:1012980040F8043B043AF9D2043208D0D2071CBF04
:1012A80011F8013B00F8013B01D30B88038060462D
:1012B800704700BF082A13D38B07B1D010F003037F
:1012C800AED0C3F10403D21ADB071CBF11F8013BEF
:1012D80000F8013BA4D331F8023B20F8023B9FE71A
:1012E800043AD9D3013A11F8013B00F8013BF9D28D
:1012F8000B7803704B7843708B7883706046704727
:1013080080EA010C1CF0030F37D110F0030C20F019
:10131800030021F0030150F8042B08BF51F8043BE7
:101328000ED08CF0030C6FF07F434FEACC0C23FAFD
:101338000CFC51F8043B42EA0C0243EA0C0300BFE0
:10134800A2F1013C9A4201BF2CEA020C1CF0803F3A
:1013580050F8042B51F8043BF2D04FEA02604FEAF0
:101368001222012828BFB0EB036F08BF1B0AF4D074
:1013780003F0FF03000EC01A704710F0030F0AD0E5
:1013880010F8012B11F8013B012A28BF9A42F4D02A
:10139800A2EB030070474DF8045D50F8042B01F0F0
:1013A800030521F0030151F8043B022D26D04DD846
:1013B80022F07F45B5EB132FA2F1013C2CEA020C79
:1013C8000DD11CF0803C08BF51F8043B0AD185EAD6
:1013D8000205B5EB036F0CD150F8042BE8E74FEA90
:1013E80013235BE03CF07F4C54D10B784FEA126535
:1013F80054E04FEA126503F0FF034FE04FEA02455D
:10140800A2F1013C4FEA15452CEA020CB5EB134F4B
:1014180018D11CF0803C08BF51F8043B07D185EA7D
:101428000205B5EB034F09D150F8042BE6E75FEA54
:101438000C4C2FD10B884FEA12452FE04FEA03439B
:101448004FEA12454FEA134328E000BF02F0FF05B8
:10145800B5EB136FA2F1013C2CEA020C0DD11CF084
:10146800803C08BF51F8043B0AD185EA0205B5EB78
:10147800032F0AD150F8042BE8E74FEA13630DE075
:1014880012F0FF0F06D051F8043B4FEA122523F063
:101498007F4303E04FF0000020BC704705F0FF02D7
:1014A80003F0FF00012828BF904204BF2D0A1B0A41
:1014B800F4D0A2EB000020BC704700BF4FF0FF3C07
:1014C80006E000BF4FF0010C02E000BF4FF0010C36
:1014D8004DF804CD4FEA410C7FEA6C5C4FEA430CAF
:1014E80018BF7FEA6C5C1BD001B050EA410C0CBFFE
:1014F80052EA430C91EA030F02BF90EA020F002060
:10150800704710F1000F91EA030F58BF994208BFC6
:1015180090422CBFD8176FEAE37040F00100704783
:101528004FEA410C7FEA6C5C02D150EA013C07D1DA
:101538004FEA430C7FEA6C5CD6D152EA033CD3D025
:101548005DF8040B704700BF8446104662468C461F
:101558001946634600E000BF01B5FFF7B7FF002852
:1015680048BF10F1000F01BD4DF808EDFFF7F4FF7B
:101578000CBF012000205DF808FB00BF4DF808ED06
:10158800FFF7EAFF34BF012000205DF808FB00BF29
:101598004DF808EDFFF7E0FF94BF012000205DF84B
:1015A80008FB00BF4DF808EDFFF7CEFF94BF012000
:1015B80000205DF808FB00BF4DF808EDFFF7C4FFF9
:1015C80034BF012000205DF808FB00BF4FEA410C42
:1015D8007FEA6C5C02D150EA013C0AD14FEA430C25
:1015E8007FEA6C5C02D152EA033C02D14FF0000062
:1015F80070474FF0010070474FEA410212F50012A0
:1016080015D211D56FF47873B3EB625212D94FEA41
:10161800C12343F0004343EA505311F0004F23FA2B
:1016280002F018BF404270474FF00000704750EA80
:10163800013005D111F0004008BF6FF0004070473D
:101648004FF00000704700BF00B585B0002301933C
:10165800029303931E481F4A02604FF4807282600F
:1016680003730122027582614FF46022C2614360F4
:101678000323036101F0AEF9E8B901230193029352
:101688000723039301A9124800F0E0FFB0B9022331
:101698000193029301A90E4800F0D8FF88B90623E8
:1016A80001930323029301A9094800F0CFFF58B919
:1016B80005B05DF804FB00F037F9DEE700F034F917
:1016C800E5E700F031F9EAE700F02EF9F0E700BFAE
:1016D800540C00200024014000B587B00023029379
:1016E8000393049305930268114B9A4202D007B002
:1016F8005DF804FB03F56C439A6942F400729A6141
:101708009A6902F400720092009A9A6942F00402FF
:101718009A619B6903F004030193019B462302939A
:101728000323039302A9034801F07CFFDFE700BF0E
:10173800002401400008014000B583B00A4B5A69F3
:1017480042F002025A615B6903F002030193019BB4
:10175800002206213B2001F0FBFA3B2001F03EFB72
:1017680003B05DF804FB00BF001002402DE9F04F04
:101778008BB000240694079408940994624B9A69E4
:1017880042F040029A619A6902F040020192019A7D
:101798009A6942F010029A619A6902F01002029264
:1017A800029A9A6942F004029A619A6902F0040264
:1017B8000392039A9A6942F008029A619A6902F0C0
:1017C80008020492049A9A6942F020029A619B697D
:1017D80003F020030593059BDFF830B122464FF450
:1017E8004041584602F00AF9DFF824A122464FF496
:1017F8007061504602F002F9DFF8189122464FF462
:101808000071484602F0FAF843F6FF5306930325A1
:10181800079506A9584601F005FF4EF230030693D6
:1018280007953D4F06A9384601F0FCFE4FF0090820
:10183800CDF81880394B0793089406A9384601F06B
:10184800F1FE022606960794089406A9384601F088
:10185800E9FE04230693324B0793089406A93846F9
:1018680001F0E0FE49F6B8130693079506A92D483E
:1018780001F0D8FE41F23F130693079506A94846A2
:1018880001F0D0FE4FF440430693012707970894D0
:10189800099606A9584601F0C5FE4FF470630693F1
:1018A80007970894099606A9504601F0BBFE4FF227
:1018B800FB030693079506A9504601F0B3FE4FF4C3
:1018C8000073069307970894099606A9484601F0FD
:1018D800A9FE22462146062001F03AFA062001F028
:1018E8007DFA22462146082001F032FA082001F04C
:1018F80075FA22462146404601F02AFA404601F090
:101908006DFA0BB0BDE8F08F0010024000180140DE
:1019180000140140000C014000100140000021109B
:10192800000031100008014072B6FEE700B597B01C
:10193800282200210CA81FF0CDFB00230793089351
:1019480009930A930B9301930293039304930593CA
:10195800069301220C924FF480330D9310920222C9
:10196800139214934FF4E01315930CA802F09CF80B
:10197800C8B90F23079302210891002309934FF454
:1019880080620A920B9307A802F05CFB68B90223F5
:1019980001934FF40043039301A802F08DFC30B982
:1019A80017B05DF804FBFFF7BFFFFFF7BDFFFFF7B8
:1019B800BBFF704708B50D480D4B0360002343601B
:1019C8008360C360436108228261036103F0F2FC13
:1019D80030B94FF40061054803F06CFD18B908BD33
:1019E800FFF7A2FFF5E7FFF79FFFF8E7C80C002015
:1019F8000080014070B588B00023049305930693D6
:101A0800079302682C4B9A4201D008B070BD044677
:101A180003F510435A6942F480625A615A6902F424
:101A280080620192019A9A6942F010029A619A6959
:101A380002F010020292029A9A6942F020029A6118
:101A48009B6903F020030393039B4FF4F85304931B
:101A5800022605960325079504A9184801F0E2FD1A
:101A6800042304930596079504A9154801F0DAFDA7
:101A78001448154B03600023436083608022C260D2
:101A88004FF4007202614FF4006242618361C361E6
:101A980001F0E6F960B90B4B23645C62E363002252
:101AA8000521312001F054F9312001F097F9ACE714
:101AB800FFF73AFFEFE700BF008001400010014048
:101AC80000140140840C0020440402402DE9F04138
:101AD80004460E4617469846204603F05BFD042848
:101AE800FAD1124D284601F087FA114B2B600020DD
:101AF8006860A8608023EB604FF400732B614FF49B
:101B080000636B61A861E861284601F0A9F950B942
:101B1800064B23645C6243463A463146204603F04E
:101B2800C5F8BDE8F081FFF7FFFEF1E7840C00205F
:101B3800440402402DE9F04104460E4617469846F3
:101B4800204603F027FD0428FAD1134D284601F05A
:101B580053FA124B2B6010236B600023AB6080227A
:101B6800EA604FF400722A614FF400626A61AB6167
:101B7800EB61284601F074F950B9074BE3635C62E6
:101B880043463A463146204603F02AF9BDE8F0813B
:101B9800FFF7CAFEF1E700BF840C002044040240AE
:101BA80008B50D480D4B03604FF482734360002362
:101BB8008360C360036143614FF400728261C36153
:101BC8000362436283620A23C36203F04FFE00B9D3
:101BD80008BDFFF7A9FEFBE74C0D002000380040C8
:101BE80010B586B00023029303930493059302680B
:101BF800174B9A4201D006B010BD03F5EC33DA69F1
:101C080042F48042DA61DA6902F480420092009A72
:101C18009A6942F008029A619B6903F008030193EC
:101C2800019B4FF42043029302230393032305935C
:101C3800084C02A9204601F0F5FC4FF480430293BA
:101C480000230393049302A9204601F0EBFCD2E79A
:101C580000380040000C014082B00E4B9A6942F0F7
:101C680001029A619A6902F001020092009ADA6907
:101C780042F08052DA61DB6903F080530193019BE3
:101C8800054A536823F0E06343F00073536002B0E1
:101C9800704700BF0010024000000140FEE7FEE769
:101CA800FEE7FEE7FEE770477047704708B500F0AB
:101CB800B7FB08BD08B5012001F0D2FE08BD08B584
:101CC800042001F0CDFE08BD08B5082001F0C8FECB
:101CD80008BD000008B5024804F05EF808BD00BF62
:101CE800380E002008B5024805F0AEFA08BD00BF5E
:101CF800100F002008B5024805F0A6FA08BD00BF7D
:101D0800580F002008B5024803F0CAFC08BD00BF00
:101D1800C80C002008B5024804F03EF808BD00BF12
:101D2800800E002008B5024804F036F808BD00BF50
:101D3800C80E002008B5024801F0FEFA08BD00BF31
:101D4800840C00200120704708B51EF0A5FE16235C
:101D580003604FF0FF3008BD08B54FF0FF31FFF7C3
:101D6800F3FFFEE770B50C461646002506E0AFF314
:101D78000080214601F8010B01350C46B542F6DB1F
:101D8800304670BD70B50C461646002504E014F8C0
:101D9800010B1EF00DFD0135B542F8DB304670BD74
:101DA8004FF0FF3070474FF400534B6000207047EE
:101DB800012070470020704710B503460C4A0D49B2
:101DC8000D48006840B10C4800680344521A934219
:101DD80006D8094A136010BD0748084C0460F2E7AA
:101DE8001EF05AFE0C2303604FF0FF30F3E700BFEC
:101DF80000C0002000200000A40D00205063002037
:101E08007047000000B587B0002302930393049342
:101E18000593009301931648164A026041F61F4243
:101E28004260836040F2E732C260036180238361CD
:101E380004F0BCF890B94FF48053029302A90C48FF
:101E480004F056FB68B900230093019369460848DB
:101E580004F05CFE40B907B05DF804FBFFF764FDD1
:101E6800E9E7FFF761FDEEE7FFF75EFDF3E700BF87
:101E7800380E00200008004000B583B0002300930E
:101E880001931048104A026041F61F424260836085
:101E980040F2E733C3608023836104F087F850B9C8
:101EA8000023009301936946064804F02FFE28B9E1
:101EB80003B05DF804FBFFF737FDF1E7FFF734FDEA
:101EC800F6E700BF800E00200010004000B583B088
:101ED8000023009301931048104A026041F61F4204
:101EE8004260836040F2E733C3608023836104F07B
:101EF8005DF850B90023009301936946064804F041
:101F080005FE28B903B05DF804FBFFF70DFDF1E706
:101F1800FFF70AFDF6E700BFC80E002000140040D6
:101F280082B003680E4A934204D00E4A93420CD002
:101F380002B070470C4B9A6942F400629A619B693F
:101F480003F400630093009BF2E7074BDA6942F061
:101F58000202DA61DB6903F002030193019BE7E700
:101F6800002C0140000400400010024000B585B07C
:101F78000368224A934208D0214A934218D0214A42
:101F8800934228D005B05DF804FB1F4BDA6942F094
:101F98000402DA61DB6903F004030193019B002268
:101FA80011461E2000F0D4FE1E2000F017FFE9E7BE
:101FB800154BDA6942F01002DA61DB6903F01003AD
:101FC8000293029B00221146362000F0C1FE362003
:101FD80000F004FFD6E70C4BDA6942F02002DA6120
:101FE800DB6903F020030393039B002204213720BD
:101FF80000F0AEFE372000F0F1FEC3E70008004015
:1020080000100040001400400010024000B587B0E6
:102018000023029303930493059303681F4A934292
:1020280005D01F4A93421ED007B05DF804FB1D4B34
:102038009A6942F040029A619B6903F04003009359
:10204800009B4FF40073029302230393059302A9A4
:10205800154801F0E7FA154A536843F0E06343F086
:10206800C0035360E0E70F4B9A6942F010029A618F
:102078009B6903F010030193019BC0230293022381
:102088000393059302A90A4801F0CCFA074A53685A
:1020980043F0E06343F440635360C5E7002C01401C
:1020A80000040040001002400018014000000140F8
:1020B8000010014010B592B00024109411940994B6
:1020C8000A940B940C940D940E940F94202221469C
:1020D80001A81EF0FFFF2348234B036040F2CF23E3
:1020E8004360846040F2E733C36004614461846103
:1020F80003F0E8FF002829D100231093119310A9B9
:10210800184804F003FD20BB6023099300220A92BB
:102118000B920C920D920E920F9209A9114804F09D
:10212800BDF8C8B900230193029303930493059360
:102138004FF400520692089301A90A4804F06AFD78
:1021480068B90848FFF762FF12B010BDFFF7ECFB53
:10215800D2E7FFF7E9FBD7E7FFF7E6FBE2E7FFF790
:10216800E3FBEEE7A80D0020002C014000B58BB082
:10217800002308930993019302930393049305930F
:10218800069307931C481D4A0260472242608360F9
:10219800FF22C2600361836103F094FFF8B9002352
:1021A8000893099308A9144804F0B0FCD0B9602337
:1021B8000193002202920392059201A90E4804F0AD
:1021C8006DF890B904220DEB02010B4804F066F893
:1021D80070B90948FFF71AFF0BB05DF804FBFFF769
:1021E800A3FBDCE7FFF7A0FBE1E7FFF79DFBE9E7CF
:1021F800FFF79AFBEDE700BFF00D00200004004058
:1022080008B50A480A4B03604FF4E13343600023E2
:102218008360C36003610C2242618361C36104F07F
:10222800ABFE00B908BDFFF77FFBFBE7100F0020EE
:102238000038014008B50A480A4B03604FF4E133FF
:10224800436000238360C36003610C2242618361A1
:10225800C36104F091FE00B908BDFFF765FBFBE719
:10226800580F00200048004030B589B0002304937F
:102278000593069307930368354A934204D0354A79
:10228800934233D009B030BD334B9A6942F480424F
:102298009A619A6902F480420092009A9A6942F01F
:1022A80004029A619B6903F004030193019B4FF4B4
:1022B800007304930223059303230793274D04A96E
:1022C800284601F0AFF94FF4806304930024059485
:1022D800069404A9284601F0A5F92246214625209E
:1022E80000F036FD252000F079FDCBE71A4BDA69BE
:1022F80042F48022DA61DA6902F480220292029AB8
:102308009A6942F008029A619B6903F008030393F3
:10231800039B4FF4806304930223059303230793DD
:102328000F4D04A9284601F07DF94FF4006304938A
:1023380000240594069404A9284601F073F922465E
:102348002146272000F004FD272000F047FD99E7EB
:1023580000380140004800400010024000080140D9
:10236800000C0140FFF74CFD0B480C490C4A0023B8
:1023780002E0D458C4500433C4188C42F9D3094A33
:10238800094C002301E013600432A242FBD31EF083
:102398009DFB1EF033FB704700000020380C002026
:1023A80008B00208380C002050630020FEE7000047
:1023B80010B504460E4B18784FF47A73B3FBF0F35C
:1023C8000C4A1068B0FBF3F000F020FD68B90F2C40
:1023D80001D901200AE0002221464FF0FF3000F029
:1023E800B7FC054B1C60002000E0012010BD00BFB9
:1023F80004000020000000200800002008B5074A5B
:10240800136843F010031360032000F083FC0F20CF
:10241800FFF7CEFFFFF720FC002008BD0020024098
:10242800034A1168034B1B780B441360704700BFC5
:10243800A00F002004000020014B1868704700BF5F
:10244800A00F002038B50446FFF7F6FF0546B4F1A3
:10245800FF3F02D0044B1B781C44FFF7EDFF401BE5
:10246800A042FAD338BD00BF04000020F0B583B005
:1024780005460C46002301930368604A93420CD03A
:1024880002F58062934208D002F5A052934204D02C
:1024980040F2B3415A48FFF78CFAFFF7CDFF0746E1
:1024A8002B689A6812F4807F22D15A6812F4807FD0
:1024B80003D1DB6A13F4700F29D0524B1E68022037
:1024C80001F0BCFFB6FBF0F62B6819694E4A1142C1
:1024D80036D1D96802F15C42114231D119694B4AAF
:1024E800114240D1DA684A4B1A423ED0292041E0D5
:1024F800AB6A43F02003AB62002385F82430012047
:1025080003B0F0BD2B681B6813F0020F0FD02B68C7
:102518001B6813F0020F4FD1B4F1FF3FF7D0002C26
:10252800F0D0FFF789FFC31BA342F0D9EAE7AB6AF3
:1025380043F00403AB62002385F824300320DFE76F
:102548001969324A114204D1D96802F16E42114226
:102558000DD019692F4A0A405AB9DA682D4B134031
:102568005BB1FC2006E0292004E0142002E054209E
:1025780000E0FC2000FB06F607E05420FAE7019B88
:10258800B34210D3019B01330193019BB34213D291
:10259800B4F1FF3FF6D0002CF1D0FFF74DFFC01B80
:1025A800A042EFD9EBE7AB6A43F00403AB62002328
:1025B80085F824300320A3E72B686FF012021A6015
:1025C800AB6A43F40073AB622B689B6803F4602327
:1025D800B3F5602F01D0002092E7287B60B9AB6A81
:1025E80023F48073AB62AB6A13F4805F88D1AB6A63
:1025F80043F00103AB6283E7002081E70024014038
:10260800BC6E02080000002024499224922449123A
:10261800922449004992240010B504460368094AE7
:1026280093420CD002F58062934208D002F5A05282
:10263800934204D040F2E5610348FFF7BAF92368F2
:10264800D86C10BD00240140BC6E020830B583B0C0
:1026580005460C460023019303685E4A93420CD05A
:1026680002F58062934208D002F5A052934204D04A
:1026780040F2D6715848FFF79CF92368112B3AD8D5
:102688006368013B0F2B3CD8A368072B3FD895F80C
:102698002430012B00F09B80012385F824306368E7
:1026A800062B3AD82868426B03EB8303053B1F21AE
:1026B800994022EA0102216801FA03F313434363B4
:1026C8002368092B49D92868C26803EB43031E3BDA
:1026D8000721994022EA0102A16801FA03F3134392
:1026E800C3602368103B012B45D90020002385F8DF
:1026F800243003B030BD40F2D7713748FFF759F99D
:10270800BEE74FF4FB613448FFF753F9BCE740F2EA
:10271800D9713148FFF74DF9B9E70C2B0ED8286865
:10272800026B03EB8303233B1F21994022EA01023A
:10273800216801FA03F313430363C1E72868C26AF7
:1027480003EB8303413B1F21994022EA01022168E0
:1027580001FA03F31343C362B2E72868026903EB83
:1027680043030721994022EA0102A16801FA03F311
:1027780013430361B5E72B68164A934205D0AB6A49
:1027880043F02003AB620120B0E79A6812F4000F0F
:102798001BD19A6842F400029A602368102B01D07A
:1027A8000020A3E70D4B1B680D4AA2FB03239B0CDB
:1027B80003EB83035B00019302E0019B013B019360
:1027C800019B002BF9D1002090E700208EE7022022
:1027D8008FE700BF00240140BC6E02080000002003
:1027E80083DE1B4330B583B00023019303689A68E6
:1027F80012F0010F33D104469A6842F001029A6040
:10280800184B1B68184AA2FB03239B0C019302E098
:10281800019B013B0193019B002BF9D1FFF70CFEB3
:10282800054623689B6813F0010F16D1FFF704FED5
:10283800431B022BF5D923689B6813F0010FF0D1D5
:10284800A36A43F01003A362E36A43F00103E3625F
:10285800002384F82430012002E0002000E000205A
:1028680003B030BD0000002083DE1B4310B50446D2
:1028780003683F4A93420CD002F58062934208D025
:1028880002F5A052934204D040F211413948FFF7B3
:1028980090F894F82430012B67D0012384F8243071
:1028A8002046FFF79FFF00285BD1A36A23F44073FB
:1028B80023F0010343F48073A36223682E4A9342F2
:1028C80027D0A26A22F48012A2625A6812F4806F9A
:1028D80005D0A26A22F4405242F48052A262A26A4F
:1028E80012F4805F2BD0E26A22F00602E262002234
:1028F80084F824206FF002021A6023689A6802F4B0
:102908006022B2F5602F1DD09A6842F480129A6056
:102918002AE0A2F58062526812F4702FD1D0A26A20
:1029280042F48012A262124A526812F4806FD6D022
:10293800A26A22F4405242F48052A262CFE70022F7
:10294800E262D4E70C4A934204D09A6842F4A002A7
:102958009A6009E0A2F58062526812F4702FD3D110
:10296800F3E7002384F8243010BD0220FCE700BF01
:1029780000240140BC6E02080028014038B50368F5
:102988009A6812F0010F01D1002038BD04469A68F8
:1029980022F001029A60FFF74FFD054623689B6805
:1029A80013F0010F13D0FFF747FD431B022BF5D996
:1029B80023689B6813F0010FF0D0A36A43F010035B
:1029C800A362E36A43F00103E3620120DDE700202C
:1029D800DBE70000002800F0FC8070B504460368BF
:1029E8007D4A93420CD002F58062934208D002F5EA
:1029F800A052934204D040F2A9117848FEF7D9FFBB
:102A080063681BB1B3F5006F40F08880A3681BB101
:102A1800B3F5807F40F08880237B012B00F28A8009
:102A2800E369A3B1B3F5003F11D0B3F5C02F0ED0C1
:102A3800B3F5002F0BD0B3F5202F08D0B3F5402FF6
:102A480005D0B3F5802F02D0B3F5602F78D1A368F5
:102A580063B12369013B0F2B78D8237D012B7BD8E9
:102A6800237D1BB1A369013B072B7BD8A36A002BED
:102A78007ED02046FFF782FFA36A13F0100340F0D0
:102A8800A280002840F09F80A26A22F4885222F097
:102A9800020242F00202A2626268266850498E422F
:102AA8006DD0E1690A43217B42EA4102A568B5F588
:102AB800807F02D0012D69D01D4694F814C0BCF166
:102AC800010F66D0716821F4694129437160256856
:102AD800AE68444931401143A960A168B1F5807FCF
:102AE80001D0012902D12369013B1B052568E96A48
:102AF80021F470010B43EB62236899683A4B0B4051
:102B08009A4257D0A36A23F0120343F01003A3623A
:102B1800E36A43F00103E362012059E04FF4D57101
:102B28002E48FEF746FF71E740F2AB112B48FEF73F
:102B380040FF71E74FF4D6712848FEF73AFF6FE778
:102B480040F2AD112548FEF734FF80E740F2B1119D
:102B58002248FEF72EFF80E74FF4D9711F48FEF791
:102B680028FF7DE740F2B5111C48FEF722FF7DE7FC
:102B7800E36284F824302046FEF7AEFD79E7E16988
:102B8800B1F5402F8ED14FF400218BE74FF48075BB
:102B980093E731B9A169013945EA413141F400654A
:102BA80090E7A16A41F02001A162E16A41F00101C8
:102BB800E16287E70023E362A36A23F0030343F09B
:102BC8000103A36204E0A36A43F01003A362012097
:102BD80070BD0120704700BF00240140BC6E020890
:102BE800003C0140FDF7E1FFFE0E1FFF70B582B00B
:102BF8000446002301930368434A93420BD002F52D
:102C08008062934207D002F5A052934203D07E21FE
:102C18003E48FEF7CEFE94F82430012B72D00123F3
:102C280084F824302046FFF7A9FE2046FFF7DAFD96
:102C3800054628B1002384F82430284602B070BD28
:102C4800A36A23F4885323F0020343F00203A36228
:102C58002F4B1E68022001F0F1FBB6FBF0F6760060
:102C6800019602E0019B013B0193019B002BF9D1E6
:102C78002268936843F008039360FFF7DDFB06467C
:102C880023689A6812F0080F14D0FFF7D5FB801B51
:102C98000A28F5D923689B6813F0080FF0D0A36AB7
:102CA80023F0120343F01003A362002384F82430B6
:102CB8000125C2E79A6842F004029A60FFF7BCFB5C
:102CC800064623689B6813F0040F14D0FFF7B4FB83
:102CD800801B0A28F5D923689B6813F0040FF0D0ED
:102CE800A36A23F0120343F01003A362002384F8BD
:102CF80024300125A1E7A36A23F0030343F001036D
:102D0800A36297E7022598E7002401401C6F020898
:102D18000000002010B50446C31E042B0FD80A4A31
:102D2800D36823F4E0631B041B0C240204F4E0645E
:102D3800234343F0BF6343F40033D36010BD9121B4
:102D48000248FEF736FEEAE700ED00E0806F020871
:102D580070B505460C4616460F2A25D80F2C28D8DC
:102D68001B4BDB68C3F30223C3F10701042928BF07
:102D780004211A1D062A21D9033B4FF0FF3202FA1B
:102D880001F124EA01049C4002FA03F326EA03064F
:102D98003443002D14DB2401E4B205F1604505F548
:102DA800614585F8004370BDA9210A48FEF701FE78
:102DB800D4E7AA210748FEF7FCFDD1E70023DCE7AA
:102DC80005F00F052401E4B2034B5C55EBE700BFA7
:102DD80000ED00E0806F020814ED00E010B5041E5D
:102DE8000ADB002C07DB04F01F026409012393406F
:102DF800044A42F8243010BDBD210348FEF7D9FD2E
:102E0800EFE700BF00E100E0806F02080138B0F191
:102E1800807F0BD24FF0E0235861054AF02182F8F9
:102E280023100020986107221A617047012070471B
:102E380000ED00E030B40124056CAC40C56B6C605B
:102E4800046863604368102B05D0036899600368C1
:102E5800DA6030BC704703689A600368D960F8E7A5
:102E6800002800F0B78010B5044603685A4A934218
:102E780025D01432934222D0143293421FD01432F8
:102E880093421CD01432934219D01432934216D074
:102E98001432934213D002F5627293420FD0143267
:102EA80093420CD01432934209D01432934206D084
:102EB8001432934203D099214848FEF77AFD63689B
:102EC80023B1102B02D0B3F5804F55D1A368402B06
:102ED80001D0002B55D1E368802B01D0002B55D1B0
:102EE80023692BB1B3F5807F02D0B3F5007F52D1AF
:102EF80063692BB1B3F5806F02D0B3F5006F4FD182
:102F0800A3690BB1202B50D1E36943B1B3F5805FBE
:102F180005D0B3F5005F02D0B3F5405F4AD1216810
:102F28002F4B99424BD82F4B0B442F4AA2FB03231C
:102F38001B099B0023642D4BE363022384F8213093
:102F48000A6822F47F5222F030026368A0680343C3
:102F5800E06803432069034360690343A0690343AE
:102F6800E069034313430B600020A063012384F846
:102F7800213084F8200010BD9A211848FEF719FD69
:102F8800A4E79B211548FEF714FDA4E79C211348EC
:102F9800FEF70FFDA4E79D211048FEF70AFDA7E7FD
:102FA8009E210E48FEF705FDAAE79F210B48FEF774
:102FB80000FDA9E7A0210948FEF7FBFCAFE70C4B91
:102FC8000B44094AA2FB03231B099B002364094BFA
:102FD800E363B2E70120704708000240E46F02088B
:102FE80007040240F8FFFDBFCDCCCCCC0000024066
:102FF800F8FBFDBF00040240002862D010B504466B
:103008000368314A934225D01432934222D01432B5
:1030180093421FD0143293421CD01432934219D0D9
:103028001432934216D01432934213D002F56272CE
:1030380093420FD0143293420CD01432934209D0E9
:103048001432934206D01432934203D0E4211F482D
:10305800FEF7AFFC2268136823F0010313602268AF
:103068000023136022685360226893602268D3604B
:103078002268174B9A4219D8164B1344164AA2FBDA
:1030880003231B099B002364144BE363216CE26B4D
:1030980001238B4053600020A062E06220636063DC
:1030A800A06384F8210084F8200010BD0C4B134461
:1030B800094AA2FB03231B099B002364094BE36312
:1030C800E4E70120704700BF08000240E46F0208EF
:1030D80007040240F8FFFDBFCDCCCCCC0000024075
:1030E800F8FBFDBF00040240F8B504460E4617463B
:1030F8001D465A1E4FF6FE739A4210D894F8203097
:10310800012B3BD0012384F8203094F82130DBB226
:10311800012B0AD0002384F820300220F8BD4FF498
:10312800B7711748FEF745FCE8E7022384F8213019
:103138000023A3632268136823F0010313602B465E
:103148003A4631462046FFF775FEE36A5BB12268CE
:10315800136843F00E0313602268136843F00103F9
:1031680013600020DAE72268136823F00403136071
:103178002268136843F00A031360EDE70220CDE7E5
:10318800E46F020890F82130DBB2022B06D004234A
:103198008363002380F82030012070470268136899
:1031A80023F00E0313600268136823F00103136011
:1031B800036CC16B012202FA03F34B6080F82120F3
:1031C800002380F8203018467047000008B590F8B2
:1031D8002130DBB2022B03D004238363012008BD16
:1031E8000268136823F00E0313600268136823F063
:1031F8000103136003684C4A93424ED9783A9342CC
:1032080024D01432934230D0143293422FD0143247
:1032180093422FD0143293422FD0143293422FD09E
:10322800143293422FD002F5627293422ED0143298
:1032380093422DD0143293422CD01432934202D0B0
:103248004FF4803203E04FF4805200E00122374B04
:103258005A60012380F82130002380F82030436B26
:10326800002B5ED098470020B9E71022EFE74FF413
:103278008072ECE74FF48052E9E74FF48032E6E7DA
:103288004FF48012E3E74FF08072E0E70122DEE7B7
:103298001022DCE74FF48072D9E7254A934224D004
:1032A8001432934225D01432934224D014329342DC
:1032B80024D01432934224D01432934224D01432AE
:1032C800934224D002F56272934223D0143293427F
:1032D80022D01432934221D01432934202D04FF4B8
:1032E800803203E04FF4805200E00122114B5A6013
:1032F800AFE71022FAE74FF48072F7E74FF48052F5
:10330800F4E74FF48032F1E74FF48012EEE74FF024
:103318008072EBE70122E9E71022E7E74FF48072B9
:10332800E4E700205BE700BF8000024000040240A1
:10333800080002400000024038B5C36B1A680468F0
:103348002568016C04238B40134200F09B8015F024
:10335800040F00F09780236813F0200F03D123682F
:1033680023F00403236003689A4A934246D9783AC3
:10337800934224D01432934228D01432934227D057
:103388001432934227D01432934227D014329342F6
:1033980027D01432934227D002F56272934226D086
:1033A8001432934225D01432934224D014329342DB
:1033B80002D04FF4802203E04FF4804200E0042260
:1033C800854B5A60C36A03B1984738BD4022F7E776
:1033D8004FF48062F4E74FF48042F1E74FF4802223
:1033E800EEE74FF48002EBE74FF08062E8E7042253
:1033F800E6E74022E4E74FF48062E1E7774A934248
:1034080024D01432934225D01432934224D014325B
:10341800934224D01432934224D01432934224D0BD
:103428001432934224D002F56272934223D01432AC
:10343800934222D01432934221D01432934202D0C4
:103448004FF4802203E04FF4804200E00422644BF2
:103458005A60B7E74022FAE74FF48062F7E74FF483
:103468008042F4E74FF48022F1E74FF48002EEE760
:103478004FF08062EBE70422E9E74022E7E74FF4E8
:103488008062E4E702238B40134200F0AB8015F022
:10349800020F00F0A780236813F0200F06D12368DD
:1034A80023F00A032360012380F821300368494A86
:1034B80093424BD9783A934224D0143293422DD078
:1034C800143293422CD0143293422CD014329342AB
:1034D8002CD0143293422CD0143293422CD002F5C3
:1034E800627293422BD0143293422AD01432934200
:1034F80029D01432934202D04FF4003203E04FF443
:10350800005200E00222344B5A60002380F8203039
:10351800836A002B3FF459AF984756E72022F2E719
:103528004FF40072EFE74FF40052ECE74FF400322B
:10353800E9E74FF40012E6E74FF00072E3E70222F2
:10354800E1E72022DFE74FF40072DCE7234A9342E9
:1035580024D01432934225D01432934224D014320A
:10356800934224D01432934224D01432934224D06C
:103578001432934224D002F56272934223D014325B
:10358800934222D01432934221D01432934202D073
:103598004FF4003203E04FF4005200E00222104BD7
:1035A8005A60B2E72022FAE74FF40072F7E74FF4C7
:1035B8000052F4E74FF40032F1E74FF40012EEE75F
:1035C8004FF00072EBE70222E9E72022E7E74FF429
:1035D8000072E4E780000240000402400800024054
:1035E80000000240082303FA01F111423FF4EDAE56
:1035F80015F0080F3FF4E9AE236823F00E032360AB
:10360800026CC16B012303FA02F24A60836380F8FB
:103618002130002380F82030036B002B3FF4D5AE17
:103628009847D2E62DE9F04383B007460E46884B0B
:1036380098421BD003F58063984217D003F5806346
:10364800984213D003F5806398420FD003F5806346
:1036580098420BD003F58063984207D003F5806346
:10366800984203D0BD217B48FEF7A3F933689AB28C
:1036780012B11B0C1B041BB1BE217648FEF799F949
:103688007368012B1ED9112B1CD0022B1AD0122BB8
:1036980018D0714A934215D002F58012934211D086
:1036A80002F5801293420DD0A2F5F812934209D088
:1036B80002F58012934205D002F58012934201D0A0
:1036C800032B03D14FF000094D46FDE0BF216148AF
:1036D800FEF76FF9F6E7614A934210D007D9604ABE
:1036E80093420CD002F58032934208D01AE0A2F53A
:1036F8008012934203D002F5702293420ED1B36830
:10370800022B00F28D80B368002B00F09580012B0E
:1037180000F08B807C614FF0080903E0A2F580126D
:103728009342ECD0B8F1FF0F00F289803846B8F127
:10373800FF0F00F28680AA0003680F21914023EA58
:10374800010309FA02F213430360736813F0805F00
:1037580000F0B980434B9A6942F001029A619B6973
:1037680003F001030193019BAA08911C3E4B53F8F7
:10377800210005F0030399000F238B4020EA030082
:10378800334B9F4272D003F580639F4200F0F6806E
:1037980003F580639F4200F0F38003F580639F4246
:1037A80000F0F08003F580639F4200F0ED8003F5A0
:1037B80080639F4249D0062359E0F368013B022BFE
:1037C80002D8D6F80C90ADE7D5212248FEF7F1F8DB
:1037D800F7E7F368013B022B03D8F36803F1040908
:1037E800A0E7DC211B48FEF7E4F8F6E7F368013BA5
:1037F800022B03D8F36803F1080993E7E32115487E
:10380800FEF7D7F8F6E7F368013B022B03D8F36815
:1038180003F10C0986E7EA210E48FEF7CAF8F6E735
:10382800F7210C48FEF7C5F86DE73C614FF0080931
:1038380078E74FF0000975E74FF0040972E7381D83
:1038480075E7A5F10802920076E705230FE000BFAF
:103858000008014044700208000011100000221006
:1038680000003110001002400000014000238B408E
:1038780003430232534941F82230736813F4801F1E
:1038880000F08480504A936843EA080393607368A1
:1038980013F4001F00F080804B4AD36843EA080302
:1038A800D360736813F4003F7CD0474A536843EAF7
:1038B80008035360736813F4803F79D0424A136851
:1038C80043EA080313600135336833FA05F275D00B
:1038D8000124AC4003EA040834EA0303F3D13B4B68
:1038E8009F421BD003F580639F4217D003F5806386
:1038F8009F4213D003F580639F420FD003F5806386
:103908009F420BD003F580639F4207D003F5806385
:103918009F4203D0CD212E48FEF74BF87368122B37
:103928003FF6D9AE122B3FF6FDAE01A252F823F0B6
:1039380007370008C3370008F53700083B38000888
:103948002D3700082D3700082D3700082D370008BF
:103958002D3700082D3700082D3700082D370008AF
:103968002D3700082D3700082D3700082D3700089F
:103978002D370008DB3700080F380008012376E7E9
:10398800022374E7032372E7042370E70E4A93685F
:1039980023EA080393607AE70B4AD36823EA08030B
:1039A800D3607EE7084A536823EA0803536081E737
:1039B800054A136823EA0803136084E703B0BDE8E7
:1039C800F08300BF000001400004014000080140EE
:1039D8004470020838B504460D4621B1A3681D425B
:1039E80007D0012038BD4FF4DA710348FDF7E1FF35
:1039F800F4E70020F6E700BF4470020870B50546FA
:103A080014460E4621B1012C08D86CB12E6170BD48
:103A18004FF4EA710648FDF7CCFFF4E740F2D51100
:103A28000348FDF7C6FFF0E736042E61EFE700BF55
:103A38004470020838B505460C4641B1EB6804EA03
:103A4800030224EA030444EA02442C6138BD4FF41B
:103A5800F6710248FDF7ADFFF0E700BF44700208B9
:103A680008B5054B5B69034200D108BD024B58619C
:103A78001CF0B4FBF9E700BF0004014082B0084B1A
:103A88001B68084AA2FB03235B0A00FB03F30193AC
:103A980000BF019B5A1E0192002BF9D102B070475A
:103AA80000000020D34D6210002800F0898270B514
:103AB80082B00446036813B113F00F0F2AD02368AD
:103AC80013F0010F40D063682BB1B3F5803F02D0EB
:103AD800B3F5A02F24D19C4B5B6803F00C03042B97
:103AE80029D0994B5B6803F00C03082B1ED0636840
:103AF800B3F5803F55D0002B69D103F1804303F51E
:103B080004331A6822F480321A601A6822F4802278
:103B18001A604BE040F265118C48FDF74AFFCEE78A
:103B280040F26B118948FDF744FFD4E7864B5B6888
:103B380013F4803FDBD0844B1B6813F4003F03D0A1
:103B48006368002B00F03E82236813F0020F00F038
:103B580089802369012B63D863691F2B66D87A4B48
:103B68005B6813F00C0F6CD0774B5B6803F00C03A9
:103B7800082B61D02369002B00F09A80744B012236
:103B88001A60FEF759FC05466F4B1B6813F0020FCD
:103B980040F08580FEF750FC401B0228F4D9032032
:103BA80015E2694A136843F480331360636843B3CA
:103BB800FEF742FC0546644B1B6813F4003FC3D173
:103BC800FEF73AFC401B6428F5D90320FFE1B3F562
:103BD800A02F09D05C4B1A6822F480321A601A6848
:103BE80022F480221A60E1E703F18043A3F53C3315
:103BF8001A6842F480221A601A6842F480321A6005
:103C0800D4E7FEF719FC05464F4B1B6813F4003F39
:103C18009AD0FEF711FC401B6428F5D90320D6E1A1
:103C280040F29F114948FDF7C4FE95E74FF4D07163
:103C38004648FDF7BEFE92E7434B5B6813F4803FAE
:103C480098D1414B1B6813F0020F03D02369012B55
:103C580040F0BA813C4A136823F0F803616943EAEB
:103C6800C1031360236813F0080F3CD0A369012B2C
:103C780030D8A369002B6FD0354B0122C3F88024BC
:103C8800FEF7DAFB0546304B5B6A13F0020F27D1CB
:103C9800FEF7D2FB401B0228F5D9032097E12A4AF8
:103CA800136823F0F803616943EAC1031360D9E795
:103CB800274B00221A60FEF7BFFB0546224B1B6804
:103CC80013F0020FCED0FEF7B7FB401B0228F5D940
:103CD80003207CE14FF4F0711C48FDF76AFEC8E749
:103CE8000120FFF7CBFE236813F0040F00F0A48037
:103CF800E368012B01D9052B41D1134BDB6913F084
:103D0800805F42D1104BDA6942F08052DA61DB6998
:103D180003F080530193019B01250E4B1B6813F49C
:103D2800807F34D0E368012B45D0002B5BD103F1B1
:103D3800804303F504331A6A22F001021A621A6AF0
:103D480022F004021A623BE000100240A47002084C
:103D58000000424200700040A14B0022C3F88024BA
:103D6800FEF76AFB05469F4B5B6A13F0020FBAD059
:103D7800FEF762FB401B0228F5D9032027E140F239
:103D88000F219948FDF715FEB7E70025C5E7974AC3
:103D9800136843F480731360FEF74EFB0646934B9B
:103DA8001B6813F4807FBDD1FEF746FB801B642897
:103DB800F5D903200BE18B4A136A43F00103136220
:103DC800E36833B3FEF738FB0646864B1B6A13F0ED
:103DD800020F2FD1FEF730FB801B41F28833984247
:103DE800F3D90320F3E0052B09D07E4B1A6A22F0A1
:103DF80001021A621A6A22F004021A62E0E7794B99
:103E08001A6A42F004021A621A6A42F001021A623D
:103E1800D6E7FEF711FB0646724B1B6A13F0020F3A
:103E280008D0FEF709FB801B41F288339842F3D98A
:103E38000320CCE0002D53D1E369022B56D8E36967
:103E4800002B00F0C380674A526802F00C02082A6F
:103E580000F0A680022B40F08F80236A13B1B3F5DF
:103E6800803F49D1636A4BB3B3F5802F26D0B3F5B1
:103E7800002F23D0B3F5402F20D0B3F5801F1DD0DD
:103E8800B3F5A01F1AD0B3F5C01F17D0B3F5E01FC4
:103E980014D0B3F5001F11D0B3F5101F0ED0B3F531
:103EA800201F0BD0B3F5301F08D0B3F5401F05D045
:103EB800B3F5501F02D0B3F5601F23D1484B002241
:103EC8001A66FEF7B9FA0546464B1B6813F0007FE1
:103ED8001ED0FEF7B1FA401B0228F5D9032076E080
:103EE800404AD36923F08053D361A5E740F2AD215E
:103EF8003D48FDF75EFDA2E740F2B6213A48FDF7DE
:103F080058FDAFE740F2B7213748FDF752FDD5E736
:103F1800236AB3F5803F1AD032494B6823F47413EF
:103F2800226A606A024313434B602D4B01221A66D2
:103F3800FEF782FA04462B4B1B6813F0007F19D159
:103F4800FEF77AFA001B0228F5D903203FE0A368A0
:103F580013B1B3F5003F07D1224A536823F4003365
:103F6800A1680B435360D7E740F2CD211E48FDF707
:103F780020FDF1E700202AE0194B00221A66FEF71F
:103F88005BFA0446174B1B6813F0007F06D0FEF758
:103F980053FA001B0228F5D9032018E0002016E088
:103FA800012B16D00F4B5B6803F48031226A9142D3
:103FB80011D103F47013626A93420ED1002006E017
:103FC80001207047012002E0012000E0002002B03B
:103FD80070BD0120FBE70120F9E70120F7E700BFEA
:103FE8000000424200100240A47002080070004025
:103FF8000F4B5B6803F00C02082A01D00D4870478C
:10400800C3F383420C49885C13F4803F0BD0084B00
:104018005B68C3F34043094AD35C064A02FB00F0DD
:10402800B0FBF3F07047064B03FB00F0704700BF8E
:104038000010024000127A0004710208147102088C
:1040480000093D00002800F0FC8070B50D460446CC
:10405800036813F00F0F6DD0022D71D87D4B1B68CC
:1040680003F00703AB420BD27A4A136823F0070325
:104078002B431360136803F00703AB4240F0E3805F
:10408800236813F0020F29D013F0040F04D0724AEA
:10409800536843F4E0635360236813F0080F04D0B7
:1040A8006D4A536843F460535360A3687BB1802B17
:1040B8000DD0902B0BD0A02B09D0B02B07D0C02B44
:1040C80005D0D02B03D0E02B01D0F02B3ED1624A93
:1040D800536823F0F003A1680B435360236813F07F
:1040E800010F4DD06368022B36D86368012B39D095
:1040F800022B3ED0584A126812F0020F00F0A58039
:1041080055494A6822F0030213434B60FEF794F9BD
:104118000646514B5B6803F00C036268B3EB820FF1
:104128002ED0FEF789F9801B41F288339842F0D9E6
:10413800032079E040F236314848FDF73AFC8BE736
:1041480040F237314548FDF734FC87E740F25D31EE
:104158004248FDF72EFCBAE74FF459713F48FDF786
:1041680028FCC2E73C4A126812F4003FC8D101207B
:104178005AE0394A126812F0007FC1D1012053E099
:10418800344B1B6803F00703AB420AD9314A136862
:1041980023F007032B431360136803F00703AB42B4
:1041A80055D1236813F0040F14D0E3685BB1B3F55D
:1041B800806F08D0B3F5A06F05D0B3F5C06F02D0FB
:1041C800B3F5E06F31D1244A536823F4E063E16822
:1041D8000B435360236813F0080F15D023695BB1B4
:1041E800B3F5806F08D0B3F5A06F05D0B3F5C06FF5
:1041F80002D0B3F5E06F1ED1174A536823F4605319
:10420800216943EAC1035360FFF7F2FE124B5B6872
:10421800C3F30313124AD35CD840124B1860124BF5
:104228001868FEF7C5F8002070BD40F2A2310B48AF
:10423800FDF7BFFBC7E740F2A9310848FDF7B9FB16
:10424800DAE7012070470120EEE70120ECE70120C2
:10425800EAE700BF0020024000100240A4700208F4
:10426800A46E02080000002008000020014B186816
:10427800704700BF0000002008B5FFF7F7FF044BA8
:104288005B68C3F30223034AD35CD84008BD00BF70
:1042980000100240B46E020808B5FFF7E7FF044BB0
:1042A8005B68C3F3C223034AD35CD84008BD00BF90
:1042B80000100240B46E020870B582B0044603686C
:1042C80013F01F0F6FD0236813F0010F41D06368FC
:1042D80043B1B3F5807F05D0B3F5007F02D0B3F5C5
:1042E800407F65D1514BDB6913F0805F65D14F4B3F
:1042F800DA6942F08052DA61DB6903F08053019396
:10430800019B01254A4B1B6813F4807F57D0474B0C
:104318001B6A13F4407313D0626802F440729A4225
:104328000ED0424A136A23F4407042490126C1F86C
:1043380040640026C1F84064106213F0010F52D1A6
:104348003A4A136A23F4407361680B431362002DE1
:104358005AD1236813F0020F11D0A36843B1B3F503
:10436800804F05D0B3F5004F02D0B3F5404F50D180
:104378002E4A536823F44043A1680B4353602368D3
:1043880013F0100F50D06369B3F5800F01D0002BE4
:1043980044D1264A536823F4800361690B43536070
:1043A800002002B070BD6A212348FDF702FB8AE7AE
:1043B80072212148FDF7FDFA94E70025A2E71C4A7F
:1043C800136843F480731360FEF736F80646184BFB
:1043D8001B6813F4807F9AD1FEF72EF8801B64289F
:1043E800F5D90320DDE7FEF727F806460F4B1B6AD1
:1043F80013F0020FA4D1FEF71FF8801B41F2883397
:104408009842F3D90320CCE7D36923F08053D361D2
:104418009FE7B7210848FDF7CCFAA9E740F2131146
:104428000548FDF7C6FAB4E70020BAE700100240D5
:1044380000700040000042421871020810B504469E
:1044480010F01F0F0CD0013C0F2C69D8DFE804F0E6
:104458003B5D683568686838686868686868680EC9
:104468004FF4CA713148FDF7A4FAECE7304B5A68AB
:10447800186810F0807054D0C2F383432D49C85C8B
:1044880012F4803F15D02A4B5B68C3F340432A4A95
:10449800D25C2A4BB3FBF2F303FB00F0244B5B68BE
:1044A80013F4800F3DD14000254BA3FB003040089A
:1044B80037E0244B03FB00F0F0E7FFF799FD30E00D
:1044C800FFF796FD2DE01A4B1B6A40F202321A40A4
:1044D800B2F5817F26D003F44073B3F5007F04D092
:1044E800B3F5407F09D000201BE0114A526A12F050
:1044F800020FF5D049F6404013E00D4B186810F450
:1045080000300ED04FF224400BE0FFF7C5FE084BF9
:104518005B68C3F3813301335B00B0FBF3F000E069
:10452800002010BD4FF40040FBE700BF18710208DF
:10453800001002407C7102088C71020800127A0097
:10454800ABAAAAAA00093D00436A1A68D36B43F4D0
:104558008073D3637047000070B582B004460023AF
:104568000193006803F03CF9054610B1284602B0F3
:1045780070BD206803F076FC38B90123A364A36CEE
:10458800012B0BD02E46284614E00023A364206894
:1045980003F026F90028F2D00546E7E70021206855
:1045A80003F0CEFA0028EDD04FF08055DEE7019BEE
:1045B80001330193019A4FF6FE739A4213D896B9C4
:1045C8000021206803F0BCFAE0B91249206803F022
:1045D80095FB0646C0B90021206803F089F8C30F8F
:1045E800E5D01E46E3E7019A4FF6FE739A420ED8CD
:1045F80010F0804302D001236364B7E700226264AD
:104608001D46B3E70546B1E74FF08055AEE74FF0DA
:104618008075ABE7000010C1F8B5846AC66AA6B910
:10462800F8BD386803F00AF82070C0F307236370F8
:10463800C0F30743A370000EE0700434043E013554
:10464800072DEED9BC62FE62EAE707460025F7E7C8
:10465800F0B583B0046A466ADEB903B0F0BD2378CA
:104668000193627843EA02230193A27843EA024362
:104678000193E27843EA026301930434043E01A9FA
:10468800386802F0DEFF0135072DE8D93C627E620A
:10469800E3E707460025F7E7F0B589B004460F467B
:1046A800FDF7CAFE064600230093019308212068FF
:1046B80003F054F9054610B1284609B0F0BD216D44
:1046C8000904206803F03CFA05460028F4D14FF0AD
:1046D800FF330293082303933023049302230593A3
:1046E800002306930123079302A9206803F016F814
:1046F800206803F055FA054658B1DDE702F09EFF41
:104708004DF825000135FDF797FE831BB3F1FF3FF8
:104718003FD02068436B13F02A0F07D1436B13F483
:10472800001FEBD1436B13F4005FECD1436B13F024
:10473800080F25D1436B13F0020F24D1456B15F0F8
:10474800200523D140F23A538363019A130203F4FC
:104758007F0343EA0263110A01F47F410B4343EAF2
:1047680012633B60009A130203F47F0343EA026377
:10477800110A01F47F410B4343EA12637B609BE714
:104788000825856398E70225856395E720258563D5
:1047980092E74FF000458FE710B582B0044600213C
:1047A80000910191006802F0A3FF10F0007F13D17F
:1047B80069462046FFF770FF80B9019B13F4802FEC
:1047C8000ED0216D0904206803F0BAF930B902212E
:1047D800206803F0CDF901E04FF4006002B010BD8D
:1047E8004FF08060FAE710B582B0044600210091CE
:1047F8000191006802F07CFF10F0007F13D1694638
:104808002046FFF749FF80B9019B13F4803F0ED083
:10481800216D0904206803F093F930B9002120685C
:1048280003F0A6F901E04FF4006002B010BD4FF0AC
:104838008060FAE770B581B104460E46016D09043F
:10484800006803F0C5F9054608B1284670BD002187
:10485800206802F04DFF3060F7E74FF00065F4E79D
:104868002DE9F04F87B005460C4616469B46DDF805
:1048780040A0FDF7E1FD002C36D0814695F8347054
:10488800FFB2012F40F005810023AB6306EB0B0359
:10489800EA6D93422ED8032385F834302B68002222
:1048A800DA626B6C012B00D076024FF0FF33009375
:1048B8004FEA4B230193902302930223039300238F
:1048C8000493012305936946286802F027FFBBF18A
:1048D800010F14D902232B633146286803F06EF8C0
:1048E800A0B9DDF8048038E0AB6B43F00063AB633C
:1048F8000127D3E0AB6B43F00073AB63CEE0012339
:104908002B633146286803F041F8E9E72B68654ACC
:104918009A63AB6B1843A863012385F834300023EE
:104928002B63BBE0286802F089FE2070C0F30723E0
:104938006370C0F30743A370000EE0700434A8F15D
:1049480004080136072EEDD9FDF776FDA0EB090026
:10495800504510D2BAF1000F0DD02868466B40F2CE
:104968002A331E4015D1436B13F4004FECD0B8F135
:10497800000FE9D0E6E72B684A4A9A63AB6B43F02D
:104988000043AB63012385F8343000232B630327EE
:1049980084E0436B13F4807F05D0BBF1010F02D98B
:1049A8006B6C032B38D12B685A6B12F0080F44D16B
:1049B8005A6B12F0020F4CD15A6B12F0200F54D1DF
:1049C8002868436B13F4001F5BD0B8F1000F58D070
:1049D80002F034FE2070C0F307236370C0F307436E
:1049E800A370000EE0700434A8F10408FDF724FD5C
:1049F800A0EB0900504502D2BAF1000FE0D12B68B4
:104A0800284A9A63AB6B43F00043AB63012385F8F4
:104A1800343000232B6341E003F060F8034600289C
:104A2800C1D02A681F499163AA6B1343AB63012362
:104A380085F8343000232B6330E01A4A9A63AB6B55
:104A480043F00803AB63012385F8343000232B635C
:104A580024E0144A9A63AB6B43F00203AB6301236F
:104A680085F8343000232B6318E00E4A9A63AB6B49
:104A780043F02003AB63012385F8343000232B6314
:104A88000CE040F23A538363012385F83430002761
:104A980004E0AB6B43F00053AB630127384607B023
:104AA800BDE8F08FFF0540002DE9F04F8BB00546BB
:104AB8000C4616469B46DDF850A0FDF7BDFC002CC1
:104AC80037D0804695F83470FFB2012F40F0E2806D
:104AD8000023AB6306EB0B03EA6D93422FD8032345
:104AE80085F834302B680022DA626B6C012B00D019
:104AF80076024FF0FF3304934FEA4B23059390233C
:104B080006930023079308930123099304A92868AF
:104B180002F004FEBBF1010F16D920232B633146A6
:104B2800286802F07BFF0190019BABB9DDF8149077
:104B380040E0AB6B43F00063AB630127AFE0AB6BC6
:104B480043F00073AB63AAE010232B633146286857
:104B580002F04CFF0190E7E72B68534A9A63A86B71
:104B6800019B1843A863012385F8343000232B6385
:104B780095E023780393627843EA02230393A278AB
:104B880043EA02430393E27843EA0263039304345B
:104B9800A9F1040903A9286802F053FD0136072E7C
:104BA800E7D9FDF749FCA0EB0800504510D2BAF14F
:104BB800000F0DD02868466B40F21A331E4015D1FD
:104BC800436B13F4804FECD0B9F1000FE9D0E6E75E
:104BD8002B68354A9A63A86B019B1843A863012385
:104BE80085F8343000232B63032758E0436B13F414
:104BF800807F05D0BBF1010F02D96B6C032B18D154
:104C08002B685A6B12F0080F24D15A6B12F0020F5E
:104C18002CD15A6B12F0100F34D0234A9A63AB6B25
:104C280043F01003AB63012385F8343000232B6372
:104C380035E002F053FF03460028E1D02A681A49FC
:104C48009163AA6B1343AB63012385F834300023C7
:104C58002B6324E0144A9A63AB6B43F00803AB63FD
:104C6800012385F8343000232B6318E00E4A9A6339
:104C7800AB6B43F00203AB63012385F834300023A8
:104C88002B630CE040F23A529A63012385F83430E2
:104C9800002704E0AB6B43F00053AB6301273846B1
:104CA8000BB0BDE8F08F00BFFF0540002DE9F043D1
:104CB80087B0044691B116461F460A4690F834500C
:104CC800EDB2012D7DD100238363F019E36D984285
:104CD8000AD9A36B43F00073A36373E0836B43F0BB
:104CE8000063836301256DE0032384F83430216871
:104CF8000023CB622068C16B41F49571C163216CBC
:104D080033488862216C33480863216C4B63216CFB
:104D18004B60206C01680B6823F010034068034364
:104D28000B6021684FEA47294FEA99038031206CCC
:104D3800FEF7DAF9804668BB274B0122C3F88C25B9
:104D4800636C934200D076024FF0FF330093CDF8A6
:104D580004909023029302230393002304930123D6
:104D680005936946206802F0D9FC012F22D98223D5
:104D780023633146206802F021FE38B32368174ABE
:104D88009A63A36B1843A063012384F8343000238B
:104D9800236317E02268D36B23F49573D3632368E6
:104DA8000E4A9A63A36B43F08043A363012384F8FC
:104DB800343007E0812323633146206802F0E6FDA2
:104DC800DBE70225284607B0BDE8F0834546F9E74A
:104DD80013500008C155000800003042FF0540008C
:104DE800F0B587B00446002938D01E460F4690F823
:104DF8003450EDB2012D7FD1002383639319C16D27
:104E08008B4231D8032380F8343003680021D962FB
:104E18000068C36B43F01A03C363E36B38489862B6
:104E2800E36B38481863E36B5963636C012B00D05C
:104E38005202012E1DD9A02323631146206802F0D7
:104E4800EDFDE8B12368304A9A63A36B1843A06369
:104E5800012384F83430002323634EE0836B43F04E
:104E680000638363012548E0836B43F00073836329
:104E780043E0902323631146206802F0B7FDE0E782
:104E8800224B0122C3F88C25E36B10225A60E16B98
:104E98000A68136823F0100349680B4313602268FB
:104EA8007602B30880323946E06BFEF71DF90746F3
:104EB80088B12268D36B23F01A03D3632368124A9C
:104EC8009A63A36B43F08043A363012384F83430CF
:104ED8000023236311E04FF0FF33009301969023E2
:104EE80002930023039304930123059369462068E2
:104EF80002F014FC3D4600E00225284607B0F0BD4C
:104F080051450008C1550008FF0540000000304227
:104F1800F8B590F83450EDB2012D6FD104460F4624
:104F2800164600238363914214D8C36D934216D367
:104F3800032380F83430C36C13F0200F14D10368B6
:104F4800304A9A63836B43F080638363012380F85C
:104F5800343054E0836B43F0006383634FE0836B2A
:104F680043F0007383634AE00021006802F0C0FB4D
:104F780010F0007F15D1636C012B01D07F027602FF
:104F8800032B1ED03946206802F060FDA0B12368CB
:104F98001C499963A36B0343A363012384F834304A
:104FA8002DE02368174A9A63A36B43F40063A36355
:104FB800012384F8343022E03146206802F05EFD97
:104FC80068B9206802F072FD98B123680D499963A9
:104FD800A36B0343A363012384F834300FE02368F1
:104FE80008499963A36B0343A363012384F834300E
:104FF80005E0012384F83430002500E00225284626
:10500800F8BD00BFFF054000704710B5446A236B28
:10501800822B11D02268D36A23F00803D362236855
:1050280040F23A529A63012384F834300023236310
:10503800204602F086FF10BD206802F04FFD0346AF
:105048000028E7D0A26B1343A3632046FFF7DCFFD9
:10505800E0E70000436E9B0F0B70436EC3F383635E
:105068004B7090F8673003F003038B7090F866304C
:10507800CB7090F865300B7190F864304B71836E8B
:105088001B0DCB80B0F86A3003F00F030B72836EF0
:10509800C3F3C0334B72836EC3F380338B72836E5A
:1050A800C3F34033CB72836EC3F300330B73002317
:1050B8004B73436C002B40F08680826E40F6FC7385
:1050C80003EA8203C26E43EA92730B61C36EC3F3B1
:1050D800C2630B7590F86F3003F007034B75C36E0E
:1050E800C3F342538B75C36EC3F38243CB75C36E50
:1050F800C3F3C2330B760B69013343650A7E02F0B2
:1051080007020232934043650A7A02F00F0C01222B
:1051180002FA0CF28265520A02FB03F3C3654FF4EC
:1051280000730366C36EC3F380334B76C36EC3F359
:10513800C6138B76C36E03F07F03CB76036FDB0F4A
:105148000B77036FC3F341734B77036FC3F382632A
:105158008B77036FC3F38353CB77036FC3F340534A
:1051680081F82030002381F82130B0F8722002F055
:10517800010281F82220026FC2F3C03281F8232095
:10518800026FC2F3803281F82420026FC2F34032EA
:1051980081F82520026FC2F3003281F82620026FC1
:1051A800C2F3812281F82720026FC2F3012281F81D
:1051B8002820026FC2F3460281F82920012281F8D3
:1051C8002A2018467047012B11D1836E1B0403F463
:1051D8007C13B0F86E2013430B610B6901339B02FB
:1051E8004365C3654FF40073836503669AE70368F4
:1051F800054A9A63836B43F080538363012380F8E5
:1052080034301846704700BFFF05400070B590B0B5
:1052180004460123ADF81230006802F01BFA00289A
:105228006CD0636C032B45D1636C032B5DD1636C2D
:10523800032B1DD0BDF8121021650904206802F067
:1052480022FD054600285BD10021206802F050FAB3
:1052580060660421206802F04BFAA06608212068E5
:1052680002F046FAE0660C21206802F041FA206755
:105278000421206802F03CFA000DE06405A92046EC
:10528800FFF7E8FE00283ED1226D120400232068B3
:1052980002F03EFC054698BB234653F8106B93E892
:1052A80007008DE80700043494E80E00304602F049
:1052B80059F925E0206802F0D1FC054600BB002121
:1052C800206802F015FA60670421206802F010FADD
:1052D800A0670821206802F00BFAE0670C2120681B
:1052E80002F006FAC4F880009EE70DF1120120686A
:1052F80002F06EFD0546002899D001E04FF0806568
:10530800284610B070BD4FF08055F9E770B58AB0E7
:105318000446002304930593069307930893762382
:1053280009930AAB13E907008DE8070004AB0ECB1D
:10533800206802F017F918B1012528460AB070BD97
:1053480005461A4E0023C6F8A030206802F07EF900
:105358000123C6F8A0300220FDF774F82046FFF7B5
:10536800FBF830B1012584F83450A36B0343A363E1
:10537800E3E72046FFF74AFF30B1012584F83450AF
:10538800A36B0343A363D8E74FF40071206802F0CE
:10539800E5FA0028D1D0236805499963A36B034334
:1053A800A363012584F83450C7E700BF00003042EA
:1053B800FF054000002862D010B504460268324B51
:1053C8009A4204D04FF4AC713048FCF7F2FA6368A3
:1053D80013B1B3F5005F29D1A36813B1B3F5806F9A
:1053E8002AD1E36813B1B3F5007F2BD123692BB120
:1053F800B3F5006F02D0B3F5805F29D1636913B1AB
:10540800B3F5804F2AD1A369FF2B2DD894F83430F7
:1054180083B3032384F834302046FFF777FF80BB3B
:10542800A0632063012384F8343010BD40F2591181
:105438001648FCF7BEFACFE74FF4AD711348FCF7F6
:10544800B8FACEE740F25B111048FCF7B2FACDE7A4
:105458004FF4AE710D48FCF7ACFACFE740F25D119E
:105468000A48FCF7A6FACEE74FF4AF710748FCF7F5
:10547800A0FACBE723772046FCF7BCFAC9E701205E
:1054880070470120D1E700BF0080014090710208F9
:10549800436C0B60836C4B60C36C8B60036DCB609B
:1054A800436D0B61836D4B61C36D8B61036ECB6183
:1054B8000020704730B58BB004460D4629B1B1F5D0
:1054C800006F02D0B1F5805F11D1032384F8343026
:1054D800636C032B24D0B5F5805F0ED0B5F5006F53
:1054E80010D0B5B1A36B43F00063A3631CE040F692
:1054F8008F012648FCF75DFAE7E7A36B43F080537A
:10550800A36311E02046FFF747F9A36B0343A363A6
:105518000AE02046FFF767F9A36B0343A36303E0A0
:10552800A36B43F08053A363A36BC3B12368184AEA
:105538009A63012584F834504FF40071206802F012
:105548000DFA30B1236812499963A36B0343A3632F
:105558000125012384F8343028460BB030BD636838
:105568000493A3680593E368069307956369089312
:10557800A36909930AAB13E907008DE8070004AB98
:105588000ECB206801F0EEFF0025D5E790710208E8
:10559800FF05400010B582B004460023019301A91D
:1055A800FFF748F910B1A36B0343A3630198C0F355
:1055B800432002B010BD000010B5446A236C9B6BF9
:1055C800E26B926B012B05D0012A03D02046FFF72E
:1055D8001BFD10BD23680F4A9A632268D36B23F41E
:1055E8009D73D363A36B43F08043A3632046FFF707
:1055F800D1FF0538012805D9012384F83430002368
:105608002363E3E7206802F069FAA36B0343A3630B
:10561800F2E700BFFF05400010B5446A236840F276
:105628003A529A632046FFF7B5FF012384F83430D5
:10563800002323630538012805D9A36B53B92046F5
:1056480002F075FC10BD206802F048FAA36B034312
:10565800A363F2E72046FFF7D7FCF3E710B5446AE7
:10566800236840F23A529A632046FFF793FF0123DA
:1056780084F83430002323630538012805D9A36B47
:1056880053B9204602F053FC10BD206802F026FAF8
:10569800A36B0343A363F2E72046FFF7B5FCF3E7E8
:1056A80038B50446056B03685A6B12F4004F02D0F4
:1056B80015F0080F28D15A6B12F4807F5AD04FF496
:1056C80080729A632268D36B23F4414323F03A0330
:1056D800D3632268D36A23F00103D36215F0080F5D
:1056E80026D015F0220F12D1236840F23A529A635D
:1056F800012384F834300023236315F0030F13D0FB
:10570800204602F01EFC01E0FEF786FF38BD206847
:1057180002F0E4F903460028E6D0A26B1343A36322
:105728002046FFF771FCDFE7204602F005FCEDE7B5
:1057380015F0800FEAD015F0200F0ED115F0030FE9
:10574800E4D12268D36A23F00803D362012384F8E2
:105758003430204602F0F0FBD8E7206802F0BEF9AA
:1057680003460028EAD0A26B1343A3632046FFF741
:105778004BFCE3E75A6B12F4804F02D015F0080F88
:105788004CD15A6B12F03A0FC0D05A6B12F0020F7C
:1057980003D0A26B42F00202A2635A6B12F0080F08
:1057A80003D0A26B42F00802A2635A6B12F0200FDA
:1057B80003D0A26B42F02002A2635A6B12F0100FC2
:1057C80003D0A26B42F01002A26340F23A729A63CD
:1057D8002268D36B23F44E7323F00203D36320684B
:1057E80002F07CF9A36B0343A36315F0080F19D1EA
:1057F80015F0800F8AD015F0300F1CD115F0030F6B
:1058080026D0236C174A5A63206CFDF7DFFC00286A
:105818003FF47CAF206CFFF721FF77E72046FEF7C7
:1058280017FF73E7012384F83430002323632046ED
:10583800FFF7EAFB6AE7E36B0B4A5A63E06BFDF795
:10584800C5FC00283FF462AFE06BFFF7E5FE5DE7BB
:105858000023A363012284F834202363204602F046
:1058680066FB53E76556000821560008002800F03B
:10587800048110B504460368814A93420CD0A2F50E
:105888007842934208D002F58062934204D04FF4E4
:10589800AB717C48FCF78DF8636813B1B3F5827F70
:1058A8003DD1A3682BB1B3F5806F02D0B3F5004F9B
:1058B8003BD1E368B3F5006F01D0002B3BD1A3695E
:1058C800B3F5007F03D013B1B3F5802F39D1E36965
:1058D8006BB1082B0BD0102B09D0182B07D0202B1D
:1058E80005D0282B03D0302B01D0382B2FD1236A99
:1058F8000BB1802B31D1636A002B34D1636A002B42
:1059080059D123690BB1022B33D16369012B36D8E6
:105918006368B3F5827F38D00023E3615EE040F22C
:1059280057115848FCF745F8BBE74FF4AC71554898
:10593800FCF73FF8BDE740F259115248FCF739F837
:10594800BDE74FF4AD714F48FCF733F8BFE740F2BD
:105958005B114C48FCF72DF8C9E74FF4AE71494884
:10596800FCF727F8C7E740F25F114648FCF721F833
:10597800C4E74FF4B1714348FCF71BF8C5E740F2A0
:1059880063114048FCF715F8C2E7E36933B3082B05
:1059980024D0102B22D0182B20D0202B1ED0282B1F
:1059A8001CD0302B1AD0382B18D040F2671135484C
:1059B800FBF7FFFF12E0E3696BB1082B0BD0102B4C
:1059C80009D0182B07D0202B05D0282B03D0302B3B
:1059D80001D0382B45D10023236163610023A362E2
:1059E80094F85130002B42D0022384F851302268B9
:1059F800136823F040031360636803F48273A2689A
:105A080002F404421343E26802F400621343226979
:105A180002F002021343626902F001021343A26911
:105A280002F400721343E26902F038021343226A57
:105A380002F080021343A26A02F400522168134361
:105A48000B60638B226803F0040353602268D369F8
:105A580023F40063D36100206065012384F851308A
:105A680010BD40F271110748FBF7A3FFB3E784F8B4
:105A780050302046FCF7B4F8B6E70120704700BF65
:105A880000300140F071020810B4036A046A24F07F
:105A980001040462846924F0F00C4CEA021223F039
:105AA8000A030B438261036210BC704710B4036A97
:105AB800046A24F010040462846924F4704C4CEAEB
:105AC800023223F0A00343EA01138261036210BC8F
