:020000040800F2
:1000000000C0002049220008811B0008831B000853
:10001000851B0008871B0008891B000800000000E2
:100020000000000000000000000000008B1B000822
:100030008D1B0008000000008F1B0008911B0008AA
:1000400091220008912200089122000891220008C4
:100050009122000891220008991B000891220008B3
:10006000A31B0008AD1B0008912200089122000884
:100070009122000891220008912200089122000894
:100080009122000891220008912200089122000884
:100090009122000891220008912200089122000874
:1000A0009122000891220008912200089122000864
:1000B0009122000891220008B91B00089122000833
:1000C0009122000891220008912200089122000844
:1000D00091220008C91B000891220008D91B0008C2
:1000E0009122000891220008912200089122000824
:1000F0009122000891220008912200089122000814
:1001000091220008E91B00089122000891220008B2
:100110009122000891220008F91B0008091C000820
:10012000912200089122000891220008191C000861
:1001300000000000000000000000000000000000BF
:1001400000000000000000000000000000000000AF
:10015000000000000000000000000000000000009F
:10016000000000000000000000000000000000008F
:10017000000000000000000000000000000000007F
:10018000000000000000000000000000000000006F
:10019000000000000000000000000000000000005F
:1001A000000000000000000000000000000000004F
:1001B000000000000000000000000000000000003F
:1001C000000000000000000000000000000000002F
:1001D000000000000000000000000000000000001F
:0401E0005FF8E0F1F3
:1001E80010B5054C237833B9044B13B10448AFF369
:1001F80000800123237010BDA80C0020000000001F
:100208002CB3020808B5034B1BB103490348AFF3ED
:10021800008008BD00000000AC0C00202CB30208D0
:100228004FF0FF0C1CEAD0521EBF1CEAD15392EAD1
:100238000C0F93EA0C0F6FD01A4480EA010C4002AD
:1002480018BF5FEA41211ED04FF0006343EA501007
:1002580043EA5111A0FB01310CF00040B1F5000F49
:100268003EBF490041EAD3715B0040EA010062F1F8
:100278007F02FD2A1DD8B3F1004F40EBC25008BFE2
:1002880020F00100704790F0000F0CF0004C08BF00
:1002980049024CEA502040EA51207F3AC2BFD2F1CD
:1002A800FF0340EAC250704740F400004FF00003DB
:1002B800013A5DDC12F1190FDCBF00F00040704715
:1002C800C2F10002410021FA02F1C2F1200200FA53
:1002D80002FC5FEA310040F1000053EA4C0308BF1A
:1002E80020EADC70704792F0000F00F0004C02BF6B
:1002F800400010F4000F013AF9D040EA0C0093F0E6
:10030800000F01F0004C02BF490011F4000F013B3F
:10031800F9D041EA0C018FE70CEAD15392EA0C0FAD
:1003280018BF93EA0C0F0AD030F0004C18BF31F018
:10033800004CD8D180EA010000F00040704790F0EE
:10034800000F17BF90F0004F084691F0000F91F092
:10035800004F14D092EA0C0F01D142020FD193EA58
:100368000C0F03D14B0218BF084608D180EA0100E0
:1003780000F0004040F0FE4040F40000704740F0BC
:10038800FE4040F44000704781F0004102E000BFA9
:1003980083F0004330B54FEA41044FEA430594EA3D
:1003A800050F08BF90EA020F1FBF54EA000C55EA78
:1003B800020C7FEA645C7FEA655C00F0E2804FEA49
:1003C8005454D4EB5555B8BF6D420CDD2C4480EA2B
:1003D800020281EA030382EA000083EA010180EA5B
:1003E800020281EA0303362D88BF30BD11F0004FA9
:1003F8004FEA01314FF4801C4CEA113102D04042DF
:1004080061EB410113F0004F4FEA03334CEA133319
:1004180002D0524263EB430394EA050F00F0A78031
:10042800A4F10104D5F1200E0DDB02FA0EFC22FA2C
:1004380005F2801841F1000103FA0EF2801843FA20
:1004480005F359410EE0A5F120050EF1200E012A11
:1004580003FA0EFC28BF4CF0020C43FA05F3C0184F
:1004680051EBE37101F0004507D54FF0000EDCF1C8
:10047800000C7EEB00006EEB0101B1F5801F1BD371
:10048800B1F5001F0CD349085FEA30004FEA3C0C75
:1004980004F101044FEA445212F5800F80F09A806B
:1004A800BCF1004F08BF5FEA500C50F1000041EB6F
:1004B800045141EA050130BD5FEA4C0C404141EB73
:1004C8000101013C28BFB1F5801FE9D291F0000F6E
:1004D80004BF01460020B1FA81F308BF2033A3F11D
:1004E8000B03B3F120020CDA0C3208DD02F1140C14
:1004F800C2F10C0201FA0CF021FA02F10CE002F14F
:100508001402D8BFC2F1200C01FA02F120FA0CFC47
:10051800DCBF41EA0C019040E41AA2BF01EB045190
:10052800294330BD6FEA04041F3C1CDA0C340EDC8E
:1005380004F11404C4F1200220FA04F001FA02F3D1
:1005480040EA030021FA04F345EA030130BDC4F18F
:100558000C04C4F1200220FA02F001FA04F340EA84
:100568000300294630BD21FA04F0294630BD94F035
:10057800000F83F4801306BF81F480110134013D1C
:100588004EE77FEA645C18BF7FEA655C29D094EA8D
:10059800050F08BF90EA020F05D054EA000C04BF0B
:1005A8001946104630BD91EA030F1EBF00210020F6
:1005B80030BD5FEA545C05D14000494128BF41F095
:1005C800004130BD14F580043CBF01F5801130BDF9
:1005D80001F0004545F0FE4141F470014FF0000084
:1005E80030BD7FEA645C1ABF194610467FEA655C35
:1005F8001CBF0B46024650EA013406BF52EA0335D7
:1006080091EA030F41F4002130BD00BF90F0000FC4
:1006180004BF0021704730B54FF4806404F1320400
:100628004FF000054FF0000150E700BF90F0000FB9
:1006380004BF0021704730B54FF4806404F13204E0
:1006480010F0004548BF40424FF000013EE700BFB0
:1006580042004FEAE2014FEA31014FEA02701FBF40
:1006680012F07F4393F07F4F81F06051704732F072
:100678007F4208BF704793F07F4F04BF41F40021C9
:10068800704730B54FF4607401F0004521F0004127
:100698001CE700BF50EA010208BF704730B54FF0B1
:1006A80000050AE050EA010208BF704730B511F0B2
:1006B800004502D5404261EB41014FF4806404F1EA
:1006C80032045FEA915C3FF4D8AE4FF003025FEA70
:1006D800DC0C18BF03325FEADC0C18BF033202EBF4
:1006E800DC02C2F1200300FA03FC20FA02F001FA4E
:1006F80003FE40EA0E0021FA02F11444BDE600BFF1
:1007080070B54FF0FF0C4CF4E06C1CEA11541DBF9F
:100718001CEA135594EA0C0F95EA0C0F00F0DEF86A
:100728002C4481EA030621EA4C5123EA4C5350EA4F
:10073800013518BF52EA033541F4801143F48013A0
:1007480038D0A0FB02CE4FF00005E1FB02E506F031
:100758000042E0FB03E54FF00006E1FB03569CF086
:10076800000F18BF4EF0010EA4F1FF04B6F5007F8C
:1007780064F5407404D25FEA4E0E6D4146EB0606FE
:1007880042EAC62141EA55514FEAC52040EA5E5087
:100798004FEACE2EB4F1FD0C88BFBCF5E06F1ED831
:1007A800BEF1004F08BF5FEA500E50F1000041EB68
:1007B800045170BD06F0004646EA010140EA020015
:1007C80081EA0301B4EB5C04C2BFD4EB0C0541EA37
:1007D800045170BD41F480114FF0000E013C00F34C
:1007E800AB8014F1360FDEBF002001F0004170BD70
:1007F800C4F10004203C35DA0C341BDC04F1140489
:10080800C4F1200500FA05F320FA04F001FA05F214
:1008180040EA020001F0004221F0004110EBD370E1
:1008280021FA04F642EB06015EEA430E08BF20EA0D
:10083800D37070BDC4F10C04C4F1200500FA04F3B0
:1008480020FA05F001FA04F240EA020001F0004142
:1008580010EBD37041F100015EEA430E08BF20EAB5
:10086800D37070BDC4F1200500FA05F24EEA020EFD
:1008780020FA04F301FA05F243EA020321FA04F02C
:1008880001F0004121FA04F220EA020000EBD370E3
:100898005EEA430E08BF20EAD37070BD94F0000FE3
:1008A8000FD101F00046400041EB010111F4801F17
:1008B80008BF013CF7D041EA060195F0000F18BFC8
:1008C800704703F00046520043EB030313F4801F04
:1008D80008BF013DF7D043EA0603704794EA0C0FBE
:1008E8000CEA135518BF95EA0C0F0CD050EA4106D4
:1008F80018BF52EA4306D1D181EA030101F0004151
:100908004FF0000070BD50EA410606BF1046194678
:1009180052EA430619D094EA0C0F02D150EA013684
:1009280013D195EA0C0F05D152EA03361CBF1046C5
:1009380019460AD181EA030101F0004141F0FE4164
:1009480041F470014FF0000070BD41F0FE4141F4E8
:10095800780170BD70B54FF0FF0C4CF4E06C1CEAE8
:1009680011541DBF1CEA135594EA0C0F95EA0C0F9D
:1009780000F0A7F8A4EB050481EA030E52EA033558
:100988004FEA013100F088804FEA03334FF0805579
:1009980045EA131343EA12634FEA022245EA1115A6
:1009A80045EA10654FEA00260EF000419D4208BF57
:1009B800964244F1FD0404F5407402D25B084FEA04
:1009C8003202B61A65EB03055B084FEA32024FF4B0
:1009D80080104FF4002CB6EB020E75EB030E22BF0D
:1009E800B61A754640EA0C005B084FEA3202B6EBCD
:1009F800020E75EB030E22BFB61A754640EA5C007C
:100A08005B084FEA3202B6EB020E75EB030E22BF0B
:100A1800B61A754640EA9C005B084FEA3202B6EB0C
:100A2800020E75EB030E22BFB61A754640EADC00CB
:100A380055EA060E18D04FEA051545EA16754FEA2D
:100A480006164FEAC30343EA52734FEAC2025FEA4B
:100A58001C1CC0D111F4801F0BD141EA00014FF0DA
:100A680000004FF0004CB6E711F4801F04BF0143AB
:100A78000020B4F1FD0C88BFBCF5E06F3FF6AFAEC7
:100A8800B5EB030C04BFB6EB020C5FEA500C50F157
:100A9800000041EB045170BD0EF0004E4EEA1131DA
:100AA80014EB5C04C2BFD4EB0C0541EA045170BDE1
:100AB80041F480114FF0000E013C90E645EA060E25
:100AC8008DE60CEA135594EA0C0F08BF95EA0C0F53
:100AD8003FF43BAF94EA0C0F0AD150EA01347FF49B
:100AE80034AF95EA0C0F7FF425AF104619462CE772
:100AF80095EA0C0F06D152EA03353FF4FDAE1046D5
:100B0800194622E750EA410618BF52EA43067FF425
:100B1800C5AE50EA41047FF40DAF52EA43057FF4B5
:100B2800EBAE12E74FEA4102B2F1E04324BFB3F55E
:100B3800001CDCF1FE5C0DD901F0004C4FEAC0024C
:100B48004CEA5070B2F1004F40EB830008BF20F030
:100B58000100704711F0804F21D113F13872BCBFEA
:100B680001F00040704741F480114FEA5252C2F13F
:100B78001802C2F1200C10FA0CF320FA02F018BF88
:100B880040F001004FEAC1234FEAD32303FA0CFCDB
:100B980040EA0C0023FA02F34FEA4303CCE77FEA6A
:100BA800625307D150EA01331EBF4FF0FE4040F4B4
:100BB8004000704701F0004040F0FE4040F4000063
:100BC800704700BF80F0004002E000BF81F00041A4
:100BD80042001FBF5FEA410392EA030F7FEA226CDB
:100BE8007FEA236C6AD04FEA1262D2EB1363C1BF6B
:100BF800D218414048404140B8BF5B42192B88BFDA
:100C0800704710F0004F40F4000020F07F4018BFFC
:100C1800404211F0004F41F4000121F07F4118BF1C
:100C2800494292EA030F3FD0A2F1010241FA03FCC4
:100C380010EB0C00C3F1200301FA03F100F00043AC
:100C480002D5494260EB4000B0F5000F13D3B0F174
:100C5800807F06D340084FEA310102F10102FE2AE3
:100C680051D2B1F1004F40EBC25008BF20F0010053
:100C780040EA03007047490040EB0000013A28BFF2
:100C8800B0F5000FEDD2B0FA80FCACF1080CB2EB75
:100C98000C0200FA0CF0AABF00EBC25052421843F3
:100CA800BCBFD0401843704792F0000F81F4000198
:100CB80006BF80F400000132013BB5E74FEA41036B
:100CC8007FEA226C18BF7FEA236C21D092EA030FD7
:100CD80004D092F0000F08BF0846704790EA010F51
:100CE8001CBF0020704712F07F4F04D1400028BF7E
:100CF80040F00040704712F100723CBF00F5000060
:100D0800704700F0004343F0FE4040F40000704795
:100D18007FEA226216BF08467FEA23630146420241
:100D280006BF5FEA412390EA010F40F48000704754
:100D38004FF0000304E000BF10F0004348BF4042FA
:100D48005FEA000C08BF704743F0964301464FF036
:100D580000001CE050EA010208BF70474FF0000392
:100D68000AE000BF50EA010208BF704711F00043D3
:100D780002D5404261EB41015FEA010C02BF8446A3
:100D88000146002043F0B64308BFA3F18053A3F502
:100D98000003BCFA8CF2083AA3EBC25310DB01FA49
:100DA80002FC634400FA02FCC2F12002BCF1004FCD
:100DB80020FA02F243EB020008BF20F0010070475E
:100DC80002F1200201FA02FCC2F1200250EA4C00B2
:100DD80021FA02F243EB020008BF20EADC707047F8
:100DE8004FF0FF3C06E000BF4FF0010C02E000BFEF
:100DF8004FF0010C4DF804CD4FEA40024FEA410391
:100E08007FEA226C18BF7FEA236C11D001B052EA46
:100E1800530C18BF90EA010F58BFB2EB030088BF0C
:100E2800C81738BF6FEAE17018BF40F0010070477B
:100E38007FEA226C02D15FEA402C05D17FEA236C5D
:100E4800E4D15FEA412CE1D05DF8040B704700BFA4
:100E5800844608466146FFE70FB5FFF7C9FF00283B
:100E680048BF10F1000F0FBD4DF808EDFFF7F4FF74
:100E78000CBF012000205DF808FB00BF4DF808ED0D
:100E8800FFF7EAFF34BF012000205DF808FB00BF30
:100E98004DF808EDFFF7E0FF94BF012000205DF852
:100EA80008FB00BF4DF808EDFFF7D2FF94BF012003
:100EB80000205DF808FB00BF4DF808EDFFF7C8FFFC
:100EC80034BF012000205DF808FB00BF42000ED2AD
:100ED800B2F1FE4F0BD34FF09E03B3EB126209D46D
:100EE8004FEA002343F0004323FA02F070474FF023
:100EF8000000704712F1610F01D1420202D14FF098
:100F0800FF3070474FF00000704700BF53B94AB92F
:100F1800002908BF00281CBF4FF0FF314FF0FF30F9
:100F280000F076B9ADF1080C6DE904CE00F006F8D2
:100F3800DDF804E0DDE9022304B070472DE9F0474D
:100F4800089E0D4604468846002B4DD18A42944699
:100F580068D9B2FA82F252B101FA02F3C2F1200161
:100F680020FA01F10CFA02FC41EA030894404FEA26
:100F78001C41B8FBF1F71FFA8CFE01FB178807FB31
:100F88000EF0230C43EA084398420AD91CEB0303EA
:100F980007F1FF3580F01E81984240F21B81023F25
:100FA80063441B1AB3FBF1F001FB103300FB0EFE88
:100FB800A4B244EA0344A6450AD91CEB040400F190
:100FC800FF3380F00981A64540F206816444023867
:100FD8000021A4EB0E0440EA07401EB10023D440D0
:100FE800C6E90043BDE8F0878B4208D9002E00F01F
:100FF800EE800021C6E900050846BDE8F087B3FA8F
:1010080083F100294AD1AB4202D3824200F2FC802C
:10101800841A65EB030301209846002EE2D0C6E946
:101028000048DFE702B9FFDEB2FA82F2002A40F098
:101038009180A1EB0C0001214FEA1C471FFA8CFE9E
:10104800B0FBF7F307FB1300250C45EA00450EFB40
:1010580003F0A84208D91CEB050503F1FF3802D2BA
:10106800A84200F2CE8043462D1AB5FBF7F007FBE5
:1010780010550EFB00FEA4B244EA0544A64508D963
:101088001CEB040400F1FF3502D2A64500F2B6803D
:101098002846A4EB0E0440EA03409EE7C1F120076E
:1010A8008B4022FA07FC4CEA030C25FA07FA4FEAB0
:1010B8001C49BAFBF9F820FA07F309FB18AA8D4076
:1010C8001FFA8CFE1D4300FA01F308FB0EF02C0CEE
:1010D80044EA0A44A04202FA01F20BD91CEB0404C8
:1010E80008F1FF3A80F08880A04240F28580A8F19C
:1010F80002086444241AB4FBF9F009FB104400FB0D
:101108000EFEADB245EA0444A64508D91CEB04041A
:1011180000F1FF356CD2A6456AD90238644440EA2A
:101128000840A0FB0295A4EB0E04AC42C846AE46AC
:1011380056D353D0002E69D0B3EB080264EB0E04EB
:1011480022FA01F304FA07F71F43CC40C6E90074FA
:10115800002147E70CFA02FCC2F1200125FA01F34D
:101168004FEA1C4720FA01F195400D43B3FBF7F114
:1011780007FB11331FFA8CFE280C40EA034001FBE1
:101188000EF3834204FA02F408D91CEB000001F1C3
:10119800FF382FD283422DD902396044C01AB0FBE0
:1011A800F7F307FB1300ADB245EA004503FB0EF069
:1011B800A84208D91CEB050503F1FF3816D2A8424E
:1011C80014D9023B6544281A43EA014138E73146FD
:1011D800304607E72F46E4E61846F9E64B45A9D21C
:1011E800B9EB020865EB0C0E0138A3E74346EAE7C2
:1011F800284694E74146D1E7D0467BE76444023865
:1012080047E7023B65442FE7084606E73146E9E62B
:10121800704700BF844641EA000313F0030349D135
:10122800403A23D30B6803604B6843608B68836044
:10123800CB68C3600B6903614B6943618B69836148
:10124800CB69C3610B6A03624B6A43628B6A836230
:10125800CB6AC3620B6B03634B6B43638B6B836318
:10126800CB6BC36340304031403ADBD230320BD3D2
:101278000B6803604B6843608B688360CB68C3600E
:1012880010301031103AF3D20C3205D351F8043B28
:1012980040F8043B043AF9D2043208D0D2071CBF04
:1012A80011F8013B00F8013B01D30B88038060462D
:1012B800704700BF082A13D38B07B1D010F003037F
:1012C800AED0C3F10403D21ADB071CBF11F8013BEF
:1012D80000F8013BA4D331F8023B20F8023B9FE71A
:1012E800043AD9D3013A11F8013B00F8013BF9D28D
:1012F8000B7803704B7843708B7883706046704727
:1013080080EA010C1CF0030F37D110F0030C20F019
:10131800030021F0030150F8042B08BF51F8043BE7
:101328000ED08CF0030C6FF07F434FEACC0C23FAFD
:101338000CFC51F8043B42EA0C0243EA0C0300BFE0
:10134800A2F1013C9A4201BF2CEA020C1CF0803F3A
:1013580050F8042B51F8043BF2D04FEA02604FEAF0
:101368001222012828BFB0EB036F08BF1B0AF4D074
:1013780003F0FF03000EC01A704710F0030F0AD0E5
:1013880010F8012B11F8013B012A28BF9A42F4D02A
:10139800A2EB030070474DF8045D50F8042B01F0F0
:1013A800030521F0030151F8043B022D26D04DD846
:1013B80022F07F45B5EB132FA2F1013C2CEA020C79
:1013C8000DD11CF0803C08BF51F8043B0AD185EAD6
:1013D8000205B5EB036F0CD150F8042BE8E74FEA90
:1013E80013235BE03CF07F4C54D10B784FEA126535
:1013F80054E04FEA126503F0FF034FE04FEA02455D
:10140800A2F1013C4FEA15452CEA020CB5EB134F4B
:1014180018D11CF0803C08BF51F8043B07D185EA7D
:101428000205B5EB034F09D150F8042BE6E75FEA54
:101438000C4C2FD10B884FEA12452FE04FEA03439B
:101448004FEA12454FEA134328E000BF02F0FF05B8
:10145800B5EB136FA2F1013C2CEA020C0DD11CF084
:10146800803C08BF51F8043B0AD185EA0205B5EB78
:10147800032F0AD150F8042BE8E74FEA13630DE075
:1014880012F0FF0F06D051F8043B4FEA122523F063
:101498007F4303E04FF0000020BC704705F0FF02D7
:1014A80003F0FF00012828BF904204BF2D0A1B0A41
:1014B800F4D0A2EB000020BC704700BF4FF0FF3C07
:1014C80006E000BF4FF0010C02E000BF4FF0010C36
:1014D8004DF804CD4FEA410C7FEA6C5C4FEA430CAF
:1014E80018BF7FEA6C5C1BD001B050EA410C0CBFFE
:1014F80052EA430C91EA030F02BF90EA020F002060
:10150800704710F1000F91EA030F58BF994208BFC6
:1015180090422CBFD8176FEAE37040F00100704783
:101528004FEA410C7FEA6C5C02D150EA013C07D1DA
:101538004FEA430C7FEA6C5CD6D152EA033CD3D025
:101548005DF8040B704700BF8446104662468C461F
:101558001946634600E000BF01B5FFF7B7FF002852
:1015680048BF10F1000F01BD4DF808EDFFF7F4FF7B
:101578000CBF012000205DF808FB00BF4DF808ED06
:10158800FFF7EAFF34BF012000205DF808FB00BF29
:101598004DF808EDFFF7E0FF94BF012000205DF84B
:1015A80008FB00BF4DF808EDFFF7CEFF94BF012000
:1015B80000205DF808FB00BF4DF808EDFFF7C4FFF9
:1015C80034BF012000205DF808FB00BF4FEA410C42
:1015D8007FEA6C5C02D150EA013C0AD14FEA430C25
:1015E8007FEA6C5C02D152EA033C02D14FF0000062
:1015F80070474FF0010070474FEA410212F50012A0
:1016080015D211D56FF47873B3EB625212D94FEA41
:10161800C12343F0004343EA505311F0004F23FA2B
:1016280002F018BF404270474FF00000704750EA80
:10163800013005D111F0004008BF6FF0004070473D
:101648004FF00000704700BF00B585B0002301933C
:10165800029303931E481F4A02604FF4807282600F
:1016680003730122027582614FF46022C2614360F4
:101678000323036101F0B4F8E8B90123019302934D
:101688000723039301A9124800F024FFB0B90223ED
:101698000193029301A90E4800F01CFF88B90623A4
:1016A80001930323029301A9094800F013FF58B9D5
:1016B80005B05DF804FB00F00BF9DEE700F008F96F
:1016C800E5E700F005F9EAE700F002F9F0E700BF06
:1016D800C40C00200024014000B587B00023029309
:1016E8000393049305930268114B9A4202D007B002
:1016F8005DF804FB03F56C439A6942F400729A6141
:101708009A6902F400720092009A9A6942F00402FF
:101718009A619B6903F004030193019B462302939A
:101728000323039302A9034801F076FCDFE700BF17
:10173800002401400008014000B583B00A4B5A69F3
:1017480042F002025A615B6903F002030193019BB4
:10175800002206213B2001F069F93B2001F09EF9A7
:1017680003B05DF804FB00BF001002402DE9F0470C
:101778008AB0002406940794089409944D4B9A69FA
:1017880042F010029A619A6902F010020192019ADD
:101798009A6942F004029A619A6902F0040202927C
:1017A800029A9A6942F040029A619A6902F04002EC
:1017B8000392039A9A6942F008029A619A6902F0C0
:1017C80008020492049A9A6942F020029A619B697D
:1017D80003F020030593059BDFF8DCA022464FF4B5
:1017E8004041504601F03FFDDFF8D09022464FF4CB
:1017F8002A41484601F037FDDFF8C48022464FF4FD
:101808000071404601F02FFD092606962D4B0793DF
:1018180008942D4F06A9384601F0FEFB02250695CF
:101828000794089406A9384601F0F6FB04230693AA
:10183800264B0793089406A9384601F0EDFB4FF4B0
:1018480040430693012707970894099506A950462F
:1018580001F0E2FB4FF42A43069307970894099591
:1018680006A9484601F0D8FB4FF400730693079782
:101878000894099506A9404601F0CEFB2246214668
:10188800062001F0D3F8062001F008F92246214687
:10189800082001F0CBF8082001F000F92246214683
:1018A800304601F0C3F8304601F0F8F80AB0BDE858
:1018B800F08700BF001002400018014000140140EA
:1018C800000C014000002110001001400000311000
:1018D80072B6FEE700B597B0282200210CA823F0C5
:1018E8008FFE00230793089309930A930B930193A0
:1018F8000293039304930593069301220C924FF4E9
:1019080080330D9310920222139214934FF4E01334
:1019180015930CA801F0DAFCC8B90F23079302212C
:101928000891002309934FF480620A920B9307A849
:1019380001F0FEFE68B9022301934FF400430393BC
:1019480001A801F0D1FF30B917B05DF804FBFFF72B
:10195800BFFFFFF7BDFFFFF7BBFF000008B50F484B
:101968000F4B0360002343608360C3604FF4006241
:101978000261436108228261036102F017FE30B9F7
:101988004FF40061054802F03FFE18B908BDFFF7A3
:101998009FFFF5E7FFF79CFFF8E700BF380D002031
:1019A8000080014070B588B0002304930593069326
:1019B800079302682C4B9A4201D008B070BD0446C8
:1019C80003F510435A6942F480625A615A6902F475
:1019D80080620192019A9A6942F010029A619A69AA
:1019E80002F010020292029A9A6942F020029A6169
:1019F8009B6903F020030393039B4FF4F85304936C
:101A0800022605960325079504A9184801F004FB4A
:101A1800042304930596079504A9154801F0FCFAD8
:101A28001448154B03600023436083608022C26022
:101A38004FF4007202614FF4006242618361C36136
:101A480001F04EF860B90B4B23645C62E36300223B
:101A58000521312000F0EAFF312001F01FF8ACE742
:101A6800FFF736FFEFE700BF00800140001001409C
:101A780000140140F40C00204404024008B50D484D
:101A88000D4B03604FF48273436000238360C3608F
:101A9800036143614FF400728261C3610362436270
:101AA80083620A23C36202F04BFF00B908BDFFF747
:101AB8000FFFFBE7BC0D00200038004010B586B0D2
:101AC800002302930393049305930268174B9A42E9
:101AD80001D006B010BD03F5EC33DA6942F4804258
:101AE800DA61DA6902F480420092009A9A6942F057
:101AF80008029A619B6903F008030193019B4FF464
:101B0800204302930223039303230593084C02A95D
:101B1800204601F081FA4FF4804302930023039397
:101B2800049302A9204601F077FAD2E70038004072
:101B3800000C014082B00E4B9A6942F001029A6192
:101B48009A6902F001020092009ADA6942F0805222
:101B5800DA61DB6903F080530193019B054A5368FE
:101B680023F0E06343F00073536002B0704700BF96
:101B78000010024000000140FEE7FEE7FEE7FEE736
:101B8800FEE770477047704708B500F0B7FB08BD1F
:101B980008B5012001F076FB08BD08B5042001F066
:101BA80071FB08BD08B5082001F06CFB08BD0000FA
:101BB80008B5024803F022F808BD00BFA80E0020AF
:101BC80008B5024803F0A6FD08BD00BF800F00203D
:101BD80008B5024803F09EFD08BD00BFC80F0020ED
:101BE80008B5024802F0C6FD08BD00BF380D002048
:101BF80008B5024803F002F808BD00BFF00E002047
:101C080008B5024802F0FAFF08BD00BF380F0020EF
:101C180008B5024801F08AF808BD00BFF40C00209E
:101C28000120704708B523F0BDF9162303604FF073
:101C3800FF3008BD08B54FF0FF31FFF7F3FFFEE7AF
:101C480070B50C461646002506E0AFF30080214625
:101C580001F8010B01350C46B542F6DB304670BD84
:101C680070B50C461646002504E014F8010B22F066
:101C78006FFC0135B542F8DB304670BD4FF0FF30E0
:101C880070474FF400534B600020704701207047A5
:101C98000020704710B503460C4A0D490D480068EE
:101CA80040B10C4800680344521A934206D8094AC6
:101CB800136010BD0748084C0460F2E723F072F97E
:101CC8000C2303604FF0FF30F3E700BF00C0002093
:101CD80000200000140E00209864002070470000C7
:101CE80000B587B0002302930393049305930093F0
:101CF80001931648164A026041F61F42426083600B
:101D080040F2E732C26003618023836103F080F808
:101D180090B94FF48053029302A90C4803F082F95A
:101D280068B90023009301936946084803F082FAD2
:101D380040B907B05DF804FBFFF7CAFDE9E7FFF714
:101D4800C7FDEEE7FFF7C4FDF3E700BFA80E0020CC
:101D58000008004000B583B00023009301931048A9
:101D6800104A026041F61F424260836040F2E73346
:101D7800C3608023836103F04BF850B900230093BC
:101D880001936946064803F055FA28B903B05DF88F
:101D980004FBFFF79DFDF1E7FFF79AFDF6E700BFAB
:101DA800F00E00200010004000B583B0002300931F
:101DB80001931048104A026041F61F424260836056
:101DC80040F2E733C3608023836103F021F850B900
:101DD8000023009301936946064803F02BFA28B9BB
:101DE80003B05DF804FBFFF773FDF1E7FFF770FD43
:101DF800F6E700BF380F00200014004082B00368E7
:101E08000E4A934204D00E4A93420CD002B0704757
:101E18000C4B9A6942F400629A619B6903F400636F
:101E28000093009BF2E7074BDA6942F00202DA619D
:101E3800DB6903F002030193019BE7E7002C0140F3
:101E4800000400400010024000B585B00368224A33
:101E5800934208D0214A934218D0214A934228D06D
:101E680005B05DF804FB1F4BDA6942F00402DA6141
:101E7800DB6903F004030193019B002211461E2035
:101E880000F0D4FD1E2000F009FEE9E7154BDA69E1
:101E980042F01002DA61DB6903F010030293029B3F
:101EA80000221146362000F0C1FD362000F0F6FD74
:101EB800D6E70C4BDA6942F02002DA61DB6903F0FD
:101EC80020030393039B00220421372000F0AEFD7A
:101ED800372000F0E3FDC3E7000800400010004091
:101EE800001400400010024000B587B000230293A0
:101EF80003930493059303681F4A934205D01F4A2E
:101F080093421ED007B05DF804FB1D4B9A6942F05E
:101F180040029A619B6903F040030093009B4FF4D1
:101F28000073029302230393059302A9154801F055
:101F380073F8154A536843F0E06343F0C0035360F5
:101F4800E0E70F4B9A6942F010029A619B6903F02F
:101F580010030193019BC02302930223039305936B
:101F680002A90A4801F058F8074A536843F0E063A9
:101F780043F440635360C5E7002C0140000400406F
:101F8800001002400018014000000140001001400C
:101F980010B592B000241094119409940A940B94EB
:101FA8000C940D940E940F942022214601A823F03E
:101FB80027FB2348234B036040F2CF234360846010
:101FC80040F2E733C36004614461846102F04CFF6E
:101FD800002829D100231093119310A9184803F061
:101FE80029F920BB6023099300220A920B920C92D4
:101FF8000D920E920F9209A9114802F099FFC8B9E3
:102008000023019302930393049305934FF4005222
:102018000692089301A90A4803F04AF968B90848E2
:10202800FFF762FF12B010BDFFF752FCD2E7FFF7CF
:102038004FFCD7E7FFF74CFCE2E7FFF749FCEEE778
:10204800180E0020002C014000B58BB00023089327
:1020580009930193029303930493059306930793BB
:102068001C481D4A0260472242608360FF22C2600A
:102078000361836102F0F8FEF8B90023089309931D
:1020880008A9144803F0D6F8D0B9602301930022B8
:1020980002920392059201A90E4802F049FF90B9F5
:1020A80004220DEB02010B4802F042FF70B9094807
:1020B800FFF71AFF0BB05DF804FBFFF709FCDCE73C
:1020C800FFF706FCE1E7FFF703FCE9E7FFF700FC91
:1020D800EDE700BF600E00200004004008B50A4884
:1020E8000A4B03604FF4E133436000238360C3600D
:1020F80003610C2242618361C36103F0F1F900B905
:1021080008BDFFF7E5FBFBE7800F00200038014022
:1021180008B50A480A4B03604FF4E13343600023D3
:102128008360C36003610C2242618361C36103F071
:10213800D7F900B908BDFFF7CBFBFBE7C80F0020B4
:102148000048004030B589B00023049305930693F6
:1021580007930368354A934204D0354A934233D0F3
:1021680009B030BD334B9A6942F480429A619A694A
:1021780002F480420092009A9A6942F004029A613D
:102188009B6903F004030193019B4FF400730493CC
:102198000223059303230793274D04A9284600F03B
:1021A8003BFF4FF48063049300240594069404A92C
:1021B800284600F031FF22462146252000F036FC53
:1021C800252000F06BFCCBE71A4BDA6942F4802239
:1021D800DA61DA6902F480220292029A9A6942F07C
:1021E80008029A619B6903F008030393039B4FF469
:1021F8008063049302230593032307930F4D04A9D7
:10220800284600F009FF4FF4006304930024059466
:10221800069404A9284600F0FFFE224621462720FE
:1022280000F004FC272000F039FC99E70038014051
:10223800004800400010024000080140000C014026
:10224800FFF74CFD0B480C490C4A002302E0D45818
:10225800C4500433C4188C42F9D3094A094C0023EA
:1022680001E013600432A242FBD322F0B5FE22F053
:1022780097FA704700000020A80C0020287A03086D
:10228800A80C002098640020FEE7000010B5044662
:102298000E4B18784FF47A73B3FBF0F30C4A1068BE
:1022A800B0FBF3F000F008FC68B90F2C01D901204D
:1022B8000AE0002221464FF0FF3000F0B7FB054B43
:1022C8001C60002000E0012010BD00BF04000020B9
:1022D800000000200800002008B5074A136843F0F2
:1022E80010031360032000F08FFB0F20FFF7CEFFD1
:1022F800FFF720FC002008BD00200240034A1168B7
:10230800034B1B780B441360704700BF101000206C
:1023180004000020014B1868704700BF101000200F
:1023280038B50446FFF7F6FF0546B4F1FF3F02D083
:10233800044B1B781C44FFF7EDFF401BA042FAD367
:1023480038BD00BF04000020F0B583B005460C4638
:1023580000230193FFF7DEFF2B689A6812F4807F51
:1023680023D107465A6812F4807F03D1DB6A13F43D
:10237800700F29D0504B1E68022001F041FBB6FBBC
:10238800F0F62B6819694D4A114236D1D96802F125
:102398005C42114231D11969494A114240D1DA6887
:1023A800484B1A423ED0292041E0AB6A43F0200353
:1023B800AB62002385F82430012003B0F0BD2B6800
:1023C8001B6813F0020F0FD02B681B6813F0020F65
:1023D8004FD1B4F1FF3FF7D0002CF0D0FFF79AFFB0
:1023E800C31BA342F0D9EAE7AB6A43F00403AB622C
:1023F800002385F824300320DFE71969304A1142A9
:1024080004D1D96802F16E4211420DD019692E4AE1
:102418000A405AB9DA682C4B13405BB1FC2006E03D
:10242800292004E0142002E0542000E0FC2000FBF6
:1024380006F607E05420FAE7019BB34210D3019B4C
:1024480001330193019BB34213D2B4F1FF3FF6D09D
:10245800002CF1D0FFF75EFFC01BA042EFD9EBE7DD
:10246800AB6A43F00403AB62002385F824300320F1
:10247800A3E72B686FF012021A60AB6A43F400738B
:10248800AB622B689B6803F46023B3F5602F01D01F
:10249800002092E7287B60B9AB6A23F48073AB62B3
:1024A800AB6A13F4805F88D1AB6A43F00103AB6277
:1024B80083E7002081E700BF000000202449922420
:1024C8009224491292244900499224000368D86C46
:1024D8007047000030B482B00022019290F82420A6
:1024E800012A00F091800346012280F824204A68DE
:1024F800062A2DD80468606B02EB8202053A4FF079
:102508001F0C0CFA02FC20EA0C000D6805FA02F216
:10251800024362630A68092A3AD91C68E06802EB38
:1025280042021E3A4FF0070C0CFA02FC20EA0C009B
:102538008D6805FA02F20243E2600A68103A012A3D
:1025480036D90020002283F8242002B030BC70471E
:102558000C2A0ED80568286B02EB8202233A1F2446
:10256800944020EA04000C6804FA02F202432A6349
:10257800D0E70568E86A02EB8202413A1F249440DA
:1025880020EA04000C6804FA02F20243EA62C1E796
:102598001C68206902EB42024FF0070C0CFA02FC9F
:1025A80020EA0C008D6805FA02F202432261C4E7B2
:1025B8001A681648824205D09A6A42F020029A6246
:1025C8000120BFE7906810F4000F1BD1906840F419
:1025D800000090600A68102A01D00020B2E70C4A77
:1025E80012680C49A1FB0212920C02EB8202520003
:1025F800019202E0019A013A0192019A002AF9D166
:1026080000209FE700209DE702209EE7002401406C
:102618000000002083DE1B4330B583B00023019304
:1026280003689A6812F0010F33D104469A6842F0A1
:1026380001029A60184B1B68184AA2FB03239B0CE3
:10264800019302E0019B013B0193019B002BF9D10F
:10265800FFF760FE054623689B6813F0010F16D14B
:10266800FFF758FE431B022BF5D923689B6813F02C
:10267800010FF0D1A36A43F01003A362E36A43F0A9
:102688000103E362002384F82430012002E00020E3
:1026980000E0002003B030BD0000002083DE1B43B3
:1026A80090F82430012B68D010B50446012380F837
:1026B8002430FFF7B1FF00285BD1A36A23F44073ED
:1026C80023F0010343F48073A36223682C4A9342E6
:1026D80027D0A26A22F48012A2625A6812F4806F8C
:1026E80005D0A26A22F4405242F48052A262A26A41
:1026F80012F4805F2BD0E26A22F00602E262002226
:1027080084F824206FF002021A6023689A6802F4A1
:102718006022B2F5602F1DD09A6842F480129A6048
:102728002AE0A2F58062526812F4702FD1D0A26A12
:1027380042F48012A262134A526812F4806FD6D013
:10274800A26A22F4405242F48052A262CFE70022E9
:10275800E262D4E70A4A934204D09A6842F4A0029B
:102768009A6009E0A2F58062526812F4702FD3D102
:10277800F3E7002384F8243010BD0220704700BF1F
:10278800002801400024014038B503689A6812F017
:10279800010F01D1002038BD04469A6822F00102D9
:1027A8009A60FFF7B7FD054623689B6813F0010F91
:1027B80013D0FFF7AFFD431B022BF5D923689B68A5
:1027C80013F0010FF0D0A36A43F01003A362E36A89
:1027D80043F00103E3620120DDE70020DBE70000AE
:1027E800002800F0888070B50446836A002B52D018
:1027F8002046FFF7C9FFA36A13F0100375D100281C
:1028080073D1A26A22F4885222F0020242F0020234
:10281800A2626268266839498E4242D0E1690A4359
:10282800217B42EA4102A568B5F5807F02D0012DDF
:102838003ED01D4694F814C0BCF1010F3BD071681E
:1028480021F46941294371602568AE682C493140FB
:102858001143A960A168B1F5807F01D0012902D197
:102868002369013B1B052568E96A21F470010B43C4
:10287800EB6223689968234B0B409A422CD0A36AD9
:1028880023F0120343F01003A362E36A43F0010349
:10289800E36201202EE0C36280F82430FEF71CFFBB
:1028A800A6E7E169B1F5402FB9D14FF40021B6E7A9
:1028B8004FF48075BEE731B9A169013945EA413164
:1028C80041F40065BBE7A16A41F02001A162E16A19
:1028D80041F00101E162B2E70023E362A36A23F059
:1028E800030343F00103A36204E0A36A43F0100367
:1028F800A362012070BD0120704700BF003C014069
:10290800FDF7E1FFFE0E1FFF70B582B000230193B3
:1029180090F82430012B72D00446012380F824302B
:10292800FFF732FF2046FFF777FE054628B1002360
:1029380084F82430284602B070BDA36A23F4885373
:1029480023F0020343F00203A3622E4B1E68022009
:1029580001F056F8B6FBF0F67600019602E0019B0E
:10296800013B0193019B002BF9D12268936843F046
:1029780008039360FFF7CEFC064623689A6812F0B6
:10298800080F14D0FFF7C6FC801B0A28F5D9236866
:102998009B6813F0080FF0D0A36A23F0120343F0EA
:1029A8001003A362002384F824300125C2E79A6843
:1029B80042F004029A60FFF7ADFC064623689B6864
:1029C80013F0040F14D0FFF7A5FC801B0A28F5D9D3
:1029D80023689B6813F0040FF0D0A36A23F0120356
:1029E80043F01003A362002384F824300125A1E7F3
:1029F800A36A23F0030343F00103A36297E70225C8
:102A080098E700BF00000020074AD36823F4E0637A
:102A18001B041B0C000200F4E060034343F0BF6397
:102A280043F40033D360704700ED00E000B5194B64
:102A3800DB68C3F30223C3F1070CBCF1040F28BF02
:102A48004FF0040C03F1040EBEF1060F18D9033B36
:102A58004FF0FF3E0EFA0CFC21EA0C0199400EFAE9
:102A680003F322EA0303194300280BDB0901C9B267
:102A780000F1604000F5614080F800135DF804FB48
:102A88000023E5E700F00F000901C9B2024B195411
:102A9800F4E700BF00ED00E014ED00E0002807DBDC
:102AA80000F01F02400901239340024A42F82030F7
:102AB800704700BF00E100E00138B0F1807F0BD221
:102AC8004FF0E0235861054AF02182F823100020D6
:102AD800986107221A6170470120704700ED00E0F5
:102AE80000283AD010B4024600681D4B984229D8F5
:102AF8001C4B03441C49A1FB03131B099B001364D3
:102B08001A4BD363022382F82130016821F47F51E4
:102B180021F03001536894682343D468234314692F
:102B280023435469234394692343D46923430B43C0
:102B3800036000209063012382F8213082F820008E
:102B480010BC70470A4B03440749A1FB03131B0938
:102B58009B001364074BD363D4E70120704700BF81
:102B680007040240F8FFFDBFCDCCCCCC00000240EA
:102B7800F8FBFDBF0004024090F82130DBB2022BC5
:102B880006D004238363002380F820300120704797
:102B98000268136823F00E0313600268136823F0B9
:102BA80001031360036CC16B012202FA03F34B604B
:102BB80080F82120002380F8203018467047000054
:102BC80008B590F82130DBB2022B03D004238363CD
:102BD800012008BD0268136823F00E031360026821
:102BE800136823F00103136003684C4A93424ED9DB
:102BF800783A934224D01432934230D0143293421C
:102C08002FD0143293422FD0143293422FD0143243
:102C180093422FD0143293422FD002F5627293421E
:102C28002ED0143293422DD0143293422CD0143229
:102C3800934202D04FF4803203E04FF4805200E018
:102C48000122374B5A60012380F82130002380F895
:102C58002030436B002B5ED098470020B9E7102244
:102C6800EFE74FF48072ECE74FF48052E9E74FF456
:102C78008032E6E74FF48012E3E74FF08072E0E736
:102C88000122DEE71022DCE74FF48072D9E7254AFB
:102C9800934224D01432934225D01432934224D044
:102CA8001432934224D01432934224D014329342E3
:102CB80024D01432934224D002F56272934223D076
:102CC8001432934222D01432934221D014329342C8
:102CD80002D04FF4803203E04FF4805200E001222A
:102CE800114B5A60AFE71022FAE74FF48072F7E70A
:102CF8004FF48052F4E74FF48032F1E74FF480123A
:102D0800EEE74FF08072EBE70122E9E71022E7E7F0
:102D18004FF48072E4E700205BE700BF80000240C8
:102D280000040240080002400000024038B5C36BAE
:102D38001A6804682568016C04238B40134200F06C
:102D48009B8015F0040F00F09780236813F0200F84
:102D580003D1236823F00403236003689A4A93424B
:102D680046D9783A934224D01432934228D0143268
:102D7800934227D01432934227D01432934227D05B
:102D88001432934227D01432934227D002F562724C
:102D9800934226D01432934225D01432934224D041
:102DA8001432934202D04FF4802203E04FF4804261
:102DB80000E00422854B5A60C36A03B1984738BDC6
:102DC8004022F7E74FF48062F4E74FF48042F1E7DE
:102DD8004FF48022EEE74FF48002EBE74FF0806279
:102DE800E8E70422E6E74022E4E74FF48062E1E7FF
:102DF800774A934224D01432934225D01432934216
:102E080024D01432934224D01432934224D0143262
:102E1800934224D01432934224D002F56272934232
:102E280023D01432934222D01432934221D0143248
:102E3800934202D04FF4802203E04FF4804200E036
:102E48000422644B5A60B7E74022FAE74FF48062E5
:102E5800F7E74FF48042F4E74FF48022F1E74FF4AC
:102E68008002EEE74FF08062EBE70422E9E74022B8
:102E7800E7E74FF48062E4E702238B40134200F057
:102E8800AB8015F0020F00F0A780236813F0200F25
:102E980006D1236823F00A032360012380F8213038
:102EA8000368494A93424BD9783A934224D0143262
:102EB80093422DD0143293422CD0143293422CD00A
:102EC800143293422CD0143293422CD014329342B1
:102ED8002CD002F5627293422BD0143293422AD03E
:102EE8001432934229D01432934202D04FF4003264
:102EF80003E04FF4005200E00222344B5A600023F2
:102F080080F82030836A002B3FF459AF984756E782
:102F18002022F2E74FF40072EFE74FF40052ECE79B
:102F28004FF40032E9E74FF40012E6E74FF0007281
:102F3800E3E70222E1E72022DFE74FF40072DCE753
:102F4800234A934224D01432934225D01432934218
:102F580024D01432934224D01432934224D0143211
:102F6800934224D01432934224D002F562729342E1
:102F780023D01432934222D01432934221D01432F7
:102F8800934202D04FF4003203E04FF4005200E0C5
:102F98000222104B5A60B2E72022FAE74FF400727F
:102FA800F7E74FF40052F4E74FF40032F1E74FF43B
:102FB8000012EEE74FF00072EBE70222E9E7202269
:102FC800E7E74FF40072E4E78000024000040240A3
:102FD8000800024000000240082303FA01F11142F0
:102FE8003FF4EDAE15F0080F3FF4E9AE236823F087
:102FF8000E032360026CC16B012303FA02F24A60DC
:10300800836380F82130002380F82030036B002B85
:103018003FF4D5AE9847D2E670B582B00024A446F6
:10302800B0E0874DAA4210D007D9864DAA420CD0ED
:1030380005F58035AA4208D013E0A5F58015AA4207
:1030480003D005F57025AA4207D18A68002A62D004
:10305800012A5BD04361082403E0A5F58015AA4244
:10306800F3D0BEF1FF0F58D80646BEF1FF0F56D871
:103078004FEA8C0233680F25954023EA050304FACA
:1030880002F2134333604B6813F0805F78D06E4BC5
:103098009A6942F001029A619B6903F00103019366
:1030A800019B4FEA9C02951C684B53F825600CF075
:1030B80003039D000F23AB4026EA0306644B9842A6
:1030C80033D003F58063984200F0988003F580635D
:1030D800984200F0958003F58063984200F0928052
:1030E80003F58063984200F08F8003F5806398426F
:1030F80019D006231AE0CC68B3E7CC680434B0E7EB
:10310800CC680834ADE7CC680C34AAE7036108241E
:10311800A7E70024A5E70424A3E7061DA5E7ACF16B
:1031280008029200A6E7052300E00023AB403343E2
:103138000232464D45F822304B6813F4801F65D0A3
:10314800444A936843EA0E0393604B6813F4001FE4
:1031580062D0404AD36843EA0E03D3604B6813F445
:10316800003F5FD03B4A536843EA0E0353604B6805
:1031780013F4803F5CD0374A136843EA0E031360A8
:103188000CF1010C0A6832FA0CF357D0012303FA48
:103198000CF302EA030E33EA0202F1D14A68122A5A
:1031A8003FF63FAF122A3FF65CAF01A555F822F073
:1031B80053300008FF300008093100081B310008AF
:1031C8006B3000086B3000086B3000086B3000086B
:1031D8006B3000086B3000086B3000086B3000085B
:1031E8006B3000086B3000086B3000086B3000084B
:1031F8006B300008033100080F310008012395E700
:10320800022393E7032391E704238FE7114A936886
:1032180023EA0E03936098E70E4AD36823EA0E0365
:10322800D3609BE70B4A536823EA0E0353609EE77B
:10323800084A136823EA0E031360A1E702B070BDC1
:103248000000221000003110001002400000014070
:1032580000080140000401408368194201D00120A0
:103268007047002070470AB1016170470904016185
:103278007047C36801EA030221EA030141EA0241F7
:103288000161704708B5054B5B69034200D108BD71
:10329800024B586120F0C4FEF9E700BF000401406A
:1032A80082B0084B1B68084AA2FB03235B0A00FB99
:1032B80003F3019300BF019B5A1E0192002BF9D121
:1032C80002B0704700000020D34D6210002800F0C3
:1032D800F18170B582B00446036813F0010F2CD059
:1032E800994B5B6803F00C03042B1DD0964B5B686D
:1032F80003F00C03082B12D06368B3F5803F41D06C
:10330800002B55D103F1804303F504331A6822F4E6
:1033180080321A601A6822F480221A6037E08A4BD9
:103328005B6813F4803FE7D0874B1B6813F4003FBA
:1033380003D06368002B00F0BF81236813F0020FED
:1033480075D0814B5B6813F00C0F5FD07E4B5B68C8
:1033580003F00C03082B54D02369002B00F08A805B
:103368007A4B01221A60FEF7D5FF0546764B1B689B
:1033780013F0020F75D1FEF7CDFF401B0228F5D9D7
:1033880003209EE1704A136843F480331360636836
:1033980043B3FEF7BFFF05466B4B1B6813F4003FB2
:1033A800CBD1FEF7B7FF401B6428F5D9032088E18D
:1033B800B3F5A02F09D0644B1A6822F480321A6042
:1033C8001A6822F480221A60E1E703F18043A3F52A
:1033D8003C331A6842F480221A601A6842F4803238
:1033E8001A60D4E7FEF796FF0546574B1B6813F49F
:1033F800003FA2D0FEF78EFF401B6428F5D90320BA
:103408005FE1514B5B6813F4803FA5D14E4B1B68BD
:1034180013F0020F03D02369012B40F04F814A4A71
:10342800136823F0F803616943EAC1031360236852
:1034380013F0080F33D0A369002B5CD0434B012253
:10344800C3F88024FEF766FF05463F4B5B6A13F01E
:10345800020F21D1FEF75EFF401B0228F5D9032099
:103468002FE1394A136823F0F803616943EAC1037D
:103478001360DCE7354B00221A60FEF74BFF054668
:10348800314B1B6813F0020FD1D0FEF743FF401BEE
:103498000228F5D9032014E10120FFF701FF236872
:1034A80013F0040F00F09680274BDB6913F0805F60
:1034B80034D1254BDA6942F08052DA61DB6903F0D6
:1034C80080530193019B0125214B1B6813F4807FD6
:1034D80026D0E368012B3DD0002B53D103F1804364
:1034E80003F504331A6A22F001021A621A6A22F0FA
:1034F80004021A6233E0154B0022C3F88024FEF759
:1035080009FF0546104B5B6A13F0020FC7D0FEF7A0
:1035180001FF401B0228F5D90320D2E00025D3E79C
:103528000B4A136843F480731360FEF7F3FE0646F4
:10353800074B1B6813F4807FCBD1FEF7EBFE801B93
:103548006428F5D90320BCE0001002400000424284
:10355800007000405F4A136A43F001031362E36896
:1035680033B3FEF7D7FE06465A4B1B6A13F0020F19
:103578002FD1FEF7CFFE801B41F288339842F3D952
:1035880003209EE0052B09D0524B1A6A22F0010253
:103598001A621A6A22F004021A62E0E74D4B1A6AAC
:1035A80042F004021A621A6A42F001021A62D6E76D
:1035B800FEF7B0FE0646474B1B6A13F0020F08D011
:1035C800FEF7A8FE801B41F288339842F3D9032006
:1035D80077E0E5B9E369002B72D03E4A526802F001
:1035E8000C02082A56D0022B17D03B4B00221A6631
:1035F800FEF790FE0446374B1B6813F0007F47D058
:10360800FEF788FE001B0228F5D9032059E0314A4D
:10361800D36923F08053D361DCE72F4B00221A666D
:10362800FEF778FE05462B4B1B6813F0007F06D08B
:10363800FEF770FE401B0228F5D9032041E0236AFB
:10364800B3F5803F1AD023494B6823F47413226AD8
:10365800606A024313434B601F4B01221A66FEF750
:1036680059FE04461B4B1B6813F0007F0ED1FEF772
:1036780051FE001B0228F5D9032022E0154A5368A1
:1036880023F40033A1680B435360DCE7002018E003
:10369800002016E0012B16D00E4B5B6803F4803136
:1036A800226A914211D103F47013626A93420ED1D7
:1036B800002006E001207047012002E0012000E020
:1036C800002002B070BD0120FBE70120F9E70120CE
:1036D800F7E700BF00100240000042420F4B5B6852
:1036E80003F00C02082A01D00D487047C3F3834247
:1036F8000C49885C13F4803F0BD0084B5B68C3F31C
:103708004043094AD35C064A02FB00F0B0FBF3F0E1
:103718007047064B03FB00F0704700BF00100240E3
:1037280000127A0008B4020818B4020800093D0023
:10373800002800F0A08070B50D460446524B1B6867
:1037480003F007038B420BD24F4A136823F0070399
:103758000B431360136803F007038B4240F08D801E
:10376800236813F0020F17D013F0040F04D0474A50
:10377800536843F4E0635360236813F0080F04D0E0
:10378800424A536843F460535360404A536823F0F5
:10379800F003A1680B435360236813F0010F31D085
:1037A8006368012B20D0022B25D0384A126812F00A
:1037B800020F64D035494A6822F0030213434B6074
:1037C800FEF7A8FD0646314B5B6803F00C03626800
:1037D800B3EB820F16D0FEF79DFD801B41F28833B4
:1037E8009842F0D9032045E0284A126812F4003FB5
:1037F800E0D101203EE0254A126812F0007FD9D1BD
:10380800012037E0204B1B6803F00703AB420AD9BD
:103818001D4A136823F007032B431360136803F052
:103828000703AB422DD1236813F0040F06D0174AC3
:10383800536823F4E063E1680B435360236813F093
:10384800080F07D0114A536823F46053216943EAEB
:10385800C1035360FFF742FF0C4B5B68C3F30313CC
:103868000B4AD35CD8400B4B18600B4B1868FEF71B
:103878000DFD002070BD012070470120FAE70120EE
:10388800F8E70120F6E700BF0020024000100240E0
:10389800F0B302080000002008000020014B18685F
:1038A800704700BF0000002008B5FFF7F7FF044B82
:1038B8005B68C3F30223034AD35CD84008BD00BF4A
:1038C8000010024000B4020808B5FFF7E7FF044BF8
:1038D8005B68C3F3C223034AD35CD84008BD00BF6A
:1038E8000010024000B4020870B582B004460368B4
:1038F80013F0010F36D03F4BDB6913F0805F49D1DD
:103908003C4BDA6942F08052DA61DB6903F080539C
:103918000193019B0125384B1B6813F4807F3BD032
:10392800344B1B6A13F4407313D0626802F440727C
:103938009A420ED02F4A136A23F440702F49012669
:10394800C1F840640026C1F84064106213F0010F0A
:1039580036D1284A136A23F4407361680B43136213
:10396800002D3ED1236813F0020F06D0214A536878
:1039780023F44043A1680B435360236813F0100FEE
:1039880034D01C4A536823F4800361690B435360A5
:1039980000202CE00025BEE7174A136843F4807323
:1039A8001360FEF7B7FC0646134B1B6813F4807FC1
:1039B800B6D1FEF7AFFC801B6428F5D9032016E0CA
:1039C800FEF7A8FC06460B4B1B6A13F0020FC0D18A
:1039D800FEF7A0FC801B41F288339842F3D90320FC
:1039E80005E0D36923F08053D361BBE7002002B020
:1039F80070BD00BF0010024000700040000042424D
:103A080008B501380F2863D8DFE800F03557622F72
:103A18006262623262626262626262082F4B5A6854
:103A2800186810F0807054D0C2F383432C49C85CE6
:103A380012F4803F15D0294B5B68C3F34043294AF1
:103A4800D25C294BB3FBF2F303FB00F0234B5B681A
:103A580013F4800F3DD14000244BA3FB00304008F5
:103A680037E0234B03FB00F0F0E7FFF737FE30E0C9
:103A7800FFF734FE2DE0194B1B6A40F202321A4060
:103A8800B2F5817F26D003F44073B3F5007F04D0EC
:103A9800B3F5407F09D000201BE0104A526A12F0AB
:103AA800020FF5D049F6404013E00C4B186810F4AB
:103AB80000300ED04FF224400BE0FFF705FF074B14
:103AC8005B68C3F3813301335B00B0FBF3F000E0C4
:103AD800002008BD4FF40040FBE700BF0010024083
:103AE8001CB402082CB4020800127A00ABAAAAAAD5
:103AF80000093D0070B582B00446002301930068B8
:103B080001F0E9FF054610B1284602B070BD2068F3
:103B180002F0DAFA38B90123A364A36C012B0BD0A5
:103B28002E46284614E00023A364206801F0D3FF42
:103B38000028F2D00546E7E70021206802F032F9B4
:103B48000028EDD04FF08055DEE7019B013301934B
:103B5800019A4FF6FE739A4213D896B9002120684D
:103B680002F020F9E0B91249206802F0F9F9064696
:103B7800C0B90021206801F099FFC30FE5D01E46A7
:103B8800E3E7019A4FF6FE739A420ED810F080438D
:103B980002D001236364B7E7002262641D46B3E7DD
:103BA8000546B1E74FF08055AEE74FF08075ABE7BB
:103BB800000010C1F8B5846AC66AA6B9F8BD3868AD
:103BC80001F04FFF2070C0F307236370C0F3074371
:103BD800A370000EE0700434043E0135072DEED9C1
:103BE800BC62FE62EAE707460025F7E7F0B583B056
:103BF800046A466ADEB903B0F0BD2378019362789F
:103C080043EA02230193A27843EA02430193E2784C
:103C180043EA026301930434043E01A9386801F0C1
:103C280023FF0135072DE8D93C627E62E3E70746AA
:103C38000025F7E7F0B589B004460F46FEF76AFBA2
:103C480006460023009301930821206802F000F83B
:103C5800054610B1284609B0F0BD216D0904206859
:103C680002F0A0F805460028F4D14FF0FF33029384
:103C78000823039330230493022305930023069318
:103C88000123079302A9206801F013FF206802F0BE
:103C9800B9F8054658B1DDE701F0E3FE4DF8250017
:103CA8000135FEF737FB831BB3F1FF3F3FD0206898
:103CB800436B13F02A0F07D1436B13F4001FEBD1AA
:103CC800436B13F4005FECD1436B13F0080F25D15D
:103CD800436B13F0020F24D1456B15F0200523D157
:103CE80040F23A538363019A130203F47F0343EAD1
:103CF8000263110A01F47F410B4343EA12633B60FC
:103D0800009A130203F47F0343EA0263110A01F4E1
:103D18007F410B4343EA12637B609BE70825856379
:103D280098E70225856395E72025856392E74FF09C
:103D380000458FE710B582B004460021009101913B
:103D4800006801F0B3FE10F0007F13D169462046E9
:103D5800FFF770FF80B9019B13F4802F0ED0216DFF
:103D68000904206802F01EF830B90221206802F028
:103D780031F801E04FF4006002B010BD4FF08060F0
:103D8800FAE710B582B0044600210091019100685D
:103D980001F08CFE10F0007F13D169462046FFF732
:103DA80049FF80B9019B13F4803F0ED0216D0904AF
:103DB800206801F0F7FF30B90021206802F00AF806
:103DC80001E04FF4006002B010BD4FF08060FAE7E8
:103DD80070B581B104460E46016D0904006802F011
:103DE80029F8054608B1284670BD0021206801F071
:103DF8005DFE3060F7E74FF00065F4E72DE9F04F1E
:103E080087B005460C4616469B46DDF840A0FEF7EF
:103E180081FA002C36D0814695F83470FFB2012F14
:103E280040F005810023AB6306EB0B03EA6D934278
:103E38002ED8032385F834302B680022DA626B6CA5
:103E4800012B00D076024FF0FF3300934FEA4B234B
:103E580001939023029302230393002304930123E5
:103E680005936946286801F024FEBBF1010F14D9B7
:103E780002232B633146286801F01AFFA0B9DDF848
:103E8800048038E0AB6B43F00063AB630127D3E0F9
:103E9800AB6B43F00073AB63CEE001232B63314679
:103EA800286801F0EDFEE9E72B68654A9A63AB6B79
:103EB8001843A863012385F8343000232B63BBE043
:103EC800286801F0CEFD2070C0F307236370C0F3AB
:103ED8000743A370000EE0700434A8F1040801360B
:103EE800072EEDD9FEF716FAA0EB0900504510D2BF
:103EF800BAF1000F0DD02868466B40F22A331E40F5
:103F080015D1436B13F4004FECD0B8F1000FE9D092
:103F1800E6E72B684A4A9A63AB6B43F00043AB630E
:103F2800012385F8343000232B63032784E0436B97
:103F380013F4807F05D0BBF1010F02D96B6C032B02
:103F480038D12B685A6B12F0080F44D15A6B12F013
:103F5800020F4CD15A6B12F0200F54D12868436BD2
:103F680013F4001F5BD0B8F1000F58D001F079FDB1
:103F78002070C0F307236370C0F30743A370000EDB
:103F8800E0700434A8F10408FEF7C4F9A0EB0900B6
:103F9800504502D2BAF1000FE0D12B68284A9A6343
:103FA800AB6B43F00043AB63012385F83430002347
:103FB8002B6341E001F0C4FE03460028C1D02A6803
:103FC8001F499163AA6B1343AB63012385F834300F
:103FD80000232B6330E01A4A9A63AB6B43F0080363
:103FE800AB63012385F8343000232B6324E0144AA3
:103FF8009A63AB6B43F00203AB63012385F834305B
:1040080000232B6318E00E4A9A63AB6B43F020033E
:10401800AB63012385F8343000232B630CE040F2B6
:104028003A538363012385F83430002704E0AB6BEF
:1040380043F00053AB630127384607B0BDE8F08F63
:10404800FF0540002DE9F04F8BB005460C4616469B
:104058009B46DDF850A0FEF75DF9002C37D080466E
:1040680095F83470FFB2012F40F0E2800023AB6373
:1040780006EB0B03EA6D93422FD8032385F83430FF
:104088002B680022DA626B6C012B00D076024FF0AD
:10409800FF3304934FEA4B230593902306930023A1
:1040A800079308930123099304A9286801F001FDE7
:1040B800BBF1010F16D920232B633146286801F084
:1040C80027FE0190019BABB9DDF8149040E0AB6B83
:1040D80043F00063AB630127AFE0AB6B43F00073C1
:1040E800AB63AAE010232B633146286801F0F8FD82
:1040F8000190E7E72B68534A9A63A86B019B184322
:10410800A863012385F8343000232B6395E02378D6
:104118000393627843EA02230393A27843EA0243B3
:104128000393E27843EA026303930434A9F1040990
:1041380003A9286801F098FC0136072EE7D9FEF795
:10414800E9F8A0EB0800504510D2BAF1000F0DD0E5
:104158002868466B40F21A331E4015D1436B13F49E
:10416800804FECD0B9F1000FE9D0E6E72B68354A6B
:104178009A63A86B019B1843A863012385F8343020
:1041880000232B63032758E0436B13F4807F05D08B
:10419800BBF1010F02D96B6C032B18D12B685A6B3A
:1041A80012F0080F24D15A6B12F0020F2CD15A6B5F
:1041B80012F0100F34D0234A9A63AB6B43F010030C
:1041C800AB63012385F8343000232B6335E001F01D
:1041D800B7FD03460028E1D02A681A499163AA6B03
:1041E8001343AB63012385F8343000232B6324E0A9
:1041F800144A9A63AB6B43F00803AB63012385F859
:10420800343000232B6318E00E4A9A63AB6B43F0FB
:104218000203AB63012385F8343000232B630CE0E1
:1042280040F23A529A63012385F83430002704E0BB
:10423800AB6B43F00053AB63012738460BB0BDE8C6
:10424800F08F00BFFF05400070470000436E9B0FD2
:104258000B70436EC3F383634B7090F8673003F0C1
:1042680003038B7090F86630CB7090F865300B7153
:1042780090F864304B71836E1B0DCB80B0F86A30B8
:1042880003F00F030B72836EC3F3C0334B72836E5C
:10429800C3F380338B72836EC3F34033CB72836E68
:1042A800C3F300330B7300234B73436C002B40F0B4
:1042B8008680826E40F6FC7303EA8203C26E43EA8C
:1042C80092730B61C36EC3F3C2630B7590F86F30C2
:1042D80003F007034B75C36EC3F342538B75C36E6C
:1042E800C3F38243CB75C36EC3F3C2330B760B693A
:1042F800013343650A7E02F00702023293404365A8
:104308000A7A02F00F0C012202FA0CF28265520AB4
:1043180002FB03F3C3654FF400730366C36EC3F374
:1043280080334B76C36EC3F3C6138B76C36E03F02C
:104338007F03CB76036FDB0F0B77036FC3F34173F8
:104348004B77036FC3F382638B77036FC3F3835396
:10435800CB77036FC3F3405381F82030002381F8F3
:104368002130B0F8722002F0010281F82220026F99
:10437800C2F3C03281F82320026FC2F3803281F881
:104388002420026FC2F3403281F82520026FC2F365
:10439800003281F82620026FC2F3812281F827209B
:1043A800026FC2F3012281F82820026FC2F346028D
:1043B80081F82920012281F82A2018467047012B0C
:1043C80011D1836E1B0403F47C13B0F86E201343E1
:1043D8000B610B6901339B024365C3654FF400739E
:1043E800836503669AE70368054A9A63836B43F01B
:1043F80080538363012380F834301846704700BF28
:10440800FF05400070B590B004460123ADF81230A6
:10441800006801F032FB00286CD0636C032B45D197
:10442800636C032B5DD1636C032B1DD0BDF8121098
:1044380021650904206801F058FD054600285BD174
:104448000021206801F032FB60660421206801F039
:104458002DFBA0660821206801F028FBE0660C21EE
:10446800206801F023FB20670421206801F01EFB6F
:10447800000DE06405A92046FFF7E8FE00283ED1BC
:10448800226D12040023206801F074FC054698BBD5
:10449800234653F8106B93E807008DE807000434AF
:1044A80094E80E00304601F0C3FA25E0206801F0D8
:1044B80007FD054600BB0021206801F0F7FA606798
:1044C8000421206801F0F2FAA0670821206801F0B1
:1044D800EDFAE0670C21206801F0E8FAC4F88000E2
:1044E8009EE70DF11201206801F0A4FD05460028A1
:1044F80099D001E04FF08065284610B070BD4FF0AC
:104508008055F9E770B58AB00446002304930593F3
:10451800069307930893762309930AAB13E90700D8
:104528008DE8070004AB0ECB206801F081FA18B1C2
:10453800012528460AB070BD05461A4E0023C6F864
:10454800A030206801F095FA0123C6F8A0300220B7
:10455800FDF7E6FE2046FFF7CDFA30B1012584F8D5
:104568003450A36B0343A363E3E72046FFF74AFFF6
:1045780030B1012584F83450A36B0343A363D8E713
:104588004FF40071206801F063FB0028D1D0236844
:1045980005499963A36B0343A363012584F8345049
:1045A800C7E700BF00003042FF054000A8B110B5C2
:1045B800044690F8343063B1032384F8343020463D
:1045C800FFF7A0FF58B9A0632063012384F83430B3
:1045D80010BD0377FDF7E6F9EEE7012070470120EB
:1045E800F6E7436C0B60836C4B60C36C8B60036DA8
:1045F800CB60436D0B61836D4B61C36D8B61036E43
:10460800CB6100207047000030B58BB004460D46E2
:10461800032380F83430436C032B1CD0B1F5805F42
:1046280008D0B1F5006F0AD079B1836B43F000630D
:10463800836314E0836B43F0805383630FE0FFF7D9
:1046480079FBA36B0343A36309E0FFF79AFBA36B12
:104658000343A36303E0836B43F080538363A36B3B
:10466800C3B12368174A9A63012584F834504FF47C
:104678000071206801F0ECFA30B1236811499963A0
:10468800A36B0343A3630125012384F83430284630
:104698000BB030BD63680493A3680593E368069381
:1046A800079563690893A36909930AAB13E907009F
:1046B8008DE8070004AB0ECB206801F0B9F900259E
:1046C800D5E700BFFF05400010B582B004460023BF
:1046D800019301A9FFF77CFB10B1A36B0343A3630C
:1046E8000198C0F3432002B010BD10B5446A236896
:1046F80040F23A529A632046FFF7E6FF012384F816
:104708003430002323630538012805D9A36B53B936
:10471800204601F040FD10BD206801F011FBA36B9D
:104728000343A363F2E72046FFF78EFDF3E710B5D6
:10473800446A236840F23A529A632046FFF7C4FF5E
:10474800012384F83430002323630538012805D970
:10475800A36B53B9204601F01EFD10BD206801F07F
:10476800EFFAA36B0343A363F2E72046FFF76CFD60
:10477800F3E7000038B50446056B03685A6B12F47A
:10478800004F02D015F0080F28D15A6B12F4807F21
:104798005AD04FF480729A632268D36B23F4414352
:1047A80023F03A03D3632268D36A23F00103D36268
:1047B80015F0080F26D015F0220F12D1236840F209
:1047C8003A529A63012384F834300023236315F0A6
:1047D800030F13D0204601F0E8FC01E0FFF7EAF9E7
:1047E80038BD206801F0ACFA03460028E6D0A26B79
:1047F8001343A3632046FFF727FDDFE7204601F0B8
:10480800CFFCEDE715F0800FEAD015F0200F0ED1A0
:1048180015F0030FE4D12268D36A23F00803D362AA
:10482800012384F83430204601F0BAFCD8E7206828
:1048380001F086FA03460028EAD0A26B1343A3636B
:104848002046FFF701FDE3E75A6B12F4804F02D0D0
:1048580015F0080F4CD15A6B12F03A0FC0D05A6BB2
:1048680012F0020F03D0A26B42F00202A2635A6B4D
:1048780012F0080F03D0A26B42F00802A2635A6B31
:1048880012F0200F03D0A26B42F02002A2635A6BF1
:1048980012F0100F03D0A26B42F01002A26340F294
:1048A8003A729A632268D36B23F44E7323F002039F
:1048B800D363206801F044FAA36B0343A36315F0A4
:1048C800080F19D115F0800F8AD015F0300F1CD1C0
:1048D80015F0030F26D0236C174A5A63206CFEF795
:1048E8006FF900283FF47CAF206CFFF720FF77E7D3
:1048F8002046FFF77BF973E7012384F8343000235F
:1049080023632046FFF7A0FC6AE7E36B0B4A5A6370
:10491800E06BFEF755F900283FF462AFE06BFFF754
:10492800E4FE5DE70023A363012284F834202363B7
:10493800204601F030FC53E737470008F3460008EB
:10494800002856D010B50446436A33B94368B3F516
:10495800827F05D00023C36102E000230361436125
:104968000023A36294F85130002B3CD0022384F832
:1049780051302268136823F040031360636803F41E
:104988008273A26802F404421343E26802F40062EC
:104998001343226902F002021343626902F0010222
:1049A8001343A26902F400721343E26902F0380269
:1049B8001343226A02F080021343A26A02F40052EF
:1049C800216813430B60638B226803F00403536070
:1049D8002268D36923F40063D36100206065012352
:1049E80084F8513010BD84F850302046FDF766F841
:1049F800BCE701207047000030B4036A026A22F065
:104A0800010202624268846924F073040D682C4331
:104A180023F0020C8B6843EA0C03104DA84203D024
:104A280005F50065A84205D123F00803CD682B439E
:104A380023F00403094DA84203D005F50065A842F8
:104A480005D122F440724D692A438D692A43426098
:104A580084614A684263036230BC7047002C01409D
:104A680030B4036A026A22F4807202624268C4693E
:104A780024F0730C0C6844EA0C0523F400738C686A
:104A880043EA0423114CA04203D004F50064A04279
:104A980006D123F40063CC6843EA042323F480633B
:104AA8000A4CA04203D004F50064A04207D122F4C6
:104AB80040524C6942EA04128C6942EA041242608C
:104AC800C5614A68C263036230BC7047002C01406C
:104AD80030B4036A026A22F4805202624468C269EE
:104AE80022F4E6420D6842EA052223F400538D6859
:104AF80043EA0533094DA84203D005F50065A842ED
:104B080004D124F480444D6944EA85144460C261A8
:104B18004A680264036230BC704700BF002C014041
:104B280010B4036A046A24F001040462846924F05E
:104B3800F00C4CEA021223F00A030B438261036271
:104B480010BC704710B4036A046A24F010040462AD
:104B5800846924F4704C4CEA023223F0A00343EA3F
:104B680001138261036210BC7047836823F07003ED
:104B78000B4343F0070383607047000090F83D3013
:104B8800DBB2012B2FD1022380F83D300268D368B5
:104B980043F00103D3600368154A934218D002F525
:104BA8000062934214D0B3F1804F11D0A2F598322D
:104BB80093420DD002F58062934209D002F58062DB
:104BC800934205D01A6842F001021A60002070472B
:104BD8009A6802F00702062A07D01A6842F0010212
:104BE8001A6000207047012070470020704700BFFE
:104BF800002C0140704770477047704710B5044655
:104C080003681A6912F0020F11D0DA6812F0020F65
:104C18000DD06FF002021A610123037703689B69C4
:104C280013F0030F70D0FFF7E6FF00232377236804
:104C38001A6912F0040F12D0DA6812F0040F0ED0BD
:104C48006FF004021A610223237723689B6913F427
:104C5800407F5FD02046FFF7CEFF002323772368ED
:104C68001A6912F0080F12D0DA6812F0080F0ED085
:104C78006FF008021A61042323772368DB6913F0B5
:104C8800030F4ED02046FFF7B6FF00232377236893
:104C98001A6912F0100F12D0DA6812F0100F0ED045
:104CA8006FF010021A61082323772368DB6913F475
:104CB800407F3DD02046FFF79EFF002323772368DF
:104CC8001A6912F0010F03D0DA6812F0010F36D119
:104CD80023681A6912F0800F03D0DA6812F0800F87
:104CE80034D123681A6912F0400F03D0DA6812F041
:104CF800400F32D123681A6912F0200F03D0DA6806
:104D080012F0200F30D110BDFFF774FF2046FFF7D7
:104D180073FF8AE72046FFF76DFF2046FFF76CFF19
:104D28009BE72046FFF766FF2046FFF765FFACE7E5
:104D38002046FFF75FFF2046FFF75EFFBDE76FF0F5
:104D480001021A6120461FF097F8C1E76FF0800250
:104D58001A61204600F0D6FAC3E76FF040021A61E4
:104D68002046FFF74AFFC5E76FF020021A61204688
:104D780000F0C7FAC7E700000368244A904212D03F
:104D880002F5006290420ED0B0F1804F0BD0A2F530
:104D98009832904207D002F58062904203D002F523
:104DA8008062904203D123F070034A681343174A84
:104DB800904212D002F5006290420ED0B0F1804FBE
:104DC8000BD0A2F59832904207D002F5806290424B
:104DD80003D002F58062904203D123F44073CA687D
:104DE800134323F080034A69134303608B68C3624B
:104DF8000B688362054B984203D003F50063984221
:104E080001D10B690363012343617047002C014002
:104E180040B310B5044690F83D30F3B1022384F84E
:104E28003D30214651F8040BFFF7A6FF012384F813
:104E3800463084F83E3084F83F3084F8403084F8B7
:104E4800413084F8423084F8433084F8443084F8A0
:104E5800453084F83D30002010BD80F83C30FCF728
:104E6800F3FFDBE70120704740B310B5044690F824
:104E78003D30F3B1022384F83D30214651F8040B4C
:104E8800FFF77AFF012384F8463084F83E3084F82F
:104E98003F3084F8403084F8413084F8423084F858
:104EA800433084F8443084F8453084F83D3000209D
:104EB80010BD80F83C30FCF7A1FFDBE7012070470C
:104EC80030B4036A026A22F01002026244688269FE
:104ED80022F4E6420D6842EA052223F020038D6899
:104EE80043EA0513114DA84203D005F50065A84211
:104EF80006D123F08003CD6843EA051323F040036D
:104F08000A4DA84203D005F50065A84207D124F44C
:104F180040644D6944EA85048D6944EA8504446027
:104F280082614A688263036230BC7047002C01408A
:104F380038B590F83C30012B66D004460D46012365
:104F480080F83C300C2A5AD8DFE802F00759595942
:104F58001B5959593059595944000068FFF74CFDFD
:104F68002268936943F0080393612268936923F0E8
:104F7800040393612268936929690B4393610020B4
:104F88003EE00068FFF79CFF2268936943F40063E2
:104F980093612268936923F480639361226893691B
:104FA800296943EA01239361002029E00068FFF79B
:104FB80057FD2268D36943F00803D3612268D36997
:104FC80023F00403D3612268D36929690B43D361B1
:104FD800002015E00068FFF77BFD2268D36943F4E1
:104FE8000063D3612268D36923F48063D3612268A4
:104FF800D369296943EA0123D361002000E0012035
:10500800002384F83C3038BD0220FCE710B48468E3
:1050180024F47F4C42EA03220A4342EA0C028260EB
:1050280010BC704790F83C30012B78D010B504467E
:10503800012380F83C30022380F83D3002689368F1
:1050480023F47F4323F0770393600B68602B4CD0E5
:1050580029D8402B54D00CD9502B22D1CA68496882
:105068000068FFF75DFD50212068FFF77EFD0020F6
:1050780005E0202B0DD009D9302B0AD001200123BF
:1050880084F83D30002384F83C3010BD0BB1102B60
:1050980005D119462068FFF768FD0020EFE70120D9
:1050A800EDE70120EBE7B3F5805F34D0B3F5005F9F
:1050B8000CD1CB684A6889680068FFF7A7FF2268A7
:1050C800936843F4804393600020D8E7702B24D181
:1050D800CB684A6889680068FFF798FF2268936878
:1050E80043F0770393600020C9E7CA6849680068FD
:1050F800FFF728FD60212068FFF737FD0020BEE795
:10510800CA6849680068FFF70BFD40212068FFF76F
:105118002CFD0020B3E70020B1E70120AFE7022013
:10512800704701F01F01012303FA01FC036A23EA17
:105138000C030362036A02FA01F10B43036270472E
:1051480010B50446084600293AD194F83E30DBB23F
:10515800013B18BF0123002B66D1002849D1022347
:1051680084F83E30012201462068FFF7DAFF236801
:105178002F4A934203D002F50062934203D15A6C3E
:1051880042F400425A642368294A934241D002F506
:10519800006293423DD0B3F1804F3AD0A2F59832E5
:1051A800934236D002F58062934232D002F5806293
:1051B80093422ED01A6842F001021A60002032E0B1
:1051C800042908D008290DD094F84130DBB2013BFE
:1051D80018BF0123BFE794F83F30DBB2013B18BF8B
:1051E8000123B8E794F84030DBB2013B18BF012334
:1051F800B1E7042805D0082807D0022384F84130F5
:10520800B0E7022384F83F30ACE7022384F840304B
:10521800A8E79A6802F00702062A07D01A6842F03F
:1052280001021A60002010BD0120FCE70020FAE707
:10523800002C014090F83C30012B34D010B40123ED
:1052480080F83C30022380F83D3003685A689C6837
:1052580022F0700C0A6842EA0C025A600368134A8A
:10526800934212D002F5006293420ED0B3F1804F00
:105278000BD0A2F59832934207D002F58062934290
:1052880003D002F58062934204D124F080044A6876
:1052980014439C60012380F83D30002380F83C30A3
:1052A800184610BC70470220704700BF002C014010
:1052B80090F83C30012B22D0012380F83C30CB6899
:1052C80023F440738A68134323F480634A681343C2
:1052D80023F400630A68134323F480530A691343D1
:1052E80023F400534A69134323F48043CA691343E0
:1052F80002685364002380F83C3018467047022047
:10530800704770477047026802F10C0353E8003F8A
:1053180023F490730C3242E800310029F3D102687B
:1053280002F1140353E8003F23F00103143242E86A
:1053380000310029F3D1036B012B05D0202380F81D
:105348004230002303637047026802F10C0353E8FC
:10535800003F23F010030C3242E800310029F3D15A
:10536800ECE790F84130DBB2212B01D002207047E6
:105378008368B3F5805F17D0036A5A1C02621A78F3
:1053880003685A60C38C9BB2013B9BB2C3844BB980
:105398000268D36823F08003D3600268D36843F0BF
:1053A8004003D360002070470369002BE4D1036AEF
:1053B8001B880268C3F308035360036A023303625D
:1053C800E0E7000010B504460268136923F440536F
:1053D800C1680B43136183680269134342691A4326
:1053E8000168CB6823F4B05323F00C031343CB605C
:1053F8000268536923F4407381690B43536102685F
:10540800134B9A4220D0FEF74FFA024602EB820273
:1054180002EB820263689B00B2FBF3F20D48A0FB2B
:1054280002314909642303FB11231B013233A0FB1A
:1054380003235B0903F0F00202EB011203F00F03F0
:10544800216813448B6010BDFEF73EFA0246DDE783
:10545800003801401F85EB512DE9F84305460F46FA
:1054680016469946DDF820802C68246837EA04033C
:105478000CBF4FF0010C4FF0000CB4452DD1B8F122
:10548800FF3FF1D0B8F1000F05D0FCF743FFA0EBC8
:1054980009004045E8D92A6802F10C0353E8003FA7
:1054A80023F4D0730C3242E800310029F3D12A6882
:1054B80002F1140353E8003F23F00103143242E8D9
:1054C80000310029F3D1202385F8413085F8423096
:1054D800002385F84030032000E00020BDE8F88371
:1054E80060B310B5044690F8413013B3242384F810
:1054F80041302268D36823F40053D3602046FFF775
:1055080061FF2268136923F4904313612268536989
:1055180023F02A0353612268D36843F40053D3600D
:1055280000206064202384F8413084F842306063AE
:1055380010BD80F84030FCF705FED7E70120704722
:105548002DE9F04182B01E4690F84130DBB2202BA5
:105558004BD104460D46904600294AD00AB901208D
:1055680044E000234364212380F84130FCF7D2FE55
:105578000746A4F82480A4F82680A368B3F5805FC2
:1055880002D04FF000080FE02369FBB14FF000088C
:105598000AE038F8023B2268C3F308035360E28C40
:1055A80092B2013A92B2E284E38C9BB28BB100963C
:1055B8003B46002280212046FFF74EFFD8B9002D38
:1055C800E7D015F8012B23685A60E8E7A8460025BC
:1055D800EAE700963B46002240212046FFF73CFFC1
:1055E80058B9202384F8413000E0022002B0BDE819
:1055F800F0810120FAE70320F8E70320F6E7704777
:1056080008B50168CA6822F04002CA60202280F802
:105618004120FFF7F4FF002008BD704708B5406A35
:105628000023C385C384FFF7F8FF08BD704790F8CF
:105638004230DBB2222B69D18368B3F5805F4FD04B
:10564800826AB3F5805F04D0002B56D10369002B22
:1056580053D103685B681370836A01338362C38D17
:105668009BB2013B9BB2C385002B51D100B583B0DF
:105678000268D36823F02003D3600268D36823F458
:105688008073D3600268536923F0010353612023B8
:1056980080F8423000234363036B012B33D100238E
:1056A8000363026802F10C0353E8003F23F0100380
:1056B8000C3242E800310029F3D103681A6812F06D
:1056C800100F06D0002201921A6801925B680193BC
:1056D800019B818DFFF7AAFF002003B05DF804FB52
:1056E8000269002AACD1826A03685B68C3F30803C5
:1056F8001380836A02338362B1E703685B6803F04F
:105708007F031370A8E71EF0B1FCE5E7022070479D
:105718000020704730B583B0044602681368D0682B
:10572800516913F00F0505D113F0200F02D010F0C6
:10573800200F19D12DB111F0010119D110F4907F6A
:1057480016D1216B01297DD013F0800F03D010F002
:10575800800F40F0188113F0400F03D010F0400F75
:1057680040F0158103B030BD2046FFF760FFF9E730
:1057780013F0010F06D010F4807F03D0626C42F062
:105788000102626413F0040F04D019B1626C42F094
:105798000202626413F0020F04D019B1626C42F085
:1057A8000402626413F0080F07D010F0200F00D134
:1057B80019B1626C42F008026264626C002AD1D0AE
:1057C80013F0200F02D010F0200F29D123685B6955
:1057D80003F04003626C12F0080F00D163B3204657
:1057E800FFF791FD23685B6913F0400F20D0226812
:1057F80002F1140353E8003F23F04003143242E857
:1058080000310029F3D1E36B73B1634A5A63E06B4B
:10581800FDF7D6F90028A5D0E06B436B9847A1E7C0
:105828002046FFF704FFD1E72046FFF7F6FE99E789
:105838002046FFF7F2FE95E72046FFF7EEFE00232D
:1058480063648FE713F0100F3FF47EAF10F0100F72
:105858003FF47AAF002301931368019353680193CF
:10586800019B536913F0400F51D0E26B13685B68DA
:105878009BB2002B3FF476AFA18D99427FF672AFB1
:10588800E3859369202B37D0226802F10C0353E893
:10589800003F23F480730C3242E800310029F3D131
:1058A800226802F1140353E8003F23F00103143285
:1058B80042E800310029F3D1226802F1140353E8C9
:1058C800003F23F04003143242E800310029F3D1AD
:1058D800202384F8423000232363226802F10C035A
:1058E80053E8003F23F010030C3242E8003100294E
:1058F800F3D1E06BFDF740F902236363A18DE38DDB
:105908009BB2C91A89B22046FFF790FE2AE7A18DFB
:10591800E38D9BB2C91A89B2E38D9BB2002B3FF489
:1059280021AF00293FF41EAF226802F10C0353E8AF
:10593800003F23F490730C3242E800300028F3D182
:10594800226802F1140353E8003F23F001031432E4
:1059580042E800300028F3D1202384F842300023A5
:105968002363226802F10C0353E8003F23F010037D
:105978000C3242E800300028F3D10223636320464A
:10598800FFF754FEEEE62046FFF7EBFCEAE620467A
:10599800FFF736FEE6E600BF2556000881628285DD
:1059A800C28500234364222380F84230036923B16F
:1059B8000268D36843F48073D3600268536943F084
:1059C800010353610268D36843F02003D3600020C9
:1059D800704708B590F84230DBB2202B08D149B1A6
:1059E8000AB9012008BD00230363FFF7D7FFF9E7D1
:1059F8000220F7E70120F5E70B4B1B680B4AA2FBD7
:105A080003235B0A41F2883202FB03F31A46013B87
:105A18003AB1426B12F0800FF8D0C523836300209F
:105A280070474FF00040704700000020D34D6210CF
:105A380084B00DF1040C8CE80E000B461343039A56
:105A48001343049A1343059A1343069A134342686F
:105A580022F4FD4222F07F0213434360002004B089
:105A68007047D0F8800070470B68C0F8803000207D
:105A780070470323036000207047006800F00300AC
:105A880070470B6883604B688A681343CA6813437E
:105A98000A691343C26822F47F6222F00F0213439B
:105AA800C360002070470069C0B270471430405886
:105AB80070470B6843624B6883628B68CA681343FC
:105AC8000A6913434A691343C26A22F0F70213436F
